{
  "contractName": "EducationSystem",
  "abi": [
    {
      "inputs": [],
      "stateMutability": "nonpayable",
      "type": "constructor"
    },
    {
      "anonymous": false,
      "inputs": [
        {
          "indexed": true,
          "internalType": "address",
          "name": "owner",
          "type": "address"
        },
        {
          "indexed": true,
          "internalType": "address",
          "name": "approved",
          "type": "address"
        },
        {
          "indexed": true,
          "internalType": "uint256",
          "name": "tokenId",
          "type": "uint256"
        }
      ],
      "name": "Approval",
      "type": "event"
    },
    {
      "anonymous": false,
      "inputs": [
        {
          "indexed": true,
          "internalType": "address",
          "name": "owner",
          "type": "address"
        },
        {
          "indexed": true,
          "internalType": "address",
          "name": "operator",
          "type": "address"
        },
        {
          "indexed": false,
          "internalType": "bool",
          "name": "approved",
          "type": "bool"
        }
      ],
      "name": "ApprovalForAll",
      "type": "event"
    },
    {
      "anonymous": false,
      "inputs": [
        {
          "indexed": false,
          "internalType": "uint256",
          "name": "_fromTokenId",
          "type": "uint256"
        },
        {
          "indexed": false,
          "internalType": "uint256",
          "name": "_toTokenId",
          "type": "uint256"
        }
      ],
      "name": "BatchMetadataUpdate",
      "type": "event"
    },
    {
      "anonymous": false,
      "inputs": [
        {
          "indexed": false,
          "internalType": "uint256",
          "name": "_tokenId",
          "type": "uint256"
        }
      ],
      "name": "MetadataUpdate",
      "type": "event"
    },
    {
      "anonymous": false,
      "inputs": [
        {
          "indexed": true,
          "internalType": "address",
          "name": "from",
          "type": "address"
        },
        {
          "indexed": true,
          "internalType": "address",
          "name": "to",
          "type": "address"
        },
        {
          "indexed": true,
          "internalType": "uint256",
          "name": "tokenId",
          "type": "uint256"
        }
      ],
      "name": "Transfer",
      "type": "event"
    },
    {
      "inputs": [],
      "name": "EXPIRY_PERIOD",
      "outputs": [
        {
          "internalType": "uint256",
          "name": "",
          "type": "uint256"
        }
      ],
      "stateMutability": "view",
      "type": "function",
      "constant": true
    },
    {
      "inputs": [
        {
          "internalType": "address",
          "name": "to",
          "type": "address"
        },
        {
          "internalType": "uint256",
          "name": "tokenId",
          "type": "uint256"
        }
      ],
      "name": "approve",
      "outputs": [],
      "stateMutability": "nonpayable",
      "type": "function"
    },
    {
      "inputs": [
        {
          "internalType": "address",
          "name": "owner",
          "type": "address"
        }
      ],
      "name": "balanceOf",
      "outputs": [
        {
          "internalType": "uint256",
          "name": "",
          "type": "uint256"
        }
      ],
      "stateMutability": "view",
      "type": "function",
      "constant": true
    },
    {
      "inputs": [
        {
          "internalType": "uint256",
          "name": "tokenId",
          "type": "uint256"
        }
      ],
      "name": "getApproved",
      "outputs": [
        {
          "internalType": "address",
          "name": "",
          "type": "address"
        }
      ],
      "stateMutability": "view",
      "type": "function",
      "constant": true
    },
    {
      "inputs": [],
      "name": "government",
      "outputs": [
        {
          "internalType": "address",
          "name": "",
          "type": "address"
        }
      ],
      "stateMutability": "view",
      "type": "function",
      "constant": true
    },
    {
      "inputs": [
        {
          "internalType": "uint256",
          "name": "",
          "type": "uint256"
        }
      ],
      "name": "ipfsById",
      "outputs": [
        {
          "internalType": "string",
          "name": "",
          "type": "string"
        }
      ],
      "stateMutability": "view",
      "type": "function",
      "constant": true
    },
    {
      "inputs": [
        {
          "internalType": "address",
          "name": "owner",
          "type": "address"
        },
        {
          "internalType": "address",
          "name": "operator",
          "type": "address"
        }
      ],
      "name": "isApprovedForAll",
      "outputs": [
        {
          "internalType": "bool",
          "name": "",
          "type": "bool"
        }
      ],
      "stateMutability": "view",
      "type": "function",
      "constant": true
    },
    {
      "inputs": [],
      "name": "name",
      "outputs": [
        {
          "internalType": "string",
          "name": "",
          "type": "string"
        }
      ],
      "stateMutability": "view",
      "type": "function",
      "constant": true
    },
    {
      "inputs": [
        {
          "internalType": "uint256",
          "name": "tokenId",
          "type": "uint256"
        }
      ],
      "name": "ownerOf",
      "outputs": [
        {
          "internalType": "address",
          "name": "",
          "type": "address"
        }
      ],
      "stateMutability": "view",
      "type": "function",
      "constant": true
    },
    {
      "inputs": [
        {
          "internalType": "address",
          "name": "from",
          "type": "address"
        },
        {
          "internalType": "address",
          "name": "to",
          "type": "address"
        },
        {
          "internalType": "uint256",
          "name": "tokenId",
          "type": "uint256"
        }
      ],
      "name": "safeTransferFrom",
      "outputs": [],
      "stateMutability": "nonpayable",
      "type": "function"
    },
    {
      "inputs": [
        {
          "internalType": "address",
          "name": "from",
          "type": "address"
        },
        {
          "internalType": "address",
          "name": "to",
          "type": "address"
        },
        {
          "internalType": "uint256",
          "name": "tokenId",
          "type": "uint256"
        },
        {
          "internalType": "bytes",
          "name": "data",
          "type": "bytes"
        }
      ],
      "name": "safeTransferFrom",
      "outputs": [],
      "stateMutability": "nonpayable",
      "type": "function"
    },
    {
      "inputs": [
        {
          "internalType": "uint256",
          "name": "",
          "type": "uint256"
        }
      ],
      "name": "schoolNFTs",
      "outputs": [
        {
          "internalType": "uint256",
          "name": "id",
          "type": "uint256"
        },
        {
          "internalType": "address",
          "name": "schoolAddress",
          "type": "address"
        },
        {
          "internalType": "address",
          "name": "studentAddress",
          "type": "address"
        },
        {
          "internalType": "uint256",
          "name": "issuedAt",
          "type": "uint256"
        }
      ],
      "stateMutability": "view",
      "type": "function",
      "constant": true
    },
    {
      "inputs": [
        {
          "internalType": "address",
          "name": "",
          "type": "address"
        },
        {
          "internalType": "uint256",
          "name": "",
          "type": "uint256"
        }
      ],
      "name": "schoolNFTsBySchool",
      "outputs": [
        {
          "internalType": "uint256",
          "name": "",
          "type": "uint256"
        }
      ],
      "stateMutability": "view",
      "type": "function",
      "constant": true
    },
    {
      "inputs": [
        {
          "internalType": "address",
          "name": "",
          "type": "address"
        }
      ],
      "name": "schools",
      "outputs": [
        {
          "internalType": "bool",
          "name": "",
          "type": "bool"
        }
      ],
      "stateMutability": "view",
      "type": "function",
      "constant": true
    },
    {
      "inputs": [
        {
          "internalType": "address",
          "name": "operator",
          "type": "address"
        },
        {
          "internalType": "bool",
          "name": "approved",
          "type": "bool"
        }
      ],
      "name": "setApprovalForAll",
      "outputs": [],
      "stateMutability": "nonpayable",
      "type": "function"
    },
    {
      "inputs": [
        {
          "internalType": "bytes4",
          "name": "interfaceId",
          "type": "bytes4"
        }
      ],
      "name": "supportsInterface",
      "outputs": [
        {
          "internalType": "bool",
          "name": "",
          "type": "bool"
        }
      ],
      "stateMutability": "view",
      "type": "function",
      "constant": true
    },
    {
      "inputs": [],
      "name": "symbol",
      "outputs": [
        {
          "internalType": "string",
          "name": "",
          "type": "string"
        }
      ],
      "stateMutability": "view",
      "type": "function",
      "constant": true
    },
    {
      "inputs": [
        {
          "internalType": "uint256",
          "name": "tokenId",
          "type": "uint256"
        }
      ],
      "name": "tokenURI",
      "outputs": [
        {
          "internalType": "string",
          "name": "",
          "type": "string"
        }
      ],
      "stateMutability": "view",
      "type": "function",
      "constant": true
    },
    {
      "inputs": [
        {
          "internalType": "address",
          "name": "from",
          "type": "address"
        },
        {
          "internalType": "address",
          "name": "to",
          "type": "address"
        },
        {
          "internalType": "uint256",
          "name": "tokenId",
          "type": "uint256"
        }
      ],
      "name": "transferFrom",
      "outputs": [],
      "stateMutability": "nonpayable",
      "type": "function"
    },
    {
      "inputs": [
        {
          "internalType": "address",
          "name": "_schoolAddress",
          "type": "address"
        }
      ],
      "name": "createSchool",
      "outputs": [],
      "stateMutability": "nonpayable",
      "type": "function"
    },
    {
      "inputs": [
        {
          "internalType": "address",
          "name": "_studentAddress",
          "type": "address"
        }
      ],
      "name": "createStudent",
      "outputs": [],
      "stateMutability": "nonpayable",
      "type": "function"
    },
    {
      "inputs": [
        {
          "internalType": "address",
          "name": "wallet",
          "type": "address"
        }
      ],
      "name": "getStudent",
      "outputs": [
        {
          "internalType": "address[]",
          "name": "",
          "type": "address[]"
        },
        {
          "internalType": "uint256[]",
          "name": "",
          "type": "uint256[]"
        }
      ],
      "stateMutability": "view",
      "type": "function",
      "constant": true
    },
    {
      "inputs": [
        {
          "internalType": "address",
          "name": "_studentAddress",
          "type": "address"
        }
      ],
      "name": "deleteStudent",
      "outputs": [],
      "stateMutability": "nonpayable",
      "type": "function"
    },
    {
      "inputs": [
        {
          "internalType": "address",
          "name": "_studentAddress",
          "type": "address"
        },
        {
          "internalType": "string",
          "name": "tokenURI",
          "type": "string"
        }
      ],
      "name": "issueNFT",
      "outputs": [],
      "stateMutability": "nonpayable",
      "type": "function"
    },
    {
      "inputs": [
        {
          "internalType": "uint256",
          "name": "_tokenId",
          "type": "uint256"
        }
      ],
      "name": "destroyNFT",
      "outputs": [],
      "stateMutability": "nonpayable",
      "type": "function"
    },
    {
      "inputs": [
        {
          "internalType": "uint256",
          "name": "id",
          "type": "uint256"
        }
      ],
      "name": "getSchoolNFTs",
      "outputs": [
        {
          "internalType": "address",
          "name": "",
          "type": "address"
        },
        {
          "internalType": "address",
          "name": "",
          "type": "address"
        },
        {
          "internalType": "uint256",
          "name": "",
          "type": "uint256"
        }
      ],
      "stateMutability": "view",
      "type": "function",
      "constant": true
    },
    {
      "inputs": [
        {
          "internalType": "uint256",
          "name": "tokenId",
          "type": "uint256"
        }
      ],
      "name": "getIPFSByID",
      "outputs": [
        {
          "internalType": "string",
          "name": "",
          "type": "string"
        }
      ],
      "stateMutability": "view",
      "type": "function",
      "constant": true
    },
    {
      "inputs": [
        {
          "internalType": "address",
          "name": "_studentAddress",
          "type": "address"
        }
      ],
      "name": "seeOwnedNFTs",
      "outputs": [
        {
          "internalType": "uint256[]",
          "name": "",
          "type": "uint256[]"
        }
      ],
      "stateMutability": "view",
      "type": "function",
      "constant": true
    },
    {
      "inputs": [
        {
          "internalType": "uint256",
          "name": "_tokenId",
          "type": "uint256"
        }
      ],
      "name": "seeNFTOrigin",
      "outputs": [
        {
          "internalType": "address",
          "name": "",
          "type": "address"
        }
      ],
      "stateMutability": "view",
      "type": "function",
      "constant": true
    }
  ],
  "bytecode": "0x608060405234801562000010575f80fd5b506040518060400160405280601281526020017f456475636174696f6e53797374656d4e465400000000000000000000000000008152506040518060400160405280600381526020017f45534e0000000000000000000000000000000000000000000000000000000000815250815f90816200008d91906200034c565b5080600190816200009f91906200034c565b5050503360085f6101000a81548173ffffffffffffffffffffffffffffffffffffffff021916908373ffffffffffffffffffffffffffffffffffffffff16021790555062000430565b5f81519050919050565b7f4e487b71000000000000000000000000000000000000000000000000000000005f52604160045260245ffd5b7f4e487b71000000000000000000000000000000000000000000000000000000005f52602260045260245ffd5b5f60028204905060018216806200016457607f821691505b6020821081036200017a57620001796200011f565b5b50919050565b5f819050815f5260205f209050919050565b5f6020601f8301049050919050565b5f82821b905092915050565b5f60088302620001de7fffffffffffffffffffffffffffffffffffffffffffffffffffffffffffffffff82620001a1565b620001ea8683620001a1565b95508019841693508086168417925050509392505050565b5f819050919050565b5f819050919050565b5f620002346200022e620002288462000202565b6200020b565b62000202565b9050919050565b5f819050919050565b6200024f8362000214565b620002676200025e826200023b565b848454620001ad565b825550505050565b5f90565b6200027d6200026f565b6200028a81848462000244565b505050565b5b81811015620002b157620002a55f8262000273565b60018101905062000290565b5050565b601f8211156200030057620002ca8162000180565b620002d58462000192565b81016020851015620002e5578190505b620002fd620002f48562000192565b8301826200028f565b50505b505050565b5f82821c905092915050565b5f620003225f198460080262000305565b1980831691505092915050565b5f6200033c838362000311565b9150826002028217905092915050565b6200035782620000e8565b67ffffffffffffffff811115620003735762000372620000f2565b5b6200037f82546200014c565b6200038c828285620002b5565b5f60209050601f831160018114620003c2575f8415620003ad578287015190505b620003b985826200032f565b86555062000428565b601f198416620003d28662000180565b5f5b82811015620003fb57848901518255600182019150602085019450602081019050620003d4565b868310156200041b578489015162000417601f89168262000311565b8355505b6001600288020188555050505b505050505050565b614264806200043e5f395ff3fe608060405234801561000f575f80fd5b50600436106101cd575f3560e01c8063675f796311610102578063a22cb465116100a0578063c3272e8c1161006f578063c3272e8c14610589578063c40412b5146105bb578063c87b56dd146105d7578063e985e9c514610607576101cd565b8063a22cb46514610519578063b304517e14610535578063b540e43814610551578063b88d4fde1461056d576101cd565b806370a08231116100dc57806370a082311461047f578063727790fa146104af578063730bcc5d146104df57806395d89b41146104fb576101cd565b8063675f7963146103ee5780636b7b44d71461041e5780636c78c8391461044f576101cd565b80632672f5261161016f578063333ec6be11610149578063333ec6be1461034257806342842e0e146103725780635b4ca27a1461038e5780636352211e146103be576101cd565b80632672f526146102d35780632896d49d146102f15780632d7a2e8f14610324576101cd565b8063095ea7b3116101ab578063095ea7b31461024f5780630c7d247a1461026b57806312a767e51461028757806323b872dd146102b7576101cd565b806301ffc9a7146101d157806306fdde0314610201578063081812fc1461021f575b5f80fd5b6101eb60048036038101906101e69190612d0a565b610637565b6040516101f89190612d4f565b60405180910390f35b610209610697565b6040516102169190612df2565b60405180910390f35b61023960048036038101906102349190612e45565b610726565b6040516102469190612eaf565b60405180910390f35b61026960048036038101906102649190612ef2565b610768565b005b61028560048036038101906102809190612f30565b61087e565b005b6102a1600480360381019061029c9190612e45565b610965565b6040516102ae9190612df2565b60405180910390f35b6102d160048036038101906102cc9190612f5b565b610a06565b005b6102db610a66565b6040516102e89190612eaf565b60405180910390f35b61030b60048036038101906103069190612e45565b610a8b565b60405161031b9493929190612fba565b60405180910390f35b61032c610af5565b6040516103399190612ffd565b60405180910390f35b61035c60048036038101906103579190612f30565b610afc565b60405161036991906130cd565b60405180910390f35b61038c60048036038101906103879190612f5b565b610b92565b005b6103a860048036038101906103a39190612e45565b610bb1565b6040516103b59190612df2565b60405180910390f35b6103d860048036038101906103d39190612e45565b610c4c565b6040516103e59190612eaf565b60405180910390f35b61040860048036038101906104039190612ef2565b610cd0565b6040516104159190612ffd565b60405180910390f35b61043860048036038101906104339190612f30565b610cfb565b6040516104469291906131a4565b60405180910390f35b61046960048036038101906104649190612e45565b610e5b565b6040516104769190612eaf565b60405180910390f35b61049960048036038101906104949190612f30565b610e97565b6040516104a69190612ffd565b60405180910390f35b6104c960048036038101906104c49190612f30565b610f4b565b6040516104d69190612d4f565b60405180910390f35b6104f960048036038101906104f49190612f30565b610f68565b005b6105036110a8565b6040516105109190612df2565b60405180910390f35b610533600480360381019061052e9190613203565b611138565b005b61054f600480360381019061054a9190612f30565b61114e565b005b61056b6004803603810190610566919061336d565b61139a565b005b61058760048036038101906105829190613465565b611699565b005b6105a3600480360381019061059e9190612e45565b6116fb565b6040516105b2939291906134e5565b60405180910390f35b6105d560048036038101906105d09190612e45565b611788565b005b6105f160048036038101906105ec9190612e45565b6118ef565b6040516105fe9190612df2565b60405180910390f35b610621600480360381019061061c919061351a565b6119f9565b60405161062e9190612d4f565b60405180910390f35b5f634906490660e01b7bffffffffffffffffffffffffffffffffffffffffffffffffffffffff1916827bffffffffffffffffffffffffffffffffffffffffffffffffffffffff19161480610690575061068f82611a87565b5b9050919050565b60605f80546106a590613585565b80601f01602080910402602001604051908101604052809291908181526020018280546106d190613585565b801561071c5780601f106106f35761010080835404028352916020019161071c565b820191905f5260205f20905b8154815290600101906020018083116106ff57829003601f168201915b5050505050905090565b5f61073082611b68565b60045f8381526020019081526020015f205f9054906101000a900473ffffffffffffffffffffffffffffffffffffffff169050919050565b5f61077282610c4c565b90508073ffffffffffffffffffffffffffffffffffffffff168373ffffffffffffffffffffffffffffffffffffffff16036107e2576040517f08c379a00000000000000000000000000000000000000000000000000000000081526004016107d990613625565b60405180910390fd5b8073ffffffffffffffffffffffffffffffffffffffff16610801611bb3565b73ffffffffffffffffffffffffffffffffffffffff161480610830575061082f8161082a611bb3565b6119f9565b5b61086f576040517f08c379a0000000000000000000000000000000000000000000000000000000008152600401610866906136b3565b60405180910390fd5b6108798383611bba565b505050565b60085f9054906101000a900473ffffffffffffffffffffffffffffffffffffffff1673ffffffffffffffffffffffffffffffffffffffff163373ffffffffffffffffffffffffffffffffffffffff161461090d576040517f08c379a000000000000000000000000000000000000000000000000000000000815260040161090490613741565b60405180910390fd5b600160095f8373ffffffffffffffffffffffffffffffffffffffff1673ffffffffffffffffffffffffffffffffffffffff1681526020019081526020015f205f6101000a81548160ff02191690831515021790555050565b6060600d5f8381526020019081526020015f20805461098390613585565b80601f01602080910402602001604051908101604052809291908181526020018280546109af90613585565b80156109fa5780601f106109d1576101008083540402835291602001916109fa565b820191905f5260205f20905b8154815290600101906020018083116109dd57829003601f168201915b50505050509050919050565b610a17610a11611bb3565b82611c70565b610a56576040517f08c379a0000000000000000000000000000000000000000000000000000000008152600401610a4d906137cf565b60405180910390fd5b610a61838383611d04565b505050565b60085f9054906101000a900473ffffffffffffffffffffffffffffffffffffffff1681565b600b602052805f5260405f205f91509050805f015490806001015f9054906101000a900473ffffffffffffffffffffffffffffffffffffffff1690806002015f9054906101000a900473ffffffffffffffffffffffffffffffffffffffff16908060030154905084565b62278d0081565b6060600a5f8373ffffffffffffffffffffffffffffffffffffffff1673ffffffffffffffffffffffffffffffffffffffff1681526020019081526020015f20600101805480602002602001604051908101604052809291908181526020018280548015610b8657602002820191905f5260205f20905b815481526020019060010190808311610b72575b50505050509050919050565b610bac83838360405180602001604052805f815250611699565b505050565b600d602052805f5260405f205f915090508054610bcd90613585565b80601f0160208091040260200160405190810160405280929190818152602001828054610bf990613585565b8015610c445780601f10610c1b57610100808354040283529160200191610c44565b820191905f5260205f20905b815481529060010190602001808311610c2757829003601f168201915b505050505081565b5f80610c5783611ff0565b90505f73ffffffffffffffffffffffffffffffffffffffff168173ffffffffffffffffffffffffffffffffffffffff1603610cc7576040517f08c379a0000000000000000000000000000000000000000000000000000000008152600401610cbe90613837565b60405180910390fd5b80915050919050565b600c602052815f5260405f208181548110610ce9575f80fd5b905f5260205f20015f91509150505481565b606080600a5f8473ffffffffffffffffffffffffffffffffffffffff1673ffffffffffffffffffffffffffffffffffffffff1681526020019081526020015f205f01600a5f8573ffffffffffffffffffffffffffffffffffffffff1673ffffffffffffffffffffffffffffffffffffffff1681526020019081526020015f2060010181805480602002602001604051908101604052809291908181526020018280548015610dfb57602002820191905f5260205f20905b815f9054906101000a900473ffffffffffffffffffffffffffffffffffffffff1673ffffffffffffffffffffffffffffffffffffffff1681526020019060010190808311610db2575b5050505050915080805480602002602001604051908101604052809291908181526020018280548015610e4b57602002820191905f5260205f20905b815481526020019060010190808311610e37575b5050505050905091509150915091565b5f600b5f8381526020019081526020015f206001015f9054906101000a900473ffffffffffffffffffffffffffffffffffffffff169050919050565b5f8073ffffffffffffffffffffffffffffffffffffffff168273ffffffffffffffffffffffffffffffffffffffff1603610f06576040517f08c379a0000000000000000000000000000000000000000000000000000000008152600401610efd906138c5565b60405180910390fd5b60035f8373ffffffffffffffffffffffffffffffffffffffff1673ffffffffffffffffffffffffffffffffffffffff1681526020019081526020015f20549050919050565b6009602052805f5260405f205f915054906101000a900460ff1681565b60095f3373ffffffffffffffffffffffffffffffffffffffff1673ffffffffffffffffffffffffffffffffffffffff1681526020019081526020015f205f9054906101000a900460ff1680611009575060085f9054906101000a900473ffffffffffffffffffffffffffffffffffffffff1673ffffffffffffffffffffffffffffffffffffffff163373ffffffffffffffffffffffffffffffffffffffff16145b611048576040517f08c379a000000000000000000000000000000000000000000000000000000000815260040161103f90613953565b60405180910390fd5b600a5f8273ffffffffffffffffffffffffffffffffffffffff1673ffffffffffffffffffffffffffffffffffffffff1681526020019081526020015f205f8082015f6110949190612b3e565b600182015f6110a39190612b5c565b505050565b6060600180546110b790613585565b80601f01602080910402602001604051908101604052809291908181526020018280546110e390613585565b801561112e5780601f106111055761010080835404028352916020019161112e565b820191905f5260205f20905b81548152906001019060200180831161111157829003601f168201915b5050505050905090565b61114a611143611bb3565b8383612029565b5050565b60085f9054906101000a900473ffffffffffffffffffffffffffffffffffffffff1673ffffffffffffffffffffffffffffffffffffffff163373ffffffffffffffffffffffffffffffffffffffff16146111dd576040517f08c379a00000000000000000000000000000000000000000000000000000000081526004016111d490613741565b60405180910390fd5b60405180604001604052805f67ffffffffffffffff81111561120257611201613249565b5b6040519080825280602002602001820160405280156112305781602001602082028036833780820191505090505b5081526020015f67ffffffffffffffff8111156112505761124f613249565b5b60405190808252806020026020018201604052801561127e5781602001602082028036833780820191505090505b50815250600a5f8373ffffffffffffffffffffffffffffffffffffffff1673ffffffffffffffffffffffffffffffffffffffff1681526020019081526020015f205f820151815f0190805190602001906112d9929190612b7a565b5060208201518160010190805190602001906112f6929190612c01565b50905050600a5f8273ffffffffffffffffffffffffffffffffffffffff1673ffffffffffffffffffffffffffffffffffffffff1681526020019081526020015f205f0133908060018154018082558091505060019003905f5260205f20015f9091909190916101000a81548173ffffffffffffffffffffffffffffffffffffffff021916908373ffffffffffffffffffffffffffffffffffffffff16021790555050565b60095f3373ffffffffffffffffffffffffffffffffffffffff1673ffffffffffffffffffffffffffffffffffffffff1681526020019081526020015f205f9054906101000a900460ff168061143b575060085f9054906101000a900473ffffffffffffffffffffffffffffffffffffffff1673ffffffffffffffffffffffffffffffffffffffff163373ffffffffffffffffffffffffffffffffffffffff16145b61147a576040517f08c379a000000000000000000000000000000000000000000000000000000000815260040161147190613953565b60405180910390fd5b5f60016114876007612190565b611491919061399e565b905061149d838261219c565b6114a781836123af565b60405180608001604052808281526020013373ffffffffffffffffffffffffffffffffffffffff1681526020018473ffffffffffffffffffffffffffffffffffffffff16815260200142815250600b5f8381526020019081526020015f205f820151815f01556020820151816001015f6101000a81548173ffffffffffffffffffffffffffffffffffffffff021916908373ffffffffffffffffffffffffffffffffffffffff1602179055506040820151816002015f6101000a81548173ffffffffffffffffffffffffffffffffffffffff021916908373ffffffffffffffffffffffffffffffffffffffff16021790555060608201518160030155905050600c5f3373ffffffffffffffffffffffffffffffffffffffff1673ffffffffffffffffffffffffffffffffffffffff1681526020019081526020015f2081908060018154018082558091505060019003905f5260205f20015f9091909190915055600a5f8473ffffffffffffffffffffffffffffffffffffffff1673ffffffffffffffffffffffffffffffffffffffff1681526020019081526020015f2060010181908060018154018082558091505060019003905f5260205f20015f909190919091505581600d5f8381526020019081526020015f2090816116899190613b6e565b506116946007612451565b505050565b6116aa6116a4611bb3565b83611c70565b6116e9576040517f08c379a00000000000000000000000000000000000000000000000000000000081526004016116e0906137cf565b60405180910390fd5b6116f584848484612465565b50505050565b5f805f600b5f8581526020019081526020015f206001015f9054906101000a900473ffffffffffffffffffffffffffffffffffffffff16600b5f8681526020019081526020015f206002015f9054906101000a900473ffffffffffffffffffffffffffffffffffffffff16600b5f8781526020019081526020015f20600301549250925092509193909250565b60095f3373ffffffffffffffffffffffffffffffffffffffff1673ffffffffffffffffffffffffffffffffffffffff1681526020019081526020015f205f9054906101000a900460ff16611811576040517f08c379a000000000000000000000000000000000000000000000000000000000815260040161180890613cad565b60405180910390fd5b62278d00600b5f8381526020019081526020015f2060030154611834919061399e565b421115611876576040517f08c379a000000000000000000000000000000000000000000000000000000000815260040161186d90613d3b565b60405180910390fd5b61187f816124c1565b600b5f8281526020019081526020015f205f8082015f9055600182015f6101000a81549073ffffffffffffffffffffffffffffffffffffffff0219169055600282015f6101000a81549073ffffffffffffffffffffffffffffffffffffffff0219169055600382015f9055505050565b60606118fa82611b68565b5f60065f8481526020019081526020015f20805461191790613585565b80601f016020809104026020016040519081016040528092919081815260200182805461194390613585565b801561198e5780601f106119655761010080835404028352916020019161198e565b820191905f5260205f20905b81548152906001019060200180831161197157829003601f168201915b505050505090505f61199e61250e565b90505f8151036119b25781925050506119f4565b5f825111156119e65780826040516020016119ce929190613d93565b604051602081830303815290604052925050506119f4565b6119ef84612524565b925050505b919050565b5f60055f8473ffffffffffffffffffffffffffffffffffffffff1673ffffffffffffffffffffffffffffffffffffffff1681526020019081526020015f205f8373ffffffffffffffffffffffffffffffffffffffff1673ffffffffffffffffffffffffffffffffffffffff1681526020019081526020015f205f9054906101000a900460ff16905092915050565b5f7f80ac58cd000000000000000000000000000000000000000000000000000000007bffffffffffffffffffffffffffffffffffffffffffffffffffffffff1916827bffffffffffffffffffffffffffffffffffffffffffffffffffffffff19161480611b5157507f5b5e139f000000000000000000000000000000000000000000000000000000007bffffffffffffffffffffffffffffffffffffffffffffffffffffffff1916827bffffffffffffffffffffffffffffffffffffffffffffffffffffffff1916145b80611b615750611b6082612589565b5b9050919050565b611b71816125f2565b611bb0576040517f08c379a0000000000000000000000000000000000000000000000000000000008152600401611ba790613837565b60405180910390fd5b50565b5f33905090565b8160045f8381526020019081526020015f205f6101000a81548173ffffffffffffffffffffffffffffffffffffffff021916908373ffffffffffffffffffffffffffffffffffffffff160217905550808273ffffffffffffffffffffffffffffffffffffffff16611c2a83610c4c565b73ffffffffffffffffffffffffffffffffffffffff167f8c5be1e5ebec7d5bd14f71427d1e84f3dd0314c0f7b2291e5b200ac8c7c3b92560405160405180910390a45050565b5f80611c7b83610c4c565b90508073ffffffffffffffffffffffffffffffffffffffff168473ffffffffffffffffffffffffffffffffffffffff161480611cbd5750611cbc81856119f9565b5b80611cfb57508373ffffffffffffffffffffffffffffffffffffffff16611ce384610726565b73ffffffffffffffffffffffffffffffffffffffff16145b91505092915050565b8273ffffffffffffffffffffffffffffffffffffffff16611d2482610c4c565b73ffffffffffffffffffffffffffffffffffffffff1614611d7a576040517f08c379a0000000000000000000000000000000000000000000000000000000008152600401611d7190613e26565b60405180910390fd5b5f73ffffffffffffffffffffffffffffffffffffffff168273ffffffffffffffffffffffffffffffffffffffff1603611de8576040517f08c379a0000000000000000000000000000000000000000000000000000000008152600401611ddf90613eb4565b60405180910390fd5b611df58383836001612632565b8273ffffffffffffffffffffffffffffffffffffffff16611e1582610c4c565b73ffffffffffffffffffffffffffffffffffffffff1614611e6b576040517f08c379a0000000000000000000000000000000000000000000000000000000008152600401611e6290613e26565b60405180910390fd5b60045f8281526020019081526020015f205f6101000a81549073ffffffffffffffffffffffffffffffffffffffff0219169055600160035f8573ffffffffffffffffffffffffffffffffffffffff1673ffffffffffffffffffffffffffffffffffffffff1681526020019081526020015f205f8282540392505081905550600160035f8473ffffffffffffffffffffffffffffffffffffffff1673ffffffffffffffffffffffffffffffffffffffff1681526020019081526020015f205f82825401925050819055508160025f8381526020019081526020015f205f6101000a81548173ffffffffffffffffffffffffffffffffffffffff021916908373ffffffffffffffffffffffffffffffffffffffff160217905550808273ffffffffffffffffffffffffffffffffffffffff168473ffffffffffffffffffffffffffffffffffffffff167fddf252ad1be2c89b69c2b068fc378daa952ba7f163c4a11628f55a4df523b3ef60405160405180910390a4611feb8383836001612638565b505050565b5f60025f8381526020019081526020015f205f9054906101000a900473ffffffffffffffffffffffffffffffffffffffff169050919050565b8173ffffffffffffffffffffffffffffffffffffffff168373ffffffffffffffffffffffffffffffffffffffff1603612097576040517f08c379a000000000000000000000000000000000000000000000000000000000815260040161208e90613f1c565b60405180910390fd5b8060055f8573ffffffffffffffffffffffffffffffffffffffff1673ffffffffffffffffffffffffffffffffffffffff1681526020019081526020015f205f8473ffffffffffffffffffffffffffffffffffffffff1673ffffffffffffffffffffffffffffffffffffffff1681526020019081526020015f205f6101000a81548160ff0219169083151502179055508173ffffffffffffffffffffffffffffffffffffffff168373ffffffffffffffffffffffffffffffffffffffff167f17307eab39ab6107e8899845ad3d59bd9653f200f220920489ca2b5937696c31836040516121839190612d4f565b60405180910390a3505050565b5f815f01549050919050565b5f73ffffffffffffffffffffffffffffffffffffffff168273ffffffffffffffffffffffffffffffffffffffff160361220a576040517f08c379a000000000000000000000000000000000000000000000000000000000815260040161220190613f84565b60405180910390fd5b612213816125f2565b15612253576040517f08c379a000000000000000000000000000000000000000000000000000000000815260040161224a90613fec565b60405180910390fd5b6122605f83836001612632565b612269816125f2565b156122a9576040517f08c379a00000000000000000000000000000000000000000000000000000000081526004016122a090613fec565b60405180910390fd5b600160035f8473ffffffffffffffffffffffffffffffffffffffff1673ffffffffffffffffffffffffffffffffffffffff1681526020019081526020015f205f82825401925050819055508160025f8381526020019081526020015f205f6101000a81548173ffffffffffffffffffffffffffffffffffffffff021916908373ffffffffffffffffffffffffffffffffffffffff160217905550808273ffffffffffffffffffffffffffffffffffffffff165f73ffffffffffffffffffffffffffffffffffffffff167fddf252ad1be2c89b69c2b068fc378daa952ba7f163c4a11628f55a4df523b3ef60405160405180910390a46123ab5f83836001612638565b5050565b6123b8826125f2565b6123f7576040517f08c379a00000000000000000000000000000000000000000000000000000000081526004016123ee9061407a565b60405180910390fd5b8060065f8481526020019081526020015f2090816124159190613b6e565b507ff8e1a15aba9398e019f0b49df1a4fde98ee17ae345cb5f6b5e2c27f5033e8ce7826040516124459190612ffd565b60405180910390a15050565b6001815f015f828254019250508190555050565b612470848484611d04565b61247c8484848461263e565b6124bb576040517f08c379a00000000000000000000000000000000000000000000000000000000081526004016124b290614108565b60405180910390fd5b50505050565b6124ca816127c0565b5f60065f8381526020019081526020015f2080546124e790613585565b90501461250b5760065f8281526020019081526020015f205f61250a9190612c4c565b5b50565b606060405180602001604052805f815250905090565b606061252f82611b68565b5f61253861250e565b90505f8151116125565760405180602001604052805f815250612581565b8061256084612901565b604051602001612571929190613d93565b6040516020818303038152906040525b915050919050565b5f7f01ffc9a7000000000000000000000000000000000000000000000000000000007bffffffffffffffffffffffffffffffffffffffffffffffffffffffff1916827bffffffffffffffffffffffffffffffffffffffffffffffffffffffff1916149050919050565b5f8073ffffffffffffffffffffffffffffffffffffffff1661261383611ff0565b73ffffffffffffffffffffffffffffffffffffffff1614159050919050565b50505050565b50505050565b5f61265e8473ffffffffffffffffffffffffffffffffffffffff166129cb565b156127b3578373ffffffffffffffffffffffffffffffffffffffff1663150b7a02612687611bb3565b8786866040518563ffffffff1660e01b81526004016126a99493929190614178565b6020604051808303815f875af19250505080156126e457506040513d601f19601f820116820180604052508101906126e191906141d6565b60015b612763573d805f8114612712576040519150601f19603f3d011682016040523d82523d5f602084013e612717565b606091505b505f81510361275b576040517f08c379a000000000000000000000000000000000000000000000000000000000815260040161275290614108565b60405180910390fd5b805181602001fd5b63150b7a0260e01b7bffffffffffffffffffffffffffffffffffffffffffffffffffffffff1916817bffffffffffffffffffffffffffffffffffffffffffffffffffffffff1916149150506127b8565b600190505b949350505050565b5f6127ca82610c4c565b90506127d9815f846001612632565b6127e282610c4c565b905060045f8381526020019081526020015f205f6101000a81549073ffffffffffffffffffffffffffffffffffffffff0219169055600160035f8373ffffffffffffffffffffffffffffffffffffffff1673ffffffffffffffffffffffffffffffffffffffff1681526020019081526020015f205f828254039250508190555060025f8381526020019081526020015f205f6101000a81549073ffffffffffffffffffffffffffffffffffffffff0219169055815f73ffffffffffffffffffffffffffffffffffffffff168273ffffffffffffffffffffffffffffffffffffffff167fddf252ad1be2c89b69c2b068fc378daa952ba7f163c4a11628f55a4df523b3ef60405160405180910390a46128fd815f846001612638565b5050565b60605f600161290f846129ed565b0190505f8167ffffffffffffffff81111561292d5761292c613249565b5b6040519080825280601f01601f19166020018201604052801561295f5781602001600182028036833780820191505090505b5090505f82602001820190505b6001156129c0578080600190039150507f3031323334353637383961626364656600000000000000000000000000000000600a86061a8153600a85816129b5576129b4614201565b5b0494505f850361296c575b819350505050919050565b5f808273ffffffffffffffffffffffffffffffffffffffff163b119050919050565b5f805f90507a184f03e93ff9f4daa797ed6e38ed64bf6a1f0100000000000000008310612a49577a184f03e93ff9f4daa797ed6e38ed64bf6a1f0100000000000000008381612a3f57612a3e614201565b5b0492506040810190505b6d04ee2d6d415b85acef81000000008310612a86576d04ee2d6d415b85acef81000000008381612a7c57612a7b614201565b5b0492506020810190505b662386f26fc100008310612ab557662386f26fc100008381612aab57612aaa614201565b5b0492506010810190505b6305f5e1008310612ade576305f5e1008381612ad457612ad3614201565b5b0492506008810190505b6127108310612b03576127108381612af957612af8614201565b5b0492506004810190505b60648310612b265760648381612b1c57612b1b614201565b5b0492506002810190505b600a8310612b35576001810190505b80915050919050565b5080545f8255905f5260205f2090810190612b599190612c89565b50565b5080545f8255905f5260205f2090810190612b779190612c89565b50565b828054828255905f5260205f20908101928215612bf0579160200282015b82811115612bef578251825f6101000a81548173ffffffffffffffffffffffffffffffffffffffff021916908373ffffffffffffffffffffffffffffffffffffffff16021790555091602001919060010190612b98565b5b509050612bfd9190612c89565b5090565b828054828255905f5260205f20908101928215612c3b579160200282015b82811115612c3a578251825591602001919060010190612c1f565b5b509050612c489190612c89565b5090565b508054612c5890613585565b5f825580601f10612c695750612c86565b601f0160209004905f5260205f2090810190612c859190612c89565b5b50565b5b80821115612ca0575f815f905550600101612c8a565b5090565b5f604051905090565b5f80fd5b5f80fd5b5f7fffffffff0000000000000000000000000000000000000000000000000000000082169050919050565b612ce981612cb5565b8114612cf3575f80fd5b50565b5f81359050612d0481612ce0565b92915050565b5f60208284031215612d1f57612d1e612cad565b5b5f612d2c84828501612cf6565b91505092915050565b5f8115159050919050565b612d4981612d35565b82525050565b5f602082019050612d625f830184612d40565b92915050565b5f81519050919050565b5f82825260208201905092915050565b5f5b83811015612d9f578082015181840152602081019050612d84565b5f8484015250505050565b5f601f19601f8301169050919050565b5f612dc482612d68565b612dce8185612d72565b9350612dde818560208601612d82565b612de781612daa565b840191505092915050565b5f6020820190508181035f830152612e0a8184612dba565b905092915050565b5f819050919050565b612e2481612e12565b8114612e2e575f80fd5b50565b5f81359050612e3f81612e1b565b92915050565b5f60208284031215612e5a57612e59612cad565b5b5f612e6784828501612e31565b91505092915050565b5f73ffffffffffffffffffffffffffffffffffffffff82169050919050565b5f612e9982612e70565b9050919050565b612ea981612e8f565b82525050565b5f602082019050612ec25f830184612ea0565b92915050565b612ed181612e8f565b8114612edb575f80fd5b50565b5f81359050612eec81612ec8565b92915050565b5f8060408385031215612f0857612f07612cad565b5b5f612f1585828601612ede565b9250506020612f2685828601612e31565b9150509250929050565b5f60208284031215612f4557612f44612cad565b5b5f612f5284828501612ede565b91505092915050565b5f805f60608486031215612f7257612f71612cad565b5b5f612f7f86828701612ede565b9350506020612f9086828701612ede565b9250506040612fa186828701612e31565b9150509250925092565b612fb481612e12565b82525050565b5f608082019050612fcd5f830187612fab565b612fda6020830186612ea0565b612fe76040830185612ea0565b612ff46060830184612fab565b95945050505050565b5f6020820190506130105f830184612fab565b92915050565b5f81519050919050565b5f82825260208201905092915050565b5f819050602082019050919050565b61304881612e12565b82525050565b5f613059838361303f565b60208301905092915050565b5f602082019050919050565b5f61307b82613016565b6130858185613020565b935061309083613030565b805f5b838110156130c05781516130a7888261304e565b97506130b283613065565b925050600181019050613093565b5085935050505092915050565b5f6020820190508181035f8301526130e58184613071565b905092915050565b5f81519050919050565b5f82825260208201905092915050565b5f819050602082019050919050565b61311f81612e8f565b82525050565b5f6131308383613116565b60208301905092915050565b5f602082019050919050565b5f613152826130ed565b61315c81856130f7565b935061316783613107565b805f5b8381101561319757815161317e8882613125565b97506131898361313c565b92505060018101905061316a565b5085935050505092915050565b5f6040820190508181035f8301526131bc8185613148565b905081810360208301526131d08184613071565b90509392505050565b6131e281612d35565b81146131ec575f80fd5b50565b5f813590506131fd816131d9565b92915050565b5f806040838503121561321957613218612cad565b5b5f61322685828601612ede565b9250506020613237858286016131ef565b9150509250929050565b5f80fd5b5f80fd5b7f4e487b71000000000000000000000000000000000000000000000000000000005f52604160045260245ffd5b61327f82612daa565b810181811067ffffffffffffffff8211171561329e5761329d613249565b5b80604052505050565b5f6132b0612ca4565b90506132bc8282613276565b919050565b5f67ffffffffffffffff8211156132db576132da613249565b5b6132e482612daa565b9050602081019050919050565b828183375f83830152505050565b5f61331161330c846132c1565b6132a7565b90508281526020810184848401111561332d5761332c613245565b5b6133388482856132f1565b509392505050565b5f82601f83011261335457613353613241565b5b81356133648482602086016132ff565b91505092915050565b5f806040838503121561338357613382612cad565b5b5f61339085828601612ede565b925050602083013567ffffffffffffffff8111156133b1576133b0612cb1565b5b6133bd85828601613340565b9150509250929050565b5f67ffffffffffffffff8211156133e1576133e0613249565b5b6133ea82612daa565b9050602081019050919050565b5f613409613404846133c7565b6132a7565b90508281526020810184848401111561342557613424613245565b5b6134308482856132f1565b509392505050565b5f82601f83011261344c5761344b613241565b5b813561345c8482602086016133f7565b91505092915050565b5f805f806080858703121561347d5761347c612cad565b5b5f61348a87828801612ede565b945050602061349b87828801612ede565b93505060406134ac87828801612e31565b925050606085013567ffffffffffffffff8111156134cd576134cc612cb1565b5b6134d987828801613438565b91505092959194509250565b5f6060820190506134f85f830186612ea0565b6135056020830185612ea0565b6135126040830184612fab565b949350505050565b5f80604083850312156135305761352f612cad565b5b5f61353d85828601612ede565b925050602061354e85828601612ede565b9150509250929050565b7f4e487b71000000000000000000000000000000000000000000000000000000005f52602260045260245ffd5b5f600282049050600182168061359c57607f821691505b6020821081036135af576135ae613558565b5b50919050565b7f4552433732313a20617070726f76616c20746f2063757272656e74206f776e655f8201527f7200000000000000000000000000000000000000000000000000000000000000602082015250565b5f61360f602183612d72565b915061361a826135b5565b604082019050919050565b5f6020820190508181035f83015261363c81613603565b9050919050565b7f4552433732313a20617070726f76652063616c6c6572206973206e6f7420746f5f8201527f6b656e206f776e6572206f7220617070726f76656420666f7220616c6c000000602082015250565b5f61369d603d83612d72565b91506136a882613643565b604082019050919050565b5f6020820190508181035f8301526136ca81613691565b9050919050565b7f4f6e6c792074686520676f7665726e6d656e742063616e20706572666f726d205f8201527f7468697320616374696f6e000000000000000000000000000000000000000000602082015250565b5f61372b602b83612d72565b9150613736826136d1565b604082019050919050565b5f6020820190508181035f8301526137588161371f565b9050919050565b7f4552433732313a2063616c6c6572206973206e6f7420746f6b656e206f776e655f8201527f72206f7220617070726f76656400000000000000000000000000000000000000602082015250565b5f6137b9602d83612d72565b91506137c48261375f565b604082019050919050565b5f6020820190508181035f8301526137e6816137ad565b9050919050565b7f4552433732313a20696e76616c696420746f6b656e20494400000000000000005f82015250565b5f613821601883612d72565b915061382c826137ed565b602082019050919050565b5f6020820190508181035f83015261384e81613815565b9050919050565b7f4552433732313a2061646472657373207a65726f206973206e6f7420612076615f8201527f6c6964206f776e65720000000000000000000000000000000000000000000000602082015250565b5f6138af602983612d72565b91506138ba82613855565b604082019050919050565b5f6020820190508181035f8301526138dc816138a3565b9050919050565b7f4f6e6c792061207363686f6f6c206f722074686520676f7665726d656e7420635f8201527f616e20706572666f726d207468697320616374696f6e00000000000000000000602082015250565b5f61393d603683612d72565b9150613948826138e3565b604082019050919050565b5f6020820190508181035f83015261396a81613931565b9050919050565b7f4e487b71000000000000000000000000000000000000000000000000000000005f52601160045260245ffd5b5f6139a882612e12565b91506139b383612e12565b92508282019050808211156139cb576139ca613971565b5b92915050565b5f819050815f5260205f209050919050565b5f6020601f8301049050919050565b5f82821b905092915050565b5f60088302613a2d7fffffffffffffffffffffffffffffffffffffffffffffffffffffffffffffffff826139f2565b613a3786836139f2565b95508019841693508086168417925050509392505050565b5f819050919050565b5f613a72613a6d613a6884612e12565b613a4f565b612e12565b9050919050565b5f819050919050565b613a8b83613a58565b613a9f613a9782613a79565b8484546139fe565b825550505050565b5f90565b613ab3613aa7565b613abe818484613a82565b505050565b5b81811015613ae157613ad65f82613aab565b600181019050613ac4565b5050565b601f821115613b2657613af7816139d1565b613b00846139e3565b81016020851015613b0f578190505b613b23613b1b856139e3565b830182613ac3565b50505b505050565b5f82821c905092915050565b5f613b465f1984600802613b2b565b1980831691505092915050565b5f613b5e8383613b37565b9150826002028217905092915050565b613b7782612d68565b67ffffffffffffffff811115613b9057613b8f613249565b5b613b9a8254613585565b613ba5828285613ae5565b5f60209050601f831160018114613bd6575f8415613bc4578287015190505b613bce8582613b53565b865550613c35565b601f198416613be4866139d1565b5f5b82811015613c0b57848901518255600182019150602085019450602081019050613be6565b86831015613c285784890151613c24601f891682613b37565b8355505b6001600288020188555050505b505050505050565b7f4f6e6c792061207363686f6f6c2063616e20706572666f726d207468697320615f8201527f6374696f6e000000000000000000000000000000000000000000000000000000602082015250565b5f613c97602583612d72565b9150613ca282613c3d565b604082019050919050565b5f6020820190508181035f830152613cc481613c8b565b9050919050565b7f5468652065787069727920706572696f6420666f722064657374726f79696e675f8201527f2074686973204e46542068617320706173736564000000000000000000000000602082015250565b5f613d25603483612d72565b9150613d3082613ccb565b604082019050919050565b5f6020820190508181035f830152613d5281613d19565b9050919050565b5f81905092915050565b5f613d6d82612d68565b613d778185613d59565b9350613d87818560208601612d82565b80840191505092915050565b5f613d9e8285613d63565b9150613daa8284613d63565b91508190509392505050565b7f4552433732313a207472616e736665722066726f6d20696e636f7272656374205f8201527f6f776e6572000000000000000000000000000000000000000000000000000000602082015250565b5f613e10602583612d72565b9150613e1b82613db6565b604082019050919050565b5f6020820190508181035f830152613e3d81613e04565b9050919050565b7f4552433732313a207472616e7366657220746f20746865207a65726f206164645f8201527f7265737300000000000000000000000000000000000000000000000000000000602082015250565b5f613e9e602483612d72565b9150613ea982613e44565b604082019050919050565b5f6020820190508181035f830152613ecb81613e92565b9050919050565b7f4552433732313a20617070726f766520746f2063616c6c6572000000000000005f82015250565b5f613f06601983612d72565b9150613f1182613ed2565b602082019050919050565b5f6020820190508181035f830152613f3381613efa565b9050919050565b7f4552433732313a206d696e7420746f20746865207a65726f20616464726573735f82015250565b5f613f6e602083612d72565b9150613f7982613f3a565b602082019050919050565b5f6020820190508181035f830152613f9b81613f62565b9050919050565b7f4552433732313a20746f6b656e20616c7265616479206d696e746564000000005f82015250565b5f613fd6601c83612d72565b9150613fe182613fa2565b602082019050919050565b5f6020820190508181035f83015261400381613fca565b9050919050565b7f45524337323155524953746f726167653a2055524920736574206f66206e6f6e5f8201527f6578697374656e7420746f6b656e000000000000000000000000000000000000602082015250565b5f614064602e83612d72565b915061406f8261400a565b604082019050919050565b5f6020820190508181035f83015261409181614058565b9050919050565b7f4552433732313a207472616e7366657220746f206e6f6e2045524337323152655f8201527f63656976657220696d706c656d656e7465720000000000000000000000000000602082015250565b5f6140f2603283612d72565b91506140fd82614098565b604082019050919050565b5f6020820190508181035f83015261411f816140e6565b9050919050565b5f81519050919050565b5f82825260208201905092915050565b5f61414a82614126565b6141548185614130565b9350614164818560208601612d82565b61416d81612daa565b840191505092915050565b5f60808201905061418b5f830187612ea0565b6141986020830186612ea0565b6141a56040830185612fab565b81810360608301526141b78184614140565b905095945050505050565b5f815190506141d081612ce0565b92915050565b5f602082840312156141eb576141ea612cad565b5b5f6141f8848285016141c2565b91505092915050565b7f4e487b71000000000000000000000000000000000000000000000000000000005f52601260045260245ffdfea2646970667358221220d96ad12e947e2b91dde3d1d2e05b6f5f4dbcf1a4fc27b0550e113d8a1cb3fa9964736f6c63430008140033",
  "immutableReferences": {},
  "source": "// SPDX-License-Identifier: GPL-3.0\n\npragma solidity >=0.7.0 <0.9.0;\n\nimport \"@openzeppelin/contracts/token/ERC721/ERC721.sol\";\nimport \"@openzeppelin/contracts/utils/Counters.sol\";\nimport \"@openzeppelin/contracts/token/ERC721/extensions/ERC721URIStorage.sol\";\n\n\ncontract EducationSystem is ERC721URIStorage {\n   using Counters for Counters.Counter;\n   Counters.Counter private _tokenIds;\n\n   address public government;\n   mapping(address => bool) public schools;\n   mapping(address => Student) students;\n   mapping(uint256 => SchoolNFT) public schoolNFTs;\n   mapping(address => uint256[]) public schoolNFTsBySchool;\n   mapping(uint => string) public ipfsById;\n\n   struct Student {\n      address[] schoolsAllowed;\n    //   mapping(address => bool) schoolsAllowedStatus;\n      uint256[] ownedNFTs;\n   }\n\n   struct SchoolNFT {\n      uint256 id;\n      address schoolAddress;\n      address studentAddress;\n      uint256 issuedAt;\n   }\n\n   uint256 public constant EXPIRY_PERIOD = 30 days;\n\n   constructor() ERC721(\"EducationSystemNFT\", \"ESN\") {\n      government = msg.sender;\n   }\n\n   modifier onlyGovernment() {\n      require(\n         msg.sender == government,\n         \"Only the government can perform this action\"\n      );\n      _;\n   }\n\n   modifier onlySchools() {\n      require(schools[msg.sender], \"Only a school can perform this action\");\n      _;\n   }\n\n   modifier onlySchoolsOrGoverment() {\n       require(schools[msg.sender] || msg.sender == government, \"Only a school or the goverment can perform this action\");\n       _;\n   }\n\n   function createSchool(address _schoolAddress) public onlyGovernment {\n      schools[_schoolAddress] = true;\n   }\n\n   function createStudent(address _studentAddress) public onlyGovernment {\n      students[_studentAddress] = Student(\n         new address[](0),\n         new uint256[](0)\n      );\n      students[_studentAddress].schoolsAllowed.push(msg.sender);\n   }\n\n   function getStudent(address wallet) public view returns (address[] memory, uint256[] memory) {\n       return (students[wallet].schoolsAllowed, students[wallet].ownedNFTs);\n   }\n\n    function deleteStudent(address _studentAddress) public onlySchoolsOrGoverment {\n        delete students[_studentAddress];\n    }\n\n    function issueNFT(address _studentAddress, string memory tokenURI) public onlySchoolsOrGoverment {\n        uint256 newNFTId = _tokenIds.current() + 1;\n        _mint(_studentAddress, newNFTId);\n        _setTokenURI(newNFTId, tokenURI);\n        schoolNFTs[newNFTId] = SchoolNFT(newNFTId, msg.sender, _studentAddress, block.timestamp);\n        schoolNFTsBySchool[msg.sender].push(newNFTId);\n        students[_studentAddress].ownedNFTs.push(newNFTId);\n        ipfsById[newNFTId] = tokenURI;\n        _tokenIds.increment();\n    }\n\n    function destroyNFT(uint256 _tokenId) public onlySchools {\n        require(\n            block.timestamp <= schoolNFTs[_tokenId].issuedAt + EXPIRY_PERIOD,\n            \"The expiry period for destroying this NFT has passed\"\n        );\n        _burn(_tokenId);\n        delete schoolNFTs[_tokenId];\n    }\n\n    function getSchoolNFTs(uint256 id) public view returns (address, address, uint256) {\n       return (schoolNFTs[id].schoolAddress, schoolNFTs[id].studentAddress, schoolNFTs[id].issuedAt);\n    }\n\n    function getIPFSByID(uint tokenId) public view returns (string memory) {\n        return ipfsById[tokenId];\n    }\n\n    function seeOwnedNFTs(\n        address _studentAddress\n    ) public view returns (uint256[] memory) {\n        return students[_studentAddress].ownedNFTs;\n    }\n\n    function seeNFTOrigin(uint256 _tokenId) public view returns (address) {\n        return schoolNFTs[_tokenId].schoolAddress;\n    }\n}",
  "sourcePath": "/home/victorcarvalho/Documents/Github/EthereumHachas/ethereum-sp23/blockchain/contracts/EducationSystem.sol",
  "compiler": {
    "name": "solc",
    "version": "0.8.20+commit.a1b79de6.Emscripten.clang"
  },
  "schemaVersion": "3.4.14",
  "updatedAt": "2023-06-25T06:18:41.565Z",
  "networkType": "ethereum",
  "devdoc": {
    "events": {
      "Approval(address,address,uint256)": {
        "details": "Emitted when `owner` enables `approved` to manage the `tokenId` token."
      },
      "ApprovalForAll(address,address,bool)": {
        "details": "Emitted when `owner` enables or disables (`approved`) `operator` to manage all of its assets."
      },
      "BatchMetadataUpdate(uint256,uint256)": {
        "details": "This event emits when the metadata of a range of tokens is changed. So that the third-party platforms such as NFT market could timely update the images and related attributes of the NFTs."
      },
      "MetadataUpdate(uint256)": {
        "details": "This event emits when the metadata of a token is changed. So that the third-party platforms such as NFT market could timely update the images and related attributes of the NFT."
      },
      "Transfer(address,address,uint256)": {
        "details": "Emitted when `tokenId` token is transferred from `from` to `to`."
      }
    },
    "kind": "dev",
    "methods": {
      "approve(address,uint256)": {
        "details": "See {IERC721-approve}."
      },
      "balanceOf(address)": {
        "details": "See {IERC721-balanceOf}."
      },
      "getApproved(uint256)": {
        "details": "See {IERC721-getApproved}."
      },
      "isApprovedForAll(address,address)": {
        "details": "See {IERC721-isApprovedForAll}."
      },
      "name()": {
        "details": "See {IERC721Metadata-name}."
      },
      "ownerOf(uint256)": {
        "details": "See {IERC721-ownerOf}."
      },
      "safeTransferFrom(address,address,uint256)": {
        "details": "See {IERC721-safeTransferFrom}."
      },
      "safeTransferFrom(address,address,uint256,bytes)": {
        "details": "See {IERC721-safeTransferFrom}."
      },
      "setApprovalForAll(address,bool)": {
        "details": "See {IERC721-setApprovalForAll}."
      },
      "supportsInterface(bytes4)": {
        "details": "See {IERC165-supportsInterface}"
      },
      "symbol()": {
        "details": "See {IERC721Metadata-symbol}."
      },
      "tokenURI(uint256)": {
        "details": "See {IERC721Metadata-tokenURI}."
      },
      "transferFrom(address,address,uint256)": {
        "details": "See {IERC721-transferFrom}."
      }
    },
    "version": 1
  },
  "userdoc": {
    "kind": "user",
    "methods": {},
    "version": 1
  }
}