{
  "contractName": "EducationSystem",
  "abi": [
    {
      "inputs": [],
      "stateMutability": "nonpayable",
      "type": "constructor"
    },
    {
      "anonymous": false,
      "inputs": [
        {
          "indexed": true,
          "internalType": "address",
          "name": "owner",
          "type": "address"
        },
        {
          "indexed": true,
          "internalType": "address",
          "name": "approved",
          "type": "address"
        },
        {
          "indexed": true,
          "internalType": "uint256",
          "name": "tokenId",
          "type": "uint256"
        }
      ],
      "name": "Approval",
      "type": "event"
    },
    {
      "anonymous": false,
      "inputs": [
        {
          "indexed": true,
          "internalType": "address",
          "name": "owner",
          "type": "address"
        },
        {
          "indexed": true,
          "internalType": "address",
          "name": "operator",
          "type": "address"
        },
        {
          "indexed": false,
          "internalType": "bool",
          "name": "approved",
          "type": "bool"
        }
      ],
      "name": "ApprovalForAll",
      "type": "event"
    },
    {
      "anonymous": false,
      "inputs": [
        {
          "indexed": false,
          "internalType": "uint256",
          "name": "_fromTokenId",
          "type": "uint256"
        },
        {
          "indexed": false,
          "internalType": "uint256",
          "name": "_toTokenId",
          "type": "uint256"
        }
      ],
      "name": "BatchMetadataUpdate",
      "type": "event"
    },
    {
      "anonymous": false,
      "inputs": [
        {
          "indexed": false,
          "internalType": "uint256",
          "name": "_tokenId",
          "type": "uint256"
        }
      ],
      "name": "MetadataUpdate",
      "type": "event"
    },
    {
      "anonymous": false,
      "inputs": [
        {
          "indexed": true,
          "internalType": "address",
          "name": "from",
          "type": "address"
        },
        {
          "indexed": true,
          "internalType": "address",
          "name": "to",
          "type": "address"
        },
        {
          "indexed": true,
          "internalType": "uint256",
          "name": "tokenId",
          "type": "uint256"
        }
      ],
      "name": "Transfer",
      "type": "event"
    },
    {
      "inputs": [],
      "name": "EXPIRY_PERIOD",
      "outputs": [
        {
          "internalType": "uint256",
          "name": "",
          "type": "uint256"
        }
      ],
      "stateMutability": "view",
      "type": "function",
      "constant": true
    },
    {
      "inputs": [
        {
          "internalType": "address",
          "name": "",
          "type": "address"
        },
        {
          "internalType": "address",
          "name": "",
          "type": "address"
        }
      ],
      "name": "allowedSchoolsStatus",
      "outputs": [
        {
          "internalType": "bool",
          "name": "",
          "type": "bool"
        }
      ],
      "stateMutability": "view",
      "type": "function",
      "constant": true
    },
    {
      "inputs": [
        {
          "internalType": "address",
          "name": "to",
          "type": "address"
        },
        {
          "internalType": "uint256",
          "name": "tokenId",
          "type": "uint256"
        }
      ],
      "name": "approve",
      "outputs": [],
      "stateMutability": "nonpayable",
      "type": "function"
    },
    {
      "inputs": [
        {
          "internalType": "address",
          "name": "owner",
          "type": "address"
        }
      ],
      "name": "balanceOf",
      "outputs": [
        {
          "internalType": "uint256",
          "name": "",
          "type": "uint256"
        }
      ],
      "stateMutability": "view",
      "type": "function",
      "constant": true
    },
    {
      "inputs": [
        {
          "internalType": "uint256",
          "name": "tokenId",
          "type": "uint256"
        }
      ],
      "name": "getApproved",
      "outputs": [
        {
          "internalType": "address",
          "name": "",
          "type": "address"
        }
      ],
      "stateMutability": "view",
      "type": "function",
      "constant": true
    },
    {
      "inputs": [],
      "name": "government",
      "outputs": [
        {
          "internalType": "address",
          "name": "",
          "type": "address"
        }
      ],
      "stateMutability": "view",
      "type": "function",
      "constant": true
    },
    {
      "inputs": [
        {
          "internalType": "uint256",
          "name": "",
          "type": "uint256"
        }
      ],
      "name": "ipfsById",
      "outputs": [
        {
          "internalType": "string",
          "name": "",
          "type": "string"
        }
      ],
      "stateMutability": "view",
      "type": "function",
      "constant": true
    },
    {
      "inputs": [
        {
          "internalType": "address",
          "name": "owner",
          "type": "address"
        },
        {
          "internalType": "address",
          "name": "operator",
          "type": "address"
        }
      ],
      "name": "isApprovedForAll",
      "outputs": [
        {
          "internalType": "bool",
          "name": "",
          "type": "bool"
        }
      ],
      "stateMutability": "view",
      "type": "function",
      "constant": true
    },
    {
      "inputs": [],
      "name": "name",
      "outputs": [
        {
          "internalType": "string",
          "name": "",
          "type": "string"
        }
      ],
      "stateMutability": "view",
      "type": "function",
      "constant": true
    },
    {
      "inputs": [
        {
          "internalType": "uint256",
          "name": "tokenId",
          "type": "uint256"
        }
      ],
      "name": "ownerOf",
      "outputs": [
        {
          "internalType": "address",
          "name": "",
          "type": "address"
        }
      ],
      "stateMutability": "view",
      "type": "function",
      "constant": true
    },
    {
      "inputs": [
        {
          "internalType": "address",
          "name": "from",
          "type": "address"
        },
        {
          "internalType": "address",
          "name": "to",
          "type": "address"
        },
        {
          "internalType": "uint256",
          "name": "tokenId",
          "type": "uint256"
        }
      ],
      "name": "safeTransferFrom",
      "outputs": [],
      "stateMutability": "nonpayable",
      "type": "function"
    },
    {
      "inputs": [
        {
          "internalType": "address",
          "name": "from",
          "type": "address"
        },
        {
          "internalType": "address",
          "name": "to",
          "type": "address"
        },
        {
          "internalType": "uint256",
          "name": "tokenId",
          "type": "uint256"
        },
        {
          "internalType": "bytes",
          "name": "data",
          "type": "bytes"
        }
      ],
      "name": "safeTransferFrom",
      "outputs": [],
      "stateMutability": "nonpayable",
      "type": "function"
    },
    {
      "inputs": [
        {
          "internalType": "uint256",
          "name": "",
          "type": "uint256"
        }
      ],
      "name": "schoolNFTs",
      "outputs": [
        {
          "internalType": "uint256",
          "name": "id",
          "type": "uint256"
        },
        {
          "internalType": "address",
          "name": "schoolAddress",
          "type": "address"
        },
        {
          "internalType": "address",
          "name": "studentAddress",
          "type": "address"
        },
        {
          "internalType": "uint256",
          "name": "issuedAt",
          "type": "uint256"
        }
      ],
      "stateMutability": "view",
      "type": "function",
      "constant": true
    },
    {
      "inputs": [
        {
          "internalType": "address",
          "name": "",
          "type": "address"
        },
        {
          "internalType": "uint256",
          "name": "",
          "type": "uint256"
        }
      ],
      "name": "schoolNFTsBySchool",
      "outputs": [
        {
          "internalType": "uint256",
          "name": "",
          "type": "uint256"
        }
      ],
      "stateMutability": "view",
      "type": "function",
      "constant": true
    },
    {
      "inputs": [
        {
          "internalType": "address",
          "name": "",
          "type": "address"
        }
      ],
      "name": "schools",
      "outputs": [
        {
          "internalType": "bool",
          "name": "",
          "type": "bool"
        }
      ],
      "stateMutability": "view",
      "type": "function",
      "constant": true
    },
    {
      "inputs": [
        {
          "internalType": "address",
          "name": "",
          "type": "address"
        },
        {
          "internalType": "uint256",
          "name": "",
          "type": "uint256"
        }
      ],
      "name": "schoolsByStudent",
      "outputs": [
        {
          "internalType": "address",
          "name": "",
          "type": "address"
        }
      ],
      "stateMutability": "view",
      "type": "function",
      "constant": true
    },
    {
      "inputs": [
        {
          "internalType": "address",
          "name": "operator",
          "type": "address"
        },
        {
          "internalType": "bool",
          "name": "approved",
          "type": "bool"
        }
      ],
      "name": "setApprovalForAll",
      "outputs": [],
      "stateMutability": "nonpayable",
      "type": "function"
    },
    {
      "inputs": [
        {
          "internalType": "address",
          "name": "",
          "type": "address"
        },
        {
          "internalType": "uint256",
          "name": "",
          "type": "uint256"
        }
      ],
      "name": "studentsBySchool",
      "outputs": [
        {
          "internalType": "address",
          "name": "",
          "type": "address"
        }
      ],
      "stateMutability": "view",
      "type": "function",
      "constant": true
    },
    {
      "inputs": [
        {
          "internalType": "bytes4",
          "name": "interfaceId",
          "type": "bytes4"
        }
      ],
      "name": "supportsInterface",
      "outputs": [
        {
          "internalType": "bool",
          "name": "",
          "type": "bool"
        }
      ],
      "stateMutability": "view",
      "type": "function",
      "constant": true
    },
    {
      "inputs": [],
      "name": "symbol",
      "outputs": [
        {
          "internalType": "string",
          "name": "",
          "type": "string"
        }
      ],
      "stateMutability": "view",
      "type": "function",
      "constant": true
    },
    {
      "inputs": [
        {
          "internalType": "uint256",
          "name": "tokenId",
          "type": "uint256"
        }
      ],
      "name": "tokenURI",
      "outputs": [
        {
          "internalType": "string",
          "name": "",
          "type": "string"
        }
      ],
      "stateMutability": "view",
      "type": "function",
      "constant": true
    },
    {
      "inputs": [
        {
          "internalType": "address",
          "name": "from",
          "type": "address"
        },
        {
          "internalType": "address",
          "name": "to",
          "type": "address"
        },
        {
          "internalType": "uint256",
          "name": "tokenId",
          "type": "uint256"
        }
      ],
      "name": "transferFrom",
      "outputs": [],
      "stateMutability": "nonpayable",
      "type": "function"
    },
    {
      "inputs": [
        {
          "internalType": "address",
          "name": "_schoolAddress",
          "type": "address"
        }
      ],
      "name": "createSchool",
      "outputs": [],
      "stateMutability": "nonpayable",
      "type": "function"
    },
    {
      "inputs": [
        {
          "internalType": "address",
          "name": "_studentAddress",
          "type": "address"
        },
        {
          "internalType": "address",
          "name": "_schoolAddress",
          "type": "address"
        }
      ],
      "name": "createStudent",
      "outputs": [],
      "stateMutability": "nonpayable",
      "type": "function"
    },
    {
      "inputs": [
        {
          "internalType": "address",
          "name": "_studentAddress",
          "type": "address"
        }
      ],
      "name": "getStudent",
      "outputs": [
        {
          "internalType": "address[]",
          "name": "",
          "type": "address[]"
        },
        {
          "internalType": "uint256[]",
          "name": "",
          "type": "uint256[]"
        }
      ],
      "stateMutability": "view",
      "type": "function",
      "constant": true
    },
    {
      "inputs": [
        {
          "internalType": "address",
          "name": "_studentAddress",
          "type": "address"
        }
      ],
      "name": "deleteStudent",
      "outputs": [],
      "stateMutability": "nonpayable",
      "type": "function"
    },
    {
      "inputs": [
        {
          "internalType": "address",
          "name": "_studentAddress",
          "type": "address"
        },
        {
          "internalType": "address",
          "name": "_schoolAddress",
          "type": "address"
        }
      ],
      "name": "addStudentToSchool",
      "outputs": [],
      "stateMutability": "nonpayable",
      "type": "function"
    },
    {
      "inputs": [
        {
          "internalType": "address",
          "name": "_studentAddress",
          "type": "address"
        },
        {
          "internalType": "address",
          "name": "_schoolAddress",
          "type": "address"
        }
      ],
      "name": "removeSchool",
      "outputs": [],
      "stateMutability": "nonpayable",
      "type": "function"
    },
    {
      "inputs": [
        {
          "internalType": "address",
          "name": "_studentAddress",
          "type": "address"
        },
        {
          "internalType": "string",
          "name": "_tokenURI",
          "type": "string"
        }
      ],
      "name": "issueNFT",
      "outputs": [],
      "stateMutability": "nonpayable",
      "type": "function"
    },
    {
      "inputs": [
        {
          "internalType": "uint256",
          "name": "_tokenId",
          "type": "uint256"
        }
      ],
      "name": "destroyNFT",
      "outputs": [],
      "stateMutability": "nonpayable",
      "type": "function"
    },
    {
      "inputs": [
        {
          "internalType": "uint256",
          "name": "_id",
          "type": "uint256"
        }
      ],
      "name": "getSchoolNFTs",
      "outputs": [
        {
          "internalType": "address",
          "name": "",
          "type": "address"
        },
        {
          "internalType": "address",
          "name": "",
          "type": "address"
        },
        {
          "internalType": "uint256",
          "name": "",
          "type": "uint256"
        }
      ],
      "stateMutability": "view",
      "type": "function",
      "constant": true
    },
    {
      "inputs": [
        {
          "internalType": "uint256",
          "name": "_tokenId",
          "type": "uint256"
        }
      ],
      "name": "getIPFSByID",
      "outputs": [
        {
          "internalType": "string",
          "name": "",
          "type": "string"
        }
      ],
      "stateMutability": "view",
      "type": "function",
      "constant": true
    },
    {
      "inputs": [
        {
          "internalType": "address",
          "name": "_schoolAddress",
          "type": "address"
        }
      ],
      "name": "getStudentsBySchool",
      "outputs": [
        {
          "internalType": "address[]",
          "name": "",
          "type": "address[]"
        }
      ],
      "stateMutability": "view",
      "type": "function",
      "constant": true
    },
    {
      "inputs": [
        {
          "internalType": "address",
          "name": "_studentAddress",
          "type": "address"
        }
      ],
      "name": "seeOwnedNFTs",
      "outputs": [
        {
          "internalType": "uint256[]",
          "name": "",
          "type": "uint256[]"
        }
      ],
      "stateMutability": "view",
      "type": "function",
      "constant": true
    },
    {
      "inputs": [
        {
          "internalType": "uint256",
          "name": "_tokenId",
          "type": "uint256"
        }
      ],
      "name": "seeNFTOrigin",
      "outputs": [
        {
          "internalType": "address",
          "name": "",
          "type": "address"
        }
      ],
      "stateMutability": "view",
      "type": "function",
      "constant": true
    }
  ],
  "bytecode": "0x608060405234801562000010575f80fd5b506040518060400160405280601281526020017f456475636174696f6e53797374656d4e465400000000000000000000000000008152506040518060400160405280600381526020017f45534e0000000000000000000000000000000000000000000000000000000000815250815f90816200008d91906200034c565b5080600190816200009f91906200034c565b5050503360085f6101000a81548173ffffffffffffffffffffffffffffffffffffffff021916908373ffffffffffffffffffffffffffffffffffffffff16021790555062000430565b5f81519050919050565b7f4e487b71000000000000000000000000000000000000000000000000000000005f52604160045260245ffd5b7f4e487b71000000000000000000000000000000000000000000000000000000005f52602260045260245ffd5b5f60028204905060018216806200016457607f821691505b6020821081036200017a57620001796200011f565b5b50919050565b5f819050815f5260205f209050919050565b5f6020601f8301049050919050565b5f82821b905092915050565b5f60088302620001de7fffffffffffffffffffffffffffffffffffffffffffffffffffffffffffffffff82620001a1565b620001ea8683620001a1565b95508019841693508086168417925050509392505050565b5f819050919050565b5f819050919050565b5f620002346200022e620002288462000202565b6200020b565b62000202565b9050919050565b5f819050919050565b6200024f8362000214565b620002676200025e826200023b565b848454620001ad565b825550505050565b5f90565b6200027d6200026f565b6200028a81848462000244565b505050565b5b81811015620002b157620002a55f8262000273565b60018101905062000290565b5050565b601f8211156200030057620002ca8162000180565b620002d58462000192565b81016020851015620002e5578190505b620002fd620002f48562000192565b8301826200028f565b50505b505050565b5f82821c905092915050565b5f620003225f198460080262000305565b1980831691505092915050565b5f6200033c838362000311565b9150826002028217905092915050565b6200035782620000e8565b67ffffffffffffffff811115620003735762000372620000f2565b5b6200037f82546200014c565b6200038c828285620002b5565b5f60209050601f831160018114620003c2575f8415620003ad578287015190505b620003b985826200032f565b86555062000428565b601f198416620003d28662000180565b5f5b82811015620003fb57848901518255600182019150602085019450602081019050620003d4565b868310156200041b578489015162000417601f89168262000311565b8355505b6001600288020188555050505b505050505050565b614c0d806200043e5f395ff3fe608060405234801561000f575f80fd5b506004361061020f575f3560e01c8063675f796311610123578063a22cb465116100ab578063c3272e8c1161007a578063c3272e8c146106a7578063c40412b5146106d9578063c87b56dd146106f5578063cd4613b114610725578063e985e9c5146107415761020f565b8063a22cb46514610623578063a9183fe51461063f578063b540e4381461066f578063b88d4fde1461068b5761020f565b8063727790fa116100f2578063727790fa1461056d578063730bcc5d1461059d57806381411b30146105b957806395d89b41146105d55780639edc27f0146105f35761020f565b8063675f7963146104ac5780636b7b44d7146104dc5780636c78c8391461050d57806370a082311461053d5761020f565b80632896d49d116101a657806342842e0e1161017557806342842e0e146103e45780634b886855146104005780634d6166a1146104305780635b4ca27a1461044c5780636352211e1461047c5761020f565b80632896d49d146103335780632d7a2e8f14610366578063333ec6be1461038457806337de91fc146103b45761020f565b80630c7d247a116101e25780630c7d247a146102ad57806312a767e5146102c957806323b872dd146102f95780632672f526146103155761020f565b806301ffc9a71461021357806306fdde0314610243578063081812fc14610261578063095ea7b314610291575b5f80fd5b61022d600480360381019061022891906135bf565b610771565b60405161023a9190613604565b60405180910390f35b61024b6107d1565b60405161025891906136a7565b60405180910390f35b61027b600480360381019061027691906136fa565b610860565b6040516102889190613764565b60405180910390f35b6102ab60048036038101906102a691906137a7565b6108a2565b005b6102c760048036038101906102c291906137e5565b6109b8565b005b6102e360048036038101906102de91906136fa565b610a9f565b6040516102f091906136a7565b60405180910390f35b610313600480360381019061030e9190613810565b610b40565b005b61031d610ba0565b60405161032a9190613764565b60405180910390f35b61034d600480360381019061034891906136fa565b610bc5565b60405161035d949392919061386f565b60405180910390f35b61036e610c2f565b60405161037b91906138b2565b60405180910390f35b61039e600480360381019061039991906137e5565b610c36565b6040516103ab9190613982565b60405180910390f35b6103ce60048036038101906103c991906139a2565b610ccc565b6040516103db9190613604565b60405180910390f35b6103fe60048036038101906103f99190613810565b610cf6565b005b61041a600480360381019061041591906137a7565b610d15565b6040516104279190613764565b60405180910390f35b61044a600480360381019061044591906139a2565b610d5d565b005b610466600480360381019061046191906136fa565b6110d5565b60405161047391906136a7565b60405180910390f35b610496600480360381019061049191906136fa565b611170565b6040516104a39190613764565b60405180910390f35b6104c660048036038101906104c191906137a7565b6111f4565b6040516104d391906138b2565b60405180910390f35b6104f660048036038101906104f191906137e5565b61121f565b604051610504929190613a97565b60405180910390f35b610527600480360381019061052291906136fa565b61137f565b6040516105349190613764565b60405180910390f35b610557600480360381019061055291906137e5565b6113bb565b60405161056491906138b2565b60405180910390f35b610587600480360381019061058291906137e5565b61146f565b6040516105949190613604565b60405180910390f35b6105b760048036038101906105b291906137e5565b61148c565b005b6105d360048036038101906105ce91906139a2565b6115cc565b005b6105dd6117dd565b6040516105ea91906136a7565b60405180910390f35b61060d600480360381019061060891906137a7565b61186d565b60405161061a9190613764565b60405180910390f35b61063d60048036038101906106389190613af6565b6118b5565b005b610659600480360381019061065491906137e5565b6118cb565b6040516106669190613b34565b60405180910390f35b61068960048036038101906106849190613c80565b611993565b005b6106a560048036038101906106a09190613d78565b611c92565b005b6106c160048036038101906106bc91906136fa565b611cf4565b6040516106d093929190613df8565b60405180910390f35b6106f360048036038101906106ee91906136fa565b611d81565b005b61070f600480360381019061070a91906136fa565b611ee8565b60405161071c91906136a7565b60405180910390f35b61073f600480360381019061073a91906139a2565b611ff2565b005b61075b600480360381019061075691906139a2565b6122ae565b6040516107689190613604565b60405180910390f35b5f634906490660e01b7bffffffffffffffffffffffffffffffffffffffffffffffffffffffff1916827bffffffffffffffffffffffffffffffffffffffffffffffffffffffff191614806107ca57506107c98261233c565b5b9050919050565b60605f80546107df90613e5a565b80601f016020809104026020016040519081016040528092919081815260200182805461080b90613e5a565b80156108565780601f1061082d57610100808354040283529160200191610856565b820191905f5260205f20905b81548152906001019060200180831161083957829003601f168201915b5050505050905090565b5f61086a8261241d565b60045f8381526020019081526020015f205f9054906101000a900473ffffffffffffffffffffffffffffffffffffffff169050919050565b5f6108ac82611170565b90508073ffffffffffffffffffffffffffffffffffffffff168373ffffffffffffffffffffffffffffffffffffffff160361091c576040517f08c379a000000000000000000000000000000000000000000000000000000000815260040161091390613efa565b60405180910390fd5b8073ffffffffffffffffffffffffffffffffffffffff1661093b612468565b73ffffffffffffffffffffffffffffffffffffffff16148061096a575061096981610964612468565b6122ae565b5b6109a9576040517f08c379a00000000000000000000000000000000000000000000000000000000081526004016109a090613f88565b60405180910390fd5b6109b3838361246f565b505050565b60085f9054906101000a900473ffffffffffffffffffffffffffffffffffffffff1673ffffffffffffffffffffffffffffffffffffffff163373ffffffffffffffffffffffffffffffffffffffff1614610a47576040517f08c379a0000000000000000000000000000000000000000000000000000000008152600401610a3e90614016565b60405180910390fd5b600160095f8373ffffffffffffffffffffffffffffffffffffffff1673ffffffffffffffffffffffffffffffffffffffff1681526020019081526020015f205f6101000a81548160ff02191690831515021790555050565b6060600d5f8381526020019081526020015f208054610abd90613e5a565b80601f0160208091040260200160405190810160405280929190818152602001828054610ae990613e5a565b8015610b345780601f10610b0b57610100808354040283529160200191610b34565b820191905f5260205f20905b815481529060010190602001808311610b1757829003601f168201915b50505050509050919050565b610b51610b4b612468565b82612525565b610b90576040517f08c379a0000000000000000000000000000000000000000000000000000000008152600401610b87906140a4565b60405180910390fd5b610b9b8383836125b9565b505050565b60085f9054906101000a900473ffffffffffffffffffffffffffffffffffffffff1681565b600b602052805f5260405f205f91509050805f015490806001015f9054906101000a900473ffffffffffffffffffffffffffffffffffffffff1690806002015f9054906101000a900473ffffffffffffffffffffffffffffffffffffffff16908060030154905084565b62278d0081565b6060600a5f8373ffffffffffffffffffffffffffffffffffffffff1673ffffffffffffffffffffffffffffffffffffffff1681526020019081526020015f20600101805480602002602001604051908101604052809291908181526020018280548015610cc057602002820191905f5260205f20905b815481526020019060010190808311610cac575b50505050509050919050565b600f602052815f5260405f20602052805f5260405f205f915091509054906101000a900460ff1681565b610d1083838360405180602001604052805f815250611c92565b505050565b6010602052815f5260405f208181548110610d2e575f80fd5b905f5260205f20015f915091509054906101000a900473ffffffffffffffffffffffffffffffffffffffff1681565b60085f9054906101000a900473ffffffffffffffffffffffffffffffffffffffff1673ffffffffffffffffffffffffffffffffffffffff163373ffffffffffffffffffffffffffffffffffffffff1614610dec576040517f08c379a0000000000000000000000000000000000000000000000000000000008152600401610de390614016565b60405180910390fd5b60405180604001604052805f67ffffffffffffffff811115610e1157610e10613b5c565b5b604051908082528060200260200182016040528015610e3f5781602001602082028036833780820191505090505b5081526020015f67ffffffffffffffff811115610e5f57610e5e613b5c565b5b604051908082528060200260200182016040528015610e8d5781602001602082028036833780820191505090505b50815250600a5f8473ffffffffffffffffffffffffffffffffffffffff1673ffffffffffffffffffffffffffffffffffffffff1681526020019081526020015f205f820151815f019080519060200190610ee89291906133f3565b506020820151816001019080519060200190610f0592919061347a565b50905050600a5f8373ffffffffffffffffffffffffffffffffffffffff1673ffffffffffffffffffffffffffffffffffffffff1681526020019081526020015f205f0133908060018154018082558091505060019003905f5260205f20015f9091909190916101000a81548173ffffffffffffffffffffffffffffffffffffffff021916908373ffffffffffffffffffffffffffffffffffffffff160217905550600e5f8273ffffffffffffffffffffffffffffffffffffffff1673ffffffffffffffffffffffffffffffffffffffff1681526020019081526020015f2082908060018154018082558091505060019003905f5260205f20015f9091909190916101000a81548173ffffffffffffffffffffffffffffffffffffffff021916908373ffffffffffffffffffffffffffffffffffffffff1602179055506001600f5f8473ffffffffffffffffffffffffffffffffffffffff1673ffffffffffffffffffffffffffffffffffffffff1681526020019081526020015f205f8373ffffffffffffffffffffffffffffffffffffffff1673ffffffffffffffffffffffffffffffffffffffff1681526020019081526020015f205f6101000a81548160ff0219169083151502179055505050565b600d602052805f5260405f205f9150905080546110f190613e5a565b80601f016020809104026020016040519081016040528092919081815260200182805461111d90613e5a565b80156111685780601f1061113f57610100808354040283529160200191611168565b820191905f5260205f20905b81548152906001019060200180831161114b57829003601f168201915b505050505081565b5f8061117b836128a5565b90505f73ffffffffffffffffffffffffffffffffffffffff168173ffffffffffffffffffffffffffffffffffffffff16036111eb576040517f08c379a00000000000000000000000000000000000000000000000000000000081526004016111e29061410c565b60405180910390fd5b80915050919050565b600c602052815f5260405f20818154811061120d575f80fd5b905f5260205f20015f91509150505481565b606080600a5f8473ffffffffffffffffffffffffffffffffffffffff1673ffffffffffffffffffffffffffffffffffffffff1681526020019081526020015f205f01600a5f8573ffffffffffffffffffffffffffffffffffffffff1673ffffffffffffffffffffffffffffffffffffffff1681526020019081526020015f206001018180548060200260200160405190810160405280929190818152602001828054801561131f57602002820191905f5260205f20905b815f9054906101000a900473ffffffffffffffffffffffffffffffffffffffff1673ffffffffffffffffffffffffffffffffffffffff16815260200190600101908083116112d6575b505050505091508080548060200260200160405190810160405280929190818152602001828054801561136f57602002820191905f5260205f20905b81548152602001906001019080831161135b575b5050505050905091509150915091565b5f600b5f8381526020019081526020015f206001015f9054906101000a900473ffffffffffffffffffffffffffffffffffffffff169050919050565b5f8073ffffffffffffffffffffffffffffffffffffffff168273ffffffffffffffffffffffffffffffffffffffff160361142a576040517f08c379a00000000000000000000000000000000000000000000000000000000081526004016114219061419a565b60405180910390fd5b60035f8373ffffffffffffffffffffffffffffffffffffffff1673ffffffffffffffffffffffffffffffffffffffff1681526020019081526020015f20549050919050565b6009602052805f5260405f205f915054906101000a900460ff1681565b60095f3373ffffffffffffffffffffffffffffffffffffffff1673ffffffffffffffffffffffffffffffffffffffff1681526020019081526020015f205f9054906101000a900460ff168061152d575060085f9054906101000a900473ffffffffffffffffffffffffffffffffffffffff1673ffffffffffffffffffffffffffffffffffffffff163373ffffffffffffffffffffffffffffffffffffffff16145b61156c576040517f08c379a000000000000000000000000000000000000000000000000000000000815260040161156390614228565b60405180910390fd5b600a5f8273ffffffffffffffffffffffffffffffffffffffff1673ffffffffffffffffffffffffffffffffffffffff1681526020019081526020015f205f8082015f6115b891906134c5565b600182015f6115c791906134e3565b505050565b5f600a5f8473ffffffffffffffffffffffffffffffffffffffff1673ffffffffffffffffffffffffffffffffffffffff1681526020019081526020015f2090505f805f5b835f01805490508110156116ac578473ffffffffffffffffffffffffffffffffffffffff16845f01828154811061164a57611649614246565b5b905f5260205f20015f9054906101000a900473ffffffffffffffffffffffffffffffffffffffff1673ffffffffffffffffffffffffffffffffffffffff160361169957809250600191506116ac565b80806116a4906142a0565b915050611610565b50806116ba575050506117d9565b5f8290505b6001845f01805490506116d291906142e7565b81101561178f57835f016001826116e9919061431a565b815481106116fa576116f9614246565b5b905f5260205f20015f9054906101000a900473ffffffffffffffffffffffffffffffffffffffff16845f01828154811061173757611736614246565b5b905f5260205f20015f6101000a81548173ffffffffffffffffffffffffffffffffffffffff021916908373ffffffffffffffffffffffffffffffffffffffff1602179055508080611787906142a0565b9150506116bf565b50825f018054806117a3576117a261434d565b5b600190038181905f5260205f20015f6101000a81549073ffffffffffffffffffffffffffffffffffffffff021916905590555050505b5050565b6060600180546117ec90613e5a565b80601f016020809104026020016040519081016040528092919081815260200182805461181890613e5a565b80156118635780601f1061183a57610100808354040283529160200191611863565b820191905f5260205f20905b81548152906001019060200180831161184657829003601f168201915b5050505050905090565b600e602052815f5260405f208181548110611886575f80fd5b905f5260205f20015f915091509054906101000a900473ffffffffffffffffffffffffffffffffffffffff1681565b6118c76118c0612468565b83836128de565b5050565b6060600e5f8373ffffffffffffffffffffffffffffffffffffffff1673ffffffffffffffffffffffffffffffffffffffff1681526020019081526020015f2080548060200260200160405190810160405280929190818152602001828054801561198757602002820191905f5260205f20905b815f9054906101000a900473ffffffffffffffffffffffffffffffffffffffff1673ffffffffffffffffffffffffffffffffffffffff168152602001906001019080831161193e575b50505050509050919050565b60095f3373ffffffffffffffffffffffffffffffffffffffff1673ffffffffffffffffffffffffffffffffffffffff1681526020019081526020015f205f9054906101000a900460ff1680611a34575060085f9054906101000a900473ffffffffffffffffffffffffffffffffffffffff1673ffffffffffffffffffffffffffffffffffffffff163373ffffffffffffffffffffffffffffffffffffffff16145b611a73576040517f08c379a0000000000000000000000000000000000000000000000000000000008152600401611a6a90614228565b60405180910390fd5b5f6001611a806007612a45565b611a8a919061431a565b9050611a968382612a51565b611aa08183612c64565b60405180608001604052808281526020013373ffffffffffffffffffffffffffffffffffffffff1681526020018473ffffffffffffffffffffffffffffffffffffffff16815260200142815250600b5f8381526020019081526020015f205f820151815f01556020820151816001015f6101000a81548173ffffffffffffffffffffffffffffffffffffffff021916908373ffffffffffffffffffffffffffffffffffffffff1602179055506040820151816002015f6101000a81548173ffffffffffffffffffffffffffffffffffffffff021916908373ffffffffffffffffffffffffffffffffffffffff16021790555060608201518160030155905050600c5f3373ffffffffffffffffffffffffffffffffffffffff1673ffffffffffffffffffffffffffffffffffffffff1681526020019081526020015f2081908060018154018082558091505060019003905f5260205f20015f9091909190915055600a5f8473ffffffffffffffffffffffffffffffffffffffff1673ffffffffffffffffffffffffffffffffffffffff1681526020019081526020015f2060010181908060018154018082558091505060019003905f5260205f20015f909190919091505581600d5f8381526020019081526020015f209081611c829190614517565b50611c8d6007612d06565b505050565b611ca3611c9d612468565b83612525565b611ce2576040517f08c379a0000000000000000000000000000000000000000000000000000000008152600401611cd9906140a4565b60405180910390fd5b611cee84848484612d1a565b50505050565b5f805f600b5f8581526020019081526020015f206001015f9054906101000a900473ffffffffffffffffffffffffffffffffffffffff16600b5f8681526020019081526020015f206002015f9054906101000a900473ffffffffffffffffffffffffffffffffffffffff16600b5f8781526020019081526020015f20600301549250925092509193909250565b60095f3373ffffffffffffffffffffffffffffffffffffffff1673ffffffffffffffffffffffffffffffffffffffff1681526020019081526020015f205f9054906101000a900460ff16611e0a576040517f08c379a0000000000000000000000000000000000000000000000000000000008152600401611e0190614656565b60405180910390fd5b62278d00600b5f8381526020019081526020015f2060030154611e2d919061431a565b421115611e6f576040517f08c379a0000000000000000000000000000000000000000000000000000000008152600401611e66906146e4565b60405180910390fd5b611e7881612d76565b600b5f8281526020019081526020015f205f8082015f9055600182015f6101000a81549073ffffffffffffffffffffffffffffffffffffffff0219169055600282015f6101000a81549073ffffffffffffffffffffffffffffffffffffffff0219169055600382015f9055505050565b6060611ef38261241d565b5f60065f8481526020019081526020015f208054611f1090613e5a565b80601f0160208091040260200160405190810160405280929190818152602001828054611f3c90613e5a565b8015611f875780601f10611f5e57610100808354040283529160200191611f87565b820191905f5260205f20905b815481529060010190602001808311611f6a57829003601f168201915b505050505090505f611f97612dc3565b90505f815103611fab578192505050611fed565b5f82511115611fdf578082604051602001611fc792919061473c565b60405160208183030381529060405292505050611fed565b611fe884612dd9565b925050505b919050565b60095f3373ffffffffffffffffffffffffffffffffffffffff1673ffffffffffffffffffffffffffffffffffffffff1681526020019081526020015f205f9054906101000a900460ff1680612093575060085f9054906101000a900473ffffffffffffffffffffffffffffffffffffffff1673ffffffffffffffffffffffffffffffffffffffff163373ffffffffffffffffffffffffffffffffffffffff16145b6120d2576040517f08c379a00000000000000000000000000000000000000000000000000000000081526004016120c990614228565b60405180910390fd5b5f600a5f8473ffffffffffffffffffffffffffffffffffffffff1673ffffffffffffffffffffffffffffffffffffffff1681526020019081526020015f20905060105f8473ffffffffffffffffffffffffffffffffffffffff1673ffffffffffffffffffffffffffffffffffffffff1681526020019081526020015f2082908060018154018082558091505060019003905f5260205f20015f9091909190916101000a81548173ffffffffffffffffffffffffffffffffffffffff021916908373ffffffffffffffffffffffffffffffffffffffff160217905550600e5f8373ffffffffffffffffffffffffffffffffffffffff1673ffffffffffffffffffffffffffffffffffffffff1681526020019081526020015f2083908060018154018082558091505060019003905f5260205f20015f9091909190916101000a81548173ffffffffffffffffffffffffffffffffffffffff021916908373ffffffffffffffffffffffffffffffffffffffff160217905550805f0182908060018154018082558091505060019003905f5260205f20015f9091909190916101000a81548173ffffffffffffffffffffffffffffffffffffffff021916908373ffffffffffffffffffffffffffffffffffffffff160217905550505050565b5f60055f8473ffffffffffffffffffffffffffffffffffffffff1673ffffffffffffffffffffffffffffffffffffffff1681526020019081526020015f205f8373ffffffffffffffffffffffffffffffffffffffff1673ffffffffffffffffffffffffffffffffffffffff1681526020019081526020015f205f9054906101000a900460ff16905092915050565b5f7f80ac58cd000000000000000000000000000000000000000000000000000000007bffffffffffffffffffffffffffffffffffffffffffffffffffffffff1916827bffffffffffffffffffffffffffffffffffffffffffffffffffffffff1916148061240657507f5b5e139f000000000000000000000000000000000000000000000000000000007bffffffffffffffffffffffffffffffffffffffffffffffffffffffff1916827bffffffffffffffffffffffffffffffffffffffffffffffffffffffff1916145b80612416575061241582612e3e565b5b9050919050565b61242681612ea7565b612465576040517f08c379a000000000000000000000000000000000000000000000000000000000815260040161245c9061410c565b60405180910390fd5b50565b5f33905090565b8160045f8381526020019081526020015f205f6101000a81548173ffffffffffffffffffffffffffffffffffffffff021916908373ffffffffffffffffffffffffffffffffffffffff160217905550808273ffffffffffffffffffffffffffffffffffffffff166124df83611170565b73ffffffffffffffffffffffffffffffffffffffff167f8c5be1e5ebec7d5bd14f71427d1e84f3dd0314c0f7b2291e5b200ac8c7c3b92560405160405180910390a45050565b5f8061253083611170565b90508073ffffffffffffffffffffffffffffffffffffffff168473ffffffffffffffffffffffffffffffffffffffff161480612572575061257181856122ae565b5b806125b057508373ffffffffffffffffffffffffffffffffffffffff1661259884610860565b73ffffffffffffffffffffffffffffffffffffffff16145b91505092915050565b8273ffffffffffffffffffffffffffffffffffffffff166125d982611170565b73ffffffffffffffffffffffffffffffffffffffff161461262f576040517f08c379a0000000000000000000000000000000000000000000000000000000008152600401612626906147cf565b60405180910390fd5b5f73ffffffffffffffffffffffffffffffffffffffff168273ffffffffffffffffffffffffffffffffffffffff160361269d576040517f08c379a00000000000000000000000000000000000000000000000000000000081526004016126949061485d565b60405180910390fd5b6126aa8383836001612ee7565b8273ffffffffffffffffffffffffffffffffffffffff166126ca82611170565b73ffffffffffffffffffffffffffffffffffffffff1614612720576040517f08c379a0000000000000000000000000000000000000000000000000000000008152600401612717906147cf565b60405180910390fd5b60045f8281526020019081526020015f205f6101000a81549073ffffffffffffffffffffffffffffffffffffffff0219169055600160035f8573ffffffffffffffffffffffffffffffffffffffff1673ffffffffffffffffffffffffffffffffffffffff1681526020019081526020015f205f8282540392505081905550600160035f8473ffffffffffffffffffffffffffffffffffffffff1673ffffffffffffffffffffffffffffffffffffffff1681526020019081526020015f205f82825401925050819055508160025f8381526020019081526020015f205f6101000a81548173ffffffffffffffffffffffffffffffffffffffff021916908373ffffffffffffffffffffffffffffffffffffffff160217905550808273ffffffffffffffffffffffffffffffffffffffff168473ffffffffffffffffffffffffffffffffffffffff167fddf252ad1be2c89b69c2b068fc378daa952ba7f163c4a11628f55a4df523b3ef60405160405180910390a46128a08383836001612eed565b505050565b5f60025f8381526020019081526020015f205f9054906101000a900473ffffffffffffffffffffffffffffffffffffffff169050919050565b8173ffffffffffffffffffffffffffffffffffffffff168373ffffffffffffffffffffffffffffffffffffffff160361294c576040517f08c379a0000000000000000000000000000000000000000000000000000000008152600401612943906148c5565b60405180910390fd5b8060055f8573ffffffffffffffffffffffffffffffffffffffff1673ffffffffffffffffffffffffffffffffffffffff1681526020019081526020015f205f8473ffffffffffffffffffffffffffffffffffffffff1673ffffffffffffffffffffffffffffffffffffffff1681526020019081526020015f205f6101000a81548160ff0219169083151502179055508173ffffffffffffffffffffffffffffffffffffffff168373ffffffffffffffffffffffffffffffffffffffff167f17307eab39ab6107e8899845ad3d59bd9653f200f220920489ca2b5937696c3183604051612a389190613604565b60405180910390a3505050565b5f815f01549050919050565b5f73ffffffffffffffffffffffffffffffffffffffff168273ffffffffffffffffffffffffffffffffffffffff1603612abf576040517f08c379a0000000000000000000000000000000000000000000000000000000008152600401612ab69061492d565b60405180910390fd5b612ac881612ea7565b15612b08576040517f08c379a0000000000000000000000000000000000000000000000000000000008152600401612aff90614995565b60405180910390fd5b612b155f83836001612ee7565b612b1e81612ea7565b15612b5e576040517f08c379a0000000000000000000000000000000000000000000000000000000008152600401612b5590614995565b60405180910390fd5b600160035f8473ffffffffffffffffffffffffffffffffffffffff1673ffffffffffffffffffffffffffffffffffffffff1681526020019081526020015f205f82825401925050819055508160025f8381526020019081526020015f205f6101000a81548173ffffffffffffffffffffffffffffffffffffffff021916908373ffffffffffffffffffffffffffffffffffffffff160217905550808273ffffffffffffffffffffffffffffffffffffffff165f73ffffffffffffffffffffffffffffffffffffffff167fddf252ad1be2c89b69c2b068fc378daa952ba7f163c4a11628f55a4df523b3ef60405160405180910390a4612c605f83836001612eed565b5050565b612c6d82612ea7565b612cac576040517f08c379a0000000000000000000000000000000000000000000000000000000008152600401612ca390614a23565b60405180910390fd5b8060065f8481526020019081526020015f209081612cca9190614517565b507ff8e1a15aba9398e019f0b49df1a4fde98ee17ae345cb5f6b5e2c27f5033e8ce782604051612cfa91906138b2565b60405180910390a15050565b6001815f015f828254019250508190555050565b612d258484846125b9565b612d3184848484612ef3565b612d70576040517f08c379a0000000000000000000000000000000000000000000000000000000008152600401612d6790614ab1565b60405180910390fd5b50505050565b612d7f81613075565b5f60065f8381526020019081526020015f208054612d9c90613e5a565b905014612dc05760065f8281526020019081526020015f205f612dbf9190613501565b5b50565b606060405180602001604052805f815250905090565b6060612de48261241d565b5f612ded612dc3565b90505f815111612e0b5760405180602001604052805f815250612e36565b80612e15846131b6565b604051602001612e2692919061473c565b6040516020818303038152906040525b915050919050565b5f7f01ffc9a7000000000000000000000000000000000000000000000000000000007bffffffffffffffffffffffffffffffffffffffffffffffffffffffff1916827bffffffffffffffffffffffffffffffffffffffffffffffffffffffff1916149050919050565b5f8073ffffffffffffffffffffffffffffffffffffffff16612ec8836128a5565b73ffffffffffffffffffffffffffffffffffffffff1614159050919050565b50505050565b50505050565b5f612f138473ffffffffffffffffffffffffffffffffffffffff16613280565b15613068578373ffffffffffffffffffffffffffffffffffffffff1663150b7a02612f3c612468565b8786866040518563ffffffff1660e01b8152600401612f5e9493929190614b21565b6020604051808303815f875af1925050508015612f9957506040513d601f19601f82011682018060405250810190612f969190614b7f565b60015b613018573d805f8114612fc7576040519150601f19603f3d011682016040523d82523d5f602084013e612fcc565b606091505b505f815103613010576040517f08c379a000000000000000000000000000000000000000000000000000000000815260040161300790614ab1565b60405180910390fd5b805181602001fd5b63150b7a0260e01b7bffffffffffffffffffffffffffffffffffffffffffffffffffffffff1916817bffffffffffffffffffffffffffffffffffffffffffffffffffffffff19161491505061306d565b600190505b949350505050565b5f61307f82611170565b905061308e815f846001612ee7565b61309782611170565b905060045f8381526020019081526020015f205f6101000a81549073ffffffffffffffffffffffffffffffffffffffff0219169055600160035f8373ffffffffffffffffffffffffffffffffffffffff1673ffffffffffffffffffffffffffffffffffffffff1681526020019081526020015f205f828254039250508190555060025f8381526020019081526020015f205f6101000a81549073ffffffffffffffffffffffffffffffffffffffff0219169055815f73ffffffffffffffffffffffffffffffffffffffff168273ffffffffffffffffffffffffffffffffffffffff167fddf252ad1be2c89b69c2b068fc378daa952ba7f163c4a11628f55a4df523b3ef60405160405180910390a46131b2815f846001612eed565b5050565b60605f60016131c4846132a2565b0190505f8167ffffffffffffffff8111156131e2576131e1613b5c565b5b6040519080825280601f01601f1916602001820160405280156132145781602001600182028036833780820191505090505b5090505f82602001820190505b600115613275578080600190039150507f3031323334353637383961626364656600000000000000000000000000000000600a86061a8153600a858161326a57613269614baa565b5b0494505f8503613221575b819350505050919050565b5f808273ffffffffffffffffffffffffffffffffffffffff163b119050919050565b5f805f90507a184f03e93ff9f4daa797ed6e38ed64bf6a1f01000000000000000083106132fe577a184f03e93ff9f4daa797ed6e38ed64bf6a1f01000000000000000083816132f4576132f3614baa565b5b0492506040810190505b6d04ee2d6d415b85acef8100000000831061333b576d04ee2d6d415b85acef8100000000838161333157613330614baa565b5b0492506020810190505b662386f26fc10000831061336a57662386f26fc1000083816133605761335f614baa565b5b0492506010810190505b6305f5e1008310613393576305f5e100838161338957613388614baa565b5b0492506008810190505b61271083106133b85761271083816133ae576133ad614baa565b5b0492506004810190505b606483106133db57606483816133d1576133d0614baa565b5b0492506002810190505b600a83106133ea576001810190505b80915050919050565b828054828255905f5260205f20908101928215613469579160200282015b82811115613468578251825f6101000a81548173ffffffffffffffffffffffffffffffffffffffff021916908373ffffffffffffffffffffffffffffffffffffffff16021790555091602001919060010190613411565b5b509050613476919061353e565b5090565b828054828255905f5260205f209081019282156134b4579160200282015b828111156134b3578251825591602001919060010190613498565b5b5090506134c1919061353e565b5090565b5080545f8255905f5260205f20908101906134e0919061353e565b50565b5080545f8255905f5260205f20908101906134fe919061353e565b50565b50805461350d90613e5a565b5f825580601f1061351e575061353b565b601f0160209004905f5260205f209081019061353a919061353e565b5b50565b5b80821115613555575f815f90555060010161353f565b5090565b5f604051905090565b5f80fd5b5f80fd5b5f7fffffffff0000000000000000000000000000000000000000000000000000000082169050919050565b61359e8161356a565b81146135a8575f80fd5b50565b5f813590506135b981613595565b92915050565b5f602082840312156135d4576135d3613562565b5b5f6135e1848285016135ab565b91505092915050565b5f8115159050919050565b6135fe816135ea565b82525050565b5f6020820190506136175f8301846135f5565b92915050565b5f81519050919050565b5f82825260208201905092915050565b5f5b83811015613654578082015181840152602081019050613639565b5f8484015250505050565b5f601f19601f8301169050919050565b5f6136798261361d565b6136838185613627565b9350613693818560208601613637565b61369c8161365f565b840191505092915050565b5f6020820190508181035f8301526136bf818461366f565b905092915050565b5f819050919050565b6136d9816136c7565b81146136e3575f80fd5b50565b5f813590506136f4816136d0565b92915050565b5f6020828403121561370f5761370e613562565b5b5f61371c848285016136e6565b91505092915050565b5f73ffffffffffffffffffffffffffffffffffffffff82169050919050565b5f61374e82613725565b9050919050565b61375e81613744565b82525050565b5f6020820190506137775f830184613755565b92915050565b61378681613744565b8114613790575f80fd5b50565b5f813590506137a18161377d565b92915050565b5f80604083850312156137bd576137bc613562565b5b5f6137ca85828601613793565b92505060206137db858286016136e6565b9150509250929050565b5f602082840312156137fa576137f9613562565b5b5f61380784828501613793565b91505092915050565b5f805f6060848603121561382757613826613562565b5b5f61383486828701613793565b935050602061384586828701613793565b9250506040613856868287016136e6565b9150509250925092565b613869816136c7565b82525050565b5f6080820190506138825f830187613860565b61388f6020830186613755565b61389c6040830185613755565b6138a96060830184613860565b95945050505050565b5f6020820190506138c55f830184613860565b92915050565b5f81519050919050565b5f82825260208201905092915050565b5f819050602082019050919050565b6138fd816136c7565b82525050565b5f61390e83836138f4565b60208301905092915050565b5f602082019050919050565b5f613930826138cb565b61393a81856138d5565b9350613945836138e5565b805f5b8381101561397557815161395c8882613903565b97506139678361391a565b925050600181019050613948565b5085935050505092915050565b5f6020820190508181035f83015261399a8184613926565b905092915050565b5f80604083850312156139b8576139b7613562565b5b5f6139c585828601613793565b92505060206139d685828601613793565b9150509250929050565b5f81519050919050565b5f82825260208201905092915050565b5f819050602082019050919050565b613a1281613744565b82525050565b5f613a238383613a09565b60208301905092915050565b5f602082019050919050565b5f613a45826139e0565b613a4f81856139ea565b9350613a5a836139fa565b805f5b83811015613a8a578151613a718882613a18565b9750613a7c83613a2f565b925050600181019050613a5d565b5085935050505092915050565b5f6040820190508181035f830152613aaf8185613a3b565b90508181036020830152613ac38184613926565b90509392505050565b613ad5816135ea565b8114613adf575f80fd5b50565b5f81359050613af081613acc565b92915050565b5f8060408385031215613b0c57613b0b613562565b5b5f613b1985828601613793565b9250506020613b2a85828601613ae2565b9150509250929050565b5f6020820190508181035f830152613b4c8184613a3b565b905092915050565b5f80fd5b5f80fd5b7f4e487b71000000000000000000000000000000000000000000000000000000005f52604160045260245ffd5b613b928261365f565b810181811067ffffffffffffffff82111715613bb157613bb0613b5c565b5b80604052505050565b5f613bc3613559565b9050613bcf8282613b89565b919050565b5f67ffffffffffffffff821115613bee57613bed613b5c565b5b613bf78261365f565b9050602081019050919050565b828183375f83830152505050565b5f613c24613c1f84613bd4565b613bba565b905082815260208101848484011115613c4057613c3f613b58565b5b613c4b848285613c04565b509392505050565b5f82601f830112613c6757613c66613b54565b5b8135613c77848260208601613c12565b91505092915050565b5f8060408385031215613c9657613c95613562565b5b5f613ca385828601613793565b925050602083013567ffffffffffffffff811115613cc457613cc3613566565b5b613cd085828601613c53565b9150509250929050565b5f67ffffffffffffffff821115613cf457613cf3613b5c565b5b613cfd8261365f565b9050602081019050919050565b5f613d1c613d1784613cda565b613bba565b905082815260208101848484011115613d3857613d37613b58565b5b613d43848285613c04565b509392505050565b5f82601f830112613d5f57613d5e613b54565b5b8135613d6f848260208601613d0a565b91505092915050565b5f805f8060808587031215613d9057613d8f613562565b5b5f613d9d87828801613793565b9450506020613dae87828801613793565b9350506040613dbf878288016136e6565b925050606085013567ffffffffffffffff811115613de057613ddf613566565b5b613dec87828801613d4b565b91505092959194509250565b5f606082019050613e0b5f830186613755565b613e186020830185613755565b613e256040830184613860565b949350505050565b7f4e487b71000000000000000000000000000000000000000000000000000000005f52602260045260245ffd5b5f6002820490506001821680613e7157607f821691505b602082108103613e8457613e83613e2d565b5b50919050565b7f4552433732313a20617070726f76616c20746f2063757272656e74206f776e655f8201527f7200000000000000000000000000000000000000000000000000000000000000602082015250565b5f613ee4602183613627565b9150613eef82613e8a565b604082019050919050565b5f6020820190508181035f830152613f1181613ed8565b9050919050565b7f4552433732313a20617070726f76652063616c6c6572206973206e6f7420746f5f8201527f6b656e206f776e6572206f7220617070726f76656420666f7220616c6c000000602082015250565b5f613f72603d83613627565b9150613f7d82613f18565b604082019050919050565b5f6020820190508181035f830152613f9f81613f66565b9050919050565b7f4f6e6c792074686520676f7665726e6d656e742063616e20706572666f726d205f8201527f7468697320616374696f6e000000000000000000000000000000000000000000602082015250565b5f614000602b83613627565b915061400b82613fa6565b604082019050919050565b5f6020820190508181035f83015261402d81613ff4565b9050919050565b7f4552433732313a2063616c6c6572206973206e6f7420746f6b656e206f776e655f8201527f72206f7220617070726f76656400000000000000000000000000000000000000602082015250565b5f61408e602d83613627565b915061409982614034565b604082019050919050565b5f6020820190508181035f8301526140bb81614082565b9050919050565b7f4552433732313a20696e76616c696420746f6b656e20494400000000000000005f82015250565b5f6140f6601883613627565b9150614101826140c2565b602082019050919050565b5f6020820190508181035f830152614123816140ea565b9050919050565b7f4552433732313a2061646472657373207a65726f206973206e6f7420612076615f8201527f6c6964206f776e65720000000000000000000000000000000000000000000000602082015250565b5f614184602983613627565b915061418f8261412a565b604082019050919050565b5f6020820190508181035f8301526141b181614178565b9050919050565b7f4f6e6c792061207363686f6f6c206f722074686520676f7665726d656e7420635f8201527f616e20706572666f726d207468697320616374696f6e00000000000000000000602082015250565b5f614212603683613627565b915061421d826141b8565b604082019050919050565b5f6020820190508181035f83015261423f81614206565b9050919050565b7f4e487b71000000000000000000000000000000000000000000000000000000005f52603260045260245ffd5b7f4e487b71000000000000000000000000000000000000000000000000000000005f52601160045260245ffd5b5f6142aa826136c7565b91507fffffffffffffffffffffffffffffffffffffffffffffffffffffffffffffffff82036142dc576142db614273565b5b600182019050919050565b5f6142f1826136c7565b91506142fc836136c7565b925082820390508181111561431457614313614273565b5b92915050565b5f614324826136c7565b915061432f836136c7565b925082820190508082111561434757614346614273565b5b92915050565b7f4e487b71000000000000000000000000000000000000000000000000000000005f52603160045260245ffd5b5f819050815f5260205f209050919050565b5f6020601f8301049050919050565b5f82821b905092915050565b5f600883026143d67fffffffffffffffffffffffffffffffffffffffffffffffffffffffffffffffff8261439b565b6143e0868361439b565b95508019841693508086168417925050509392505050565b5f819050919050565b5f61441b614416614411846136c7565b6143f8565b6136c7565b9050919050565b5f819050919050565b61443483614401565b61444861444082614422565b8484546143a7565b825550505050565b5f90565b61445c614450565b61446781848461442b565b505050565b5b8181101561448a5761447f5f82614454565b60018101905061446d565b5050565b601f8211156144cf576144a08161437a565b6144a98461438c565b810160208510156144b8578190505b6144cc6144c48561438c565b83018261446c565b50505b505050565b5f82821c905092915050565b5f6144ef5f19846008026144d4565b1980831691505092915050565b5f61450783836144e0565b9150826002028217905092915050565b6145208261361d565b67ffffffffffffffff81111561453957614538613b5c565b5b6145438254613e5a565b61454e82828561448e565b5f60209050601f83116001811461457f575f841561456d578287015190505b61457785826144fc565b8655506145de565b601f19841661458d8661437a565b5f5b828110156145b45784890151825560018201915060208501945060208101905061458f565b868310156145d157848901516145cd601f8916826144e0565b8355505b6001600288020188555050505b505050505050565b7f4f6e6c792061207363686f6f6c2063616e20706572666f726d207468697320615f8201527f6374696f6e000000000000000000000000000000000000000000000000000000602082015250565b5f614640602583613627565b915061464b826145e6565b604082019050919050565b5f6020820190508181035f83015261466d81614634565b9050919050565b7f5468652065787069727920706572696f6420666f722064657374726f79696e675f8201527f2074686973204e46542068617320706173736564000000000000000000000000602082015250565b5f6146ce603483613627565b91506146d982614674565b604082019050919050565b5f6020820190508181035f8301526146fb816146c2565b9050919050565b5f81905092915050565b5f6147168261361d565b6147208185614702565b9350614730818560208601613637565b80840191505092915050565b5f614747828561470c565b9150614753828461470c565b91508190509392505050565b7f4552433732313a207472616e736665722066726f6d20696e636f7272656374205f8201527f6f776e6572000000000000000000000000000000000000000000000000000000602082015250565b5f6147b9602583613627565b91506147c48261475f565b604082019050919050565b5f6020820190508181035f8301526147e6816147ad565b9050919050565b7f4552433732313a207472616e7366657220746f20746865207a65726f206164645f8201527f7265737300000000000000000000000000000000000000000000000000000000602082015250565b5f614847602483613627565b9150614852826147ed565b604082019050919050565b5f6020820190508181035f8301526148748161483b565b9050919050565b7f4552433732313a20617070726f766520746f2063616c6c6572000000000000005f82015250565b5f6148af601983613627565b91506148ba8261487b565b602082019050919050565b5f6020820190508181035f8301526148dc816148a3565b9050919050565b7f4552433732313a206d696e7420746f20746865207a65726f20616464726573735f82015250565b5f614917602083613627565b9150614922826148e3565b602082019050919050565b5f6020820190508181035f8301526149448161490b565b9050919050565b7f4552433732313a20746f6b656e20616c7265616479206d696e746564000000005f82015250565b5f61497f601c83613627565b915061498a8261494b565b602082019050919050565b5f6020820190508181035f8301526149ac81614973565b9050919050565b7f45524337323155524953746f726167653a2055524920736574206f66206e6f6e5f8201527f6578697374656e7420746f6b656e000000000000000000000000000000000000602082015250565b5f614a0d602e83613627565b9150614a18826149b3565b604082019050919050565b5f6020820190508181035f830152614a3a81614a01565b9050919050565b7f4552433732313a207472616e7366657220746f206e6f6e2045524337323152655f8201527f63656976657220696d706c656d656e7465720000000000000000000000000000602082015250565b5f614a9b603283613627565b9150614aa682614a41565b604082019050919050565b5f6020820190508181035f830152614ac881614a8f565b9050919050565b5f81519050919050565b5f82825260208201905092915050565b5f614af382614acf565b614afd8185614ad9565b9350614b0d818560208601613637565b614b168161365f565b840191505092915050565b5f608082019050614b345f830187613755565b614b416020830186613755565b614b4e6040830185613860565b8181036060830152614b608184614ae9565b905095945050505050565b5f81519050614b7981613595565b92915050565b5f60208284031215614b9457614b93613562565b5b5f614ba184828501614b6b565b91505092915050565b7f4e487b71000000000000000000000000000000000000000000000000000000005f52601260045260245ffdfea2646970667358221220cc3a6138b8d1442098b3883fb99ed73ffd1eb8c55610bdb24f88bc6c3e479dee64736f6c63430008140033",
  "immutableReferences": {},
  "source": "// SPDX-License-Identifier: GPL-3.0\n\npragma solidity >=0.7.0 <0.9.0;\n\nimport \"../node_modules/@openzeppelin/contracts/token/ERC721/ERC721.sol\";\nimport \"../node_modules/@openzeppelin/contracts/utils/Counters.sol\";\nimport \"../node_modules/@openzeppelin/contracts/token/ERC721/extensions/ERC721URIStorage.sol\";\n\n\ncontract EducationSystem is ERC721URIStorage {\n   using Counters for Counters.Counter;\n   Counters.Counter private _tokenIds;\n\n   address public government;\n   mapping(address => bool) public schools;\n   mapping(address => Student) students;\n   mapping(uint256 => SchoolNFT) public schoolNFTs;\n   mapping(address => uint256[]) public schoolNFTsBySchool;\n   mapping(uint => string) public ipfsById;\n   mapping(address => address[]) public studentsBySchool; // update\n   mapping(address => mapping(address => bool)) public allowedSchoolsStatus;\n   mapping(address => address[]) public schoolsByStudent;\n\n   struct Student {\n      address[] schoolsAllowed;\n      uint256[] ownedNFTs;\n   }\n\n   struct SchoolNFT {\n      uint256 id;\n      address schoolAddress;\n      address studentAddress;\n      uint256 issuedAt;\n   }\n\n   uint256 public constant EXPIRY_PERIOD = 30 days;\n\n   constructor() ERC721(\"EducationSystemNFT\", \"ESN\") {\n      government = msg.sender;\n   }\n\n   modifier onlyGovernment() {\n      require(\n         msg.sender == government,\n         \"Only the government can perform this action\"\n      );\n      _;\n   }\n\n   modifier onlySchools() {\n      require(schools[msg.sender], \"Only a school can perform this action\");\n      _;\n   }\n\n   modifier onlySchoolsOrGoverment() {\n       require(schools[msg.sender] || msg.sender == government, \"Only a school or the goverment can perform this action\");\n       _;\n   }\n\n   function createSchool(address _schoolAddress) public onlyGovernment {\n      schools[_schoolAddress] = true;\n   }\n\n   function createStudent(address _studentAddress, address _schoolAddress) public onlyGovernment {\n      students[_studentAddress] = Student(\n         new address[](0),\n         new uint256[](0)\n      );\n      // verificar(testar) se da p criar sem escola\n      students[_studentAddress].schoolsAllowed.push(msg.sender);\n      studentsBySchool[_schoolAddress].push(_studentAddress);\n      allowedSchoolsStatus[_studentAddress][_schoolAddress] = true;\n   }\n\n   function getStudent(address _studentAddress) public view returns (address[] memory, uint256[] memory) {\n       return (students[_studentAddress].schoolsAllowed, students[_studentAddress].ownedNFTs);\n   }\n\n    function deleteStudent(address _studentAddress) public onlySchoolsOrGoverment {\n        delete students[_studentAddress];\n    }\n\n    function addStudentToSchool(address _studentAddress, address _schoolAddress) public onlySchoolsOrGoverment {\n        Student storage student = students[_studentAddress];\n        schoolsByStudent[_studentAddress].push(_schoolAddress);\n        studentsBySchool[_schoolAddress].push(_studentAddress);\n        student.schoolsAllowed.push(_schoolAddress);\n    }\n\n    function removeSchool(address _studentAddress, address _schoolAddress) public {\n        Student storage student = students[_studentAddress];\n        uint index = 0;\n        bool found = false;\n\n        for(uint i = 0; i < student.schoolsAllowed.length; i++) {\n            if(student.schoolsAllowed[i] == _schoolAddress) {\n                index = i;\n                found = true;\n                break;\n            }\n        }\n\n        if(!found) return;\n\n        for (uint i = index; i < student.schoolsAllowed.length - 1; i++){\n            student.schoolsAllowed[i] = student.schoolsAllowed[i+1];\n        }\n        student.schoolsAllowed.pop();\n    }\n\n    function issueNFT(address _studentAddress, string memory _tokenURI) public onlySchoolsOrGoverment {\n        uint256 newNFTId = _tokenIds.current() + 1;\n        _mint(_studentAddress, newNFTId);\n        _setTokenURI(newNFTId, _tokenURI);\n        schoolNFTs[newNFTId] = SchoolNFT(newNFTId, msg.sender, _studentAddress, block.timestamp);\n        schoolNFTsBySchool[msg.sender].push(newNFTId);\n        students[_studentAddress].ownedNFTs.push(newNFTId);\n        ipfsById[newNFTId] = _tokenURI;\n        _tokenIds.increment();\n    }\n\n    function destroyNFT(uint256 _tokenId) public onlySchools {\n        require(\n            block.timestamp <= schoolNFTs[_tokenId].issuedAt + EXPIRY_PERIOD,\n            \"The expiry period for destroying this NFT has passed\"\n        );\n        _burn(_tokenId);\n        delete schoolNFTs[_tokenId];\n    }\n\n    function getSchoolNFTs(uint256 _id) public view returns (address, address, uint256) {\n       return (schoolNFTs[_id].schoolAddress, schoolNFTs[_id].studentAddress, schoolNFTs[_id].issuedAt);\n    }\n\n    function getIPFSByID(uint _tokenId) public view returns (string memory) {\n        return ipfsById[_tokenId];\n    }\n\n    function getStudentsBySchool(address _schoolAddress) public view returns (address[] memory) {\n        return studentsBySchool[_schoolAddress];\n    }\n\n    function seeOwnedNFTs(\n        address _studentAddress\n    ) public view returns (uint256[] memory) {\n        return students[_studentAddress].ownedNFTs;\n    }\n\n    function seeNFTOrigin(uint256 _tokenId) public view returns (address) {\n        return schoolNFTs[_tokenId].schoolAddress;\n    }\n}",
  "sourcePath": "/home/victorcarvalho/Documents/Github/EthereumHachas/ethereum-sp23/blockchain/contracts/EducationSystem.sol",
  "compiler": {
    "name": "solc",
    "version": "0.8.20+commit.a1b79de6.Emscripten.clang"
  },
  "schemaVersion": "3.4.14",
  "updatedAt": "2023-06-25T11:05:18.202Z",
  "networkType": "ethereum",
  "devdoc": {
    "events": {
      "Approval(address,address,uint256)": {
        "details": "Emitted when `owner` enables `approved` to manage the `tokenId` token."
      },
      "ApprovalForAll(address,address,bool)": {
        "details": "Emitted when `owner` enables or disables (`approved`) `operator` to manage all of its assets."
      },
      "BatchMetadataUpdate(uint256,uint256)": {
        "details": "This event emits when the metadata of a range of tokens is changed. So that the third-party platforms such as NFT market could timely update the images and related attributes of the NFTs."
      },
      "MetadataUpdate(uint256)": {
        "details": "This event emits when the metadata of a token is changed. So that the third-party platforms such as NFT market could timely update the images and related attributes of the NFT."
      },
      "Transfer(address,address,uint256)": {
        "details": "Emitted when `tokenId` token is transferred from `from` to `to`."
      }
    },
    "kind": "dev",
    "methods": {
      "approve(address,uint256)": {
        "details": "See {IERC721-approve}."
      },
      "balanceOf(address)": {
        "details": "See {IERC721-balanceOf}."
      },
      "getApproved(uint256)": {
        "details": "See {IERC721-getApproved}."
      },
      "isApprovedForAll(address,address)": {
        "details": "See {IERC721-isApprovedForAll}."
      },
      "name()": {
        "details": "See {IERC721Metadata-name}."
      },
      "ownerOf(uint256)": {
        "details": "See {IERC721-ownerOf}."
      },
      "safeTransferFrom(address,address,uint256)": {
        "details": "See {IERC721-safeTransferFrom}."
      },
      "safeTransferFrom(address,address,uint256,bytes)": {
        "details": "See {IERC721-safeTransferFrom}."
      },
      "setApprovalForAll(address,bool)": {
        "details": "See {IERC721-setApprovalForAll}."
      },
      "supportsInterface(bytes4)": {
        "details": "See {IERC165-supportsInterface}"
      },
      "symbol()": {
        "details": "See {IERC721Metadata-symbol}."
      },
      "tokenURI(uint256)": {
        "details": "See {IERC721Metadata-tokenURI}."
      },
      "transferFrom(address,address,uint256)": {
        "details": "See {IERC721-transferFrom}."
      }
    },
    "version": 1
  },
  "userdoc": {
    "kind": "user",
    "methods": {},
    "version": 1
  }
}