{
  "contractName": "EducationSystem",
  "abi": [
    {
      "inputs": [],
      "stateMutability": "nonpayable",
      "type": "constructor"
    },
    {
      "anonymous": false,
      "inputs": [
        {
          "indexed": true,
          "internalType": "address",
          "name": "owner",
          "type": "address"
        },
        {
          "indexed": true,
          "internalType": "address",
          "name": "approved",
          "type": "address"
        },
        {
          "indexed": true,
          "internalType": "uint256",
          "name": "tokenId",
          "type": "uint256"
        }
      ],
      "name": "Approval",
      "type": "event"
    },
    {
      "anonymous": false,
      "inputs": [
        {
          "indexed": true,
          "internalType": "address",
          "name": "owner",
          "type": "address"
        },
        {
          "indexed": true,
          "internalType": "address",
          "name": "operator",
          "type": "address"
        },
        {
          "indexed": false,
          "internalType": "bool",
          "name": "approved",
          "type": "bool"
        }
      ],
      "name": "ApprovalForAll",
      "type": "event"
    },
    {
      "anonymous": false,
      "inputs": [
        {
          "indexed": false,
          "internalType": "uint256",
          "name": "_fromTokenId",
          "type": "uint256"
        },
        {
          "indexed": false,
          "internalType": "uint256",
          "name": "_toTokenId",
          "type": "uint256"
        }
      ],
      "name": "BatchMetadataUpdate",
      "type": "event"
    },
    {
      "anonymous": false,
      "inputs": [
        {
          "indexed": false,
          "internalType": "uint256",
          "name": "_tokenId",
          "type": "uint256"
        }
      ],
      "name": "MetadataUpdate",
      "type": "event"
    },
    {
      "anonymous": false,
      "inputs": [
        {
          "indexed": true,
          "internalType": "address",
          "name": "from",
          "type": "address"
        },
        {
          "indexed": true,
          "internalType": "address",
          "name": "to",
          "type": "address"
        },
        {
          "indexed": true,
          "internalType": "uint256",
          "name": "tokenId",
          "type": "uint256"
        }
      ],
      "name": "Transfer",
      "type": "event"
    },
    {
      "inputs": [],
      "name": "EXPIRY_PERIOD",
      "outputs": [
        {
          "internalType": "uint256",
          "name": "",
          "type": "uint256"
        }
      ],
      "stateMutability": "view",
      "type": "function",
      "constant": true
    },
    {
      "inputs": [
        {
          "internalType": "address",
          "name": "to",
          "type": "address"
        },
        {
          "internalType": "uint256",
          "name": "tokenId",
          "type": "uint256"
        }
      ],
      "name": "approve",
      "outputs": [],
      "stateMutability": "nonpayable",
      "type": "function"
    },
    {
      "inputs": [
        {
          "internalType": "address",
          "name": "owner",
          "type": "address"
        }
      ],
      "name": "balanceOf",
      "outputs": [
        {
          "internalType": "uint256",
          "name": "",
          "type": "uint256"
        }
      ],
      "stateMutability": "view",
      "type": "function",
      "constant": true
    },
    {
      "inputs": [
        {
          "internalType": "uint256",
          "name": "tokenId",
          "type": "uint256"
        }
      ],
      "name": "getApproved",
      "outputs": [
        {
          "internalType": "address",
          "name": "",
          "type": "address"
        }
      ],
      "stateMutability": "view",
      "type": "function",
      "constant": true
    },
    {
      "inputs": [],
      "name": "government",
      "outputs": [
        {
          "internalType": "address",
          "name": "",
          "type": "address"
        }
      ],
      "stateMutability": "view",
      "type": "function",
      "constant": true
    },
    {
      "inputs": [
        {
          "internalType": "uint256",
          "name": "",
          "type": "uint256"
        }
      ],
      "name": "ipfsById",
      "outputs": [
        {
          "internalType": "string",
          "name": "",
          "type": "string"
        }
      ],
      "stateMutability": "view",
      "type": "function",
      "constant": true
    },
    {
      "inputs": [
        {
          "internalType": "address",
          "name": "owner",
          "type": "address"
        },
        {
          "internalType": "address",
          "name": "operator",
          "type": "address"
        }
      ],
      "name": "isApprovedForAll",
      "outputs": [
        {
          "internalType": "bool",
          "name": "",
          "type": "bool"
        }
      ],
      "stateMutability": "view",
      "type": "function",
      "constant": true
    },
    {
      "inputs": [],
      "name": "name",
      "outputs": [
        {
          "internalType": "string",
          "name": "",
          "type": "string"
        }
      ],
      "stateMutability": "view",
      "type": "function",
      "constant": true
    },
    {
      "inputs": [
        {
          "internalType": "uint256",
          "name": "tokenId",
          "type": "uint256"
        }
      ],
      "name": "ownerOf",
      "outputs": [
        {
          "internalType": "address",
          "name": "",
          "type": "address"
        }
      ],
      "stateMutability": "view",
      "type": "function",
      "constant": true
    },
    {
      "inputs": [
        {
          "internalType": "address",
          "name": "from",
          "type": "address"
        },
        {
          "internalType": "address",
          "name": "to",
          "type": "address"
        },
        {
          "internalType": "uint256",
          "name": "tokenId",
          "type": "uint256"
        }
      ],
      "name": "safeTransferFrom",
      "outputs": [],
      "stateMutability": "nonpayable",
      "type": "function"
    },
    {
      "inputs": [
        {
          "internalType": "address",
          "name": "from",
          "type": "address"
        },
        {
          "internalType": "address",
          "name": "to",
          "type": "address"
        },
        {
          "internalType": "uint256",
          "name": "tokenId",
          "type": "uint256"
        },
        {
          "internalType": "bytes",
          "name": "data",
          "type": "bytes"
        }
      ],
      "name": "safeTransferFrom",
      "outputs": [],
      "stateMutability": "nonpayable",
      "type": "function"
    },
    {
      "inputs": [
        {
          "internalType": "uint256",
          "name": "",
          "type": "uint256"
        }
      ],
      "name": "schoolNFTs",
      "outputs": [
        {
          "internalType": "uint256",
          "name": "id",
          "type": "uint256"
        },
        {
          "internalType": "address",
          "name": "schoolAddress",
          "type": "address"
        },
        {
          "internalType": "address",
          "name": "studentAddress",
          "type": "address"
        },
        {
          "internalType": "uint256",
          "name": "issuedAt",
          "type": "uint256"
        }
      ],
      "stateMutability": "view",
      "type": "function",
      "constant": true
    },
    {
      "inputs": [
        {
          "internalType": "address",
          "name": "",
          "type": "address"
        },
        {
          "internalType": "uint256",
          "name": "",
          "type": "uint256"
        }
      ],
      "name": "schoolNFTsBySchool",
      "outputs": [
        {
          "internalType": "uint256",
          "name": "",
          "type": "uint256"
        }
      ],
      "stateMutability": "view",
      "type": "function",
      "constant": true
    },
    {
      "inputs": [
        {
          "internalType": "address",
          "name": "",
          "type": "address"
        }
      ],
      "name": "schools",
      "outputs": [
        {
          "internalType": "bool",
          "name": "",
          "type": "bool"
        }
      ],
      "stateMutability": "view",
      "type": "function",
      "constant": true
    },
    {
      "inputs": [
        {
          "internalType": "address",
          "name": "operator",
          "type": "address"
        },
        {
          "internalType": "bool",
          "name": "approved",
          "type": "bool"
        }
      ],
      "name": "setApprovalForAll",
      "outputs": [],
      "stateMutability": "nonpayable",
      "type": "function"
    },
    {
      "inputs": [
        {
          "internalType": "address",
          "name": "",
          "type": "address"
        },
        {
          "internalType": "uint256",
          "name": "",
          "type": "uint256"
        }
      ],
      "name": "studentsBySchool",
      "outputs": [
        {
          "internalType": "address",
          "name": "",
          "type": "address"
        }
      ],
      "stateMutability": "view",
      "type": "function",
      "constant": true
    },
    {
      "inputs": [
        {
          "internalType": "bytes4",
          "name": "interfaceId",
          "type": "bytes4"
        }
      ],
      "name": "supportsInterface",
      "outputs": [
        {
          "internalType": "bool",
          "name": "",
          "type": "bool"
        }
      ],
      "stateMutability": "view",
      "type": "function",
      "constant": true
    },
    {
      "inputs": [],
      "name": "symbol",
      "outputs": [
        {
          "internalType": "string",
          "name": "",
          "type": "string"
        }
      ],
      "stateMutability": "view",
      "type": "function",
      "constant": true
    },
    {
      "inputs": [
        {
          "internalType": "uint256",
          "name": "tokenId",
          "type": "uint256"
        }
      ],
      "name": "tokenURI",
      "outputs": [
        {
          "internalType": "string",
          "name": "",
          "type": "string"
        }
      ],
      "stateMutability": "view",
      "type": "function",
      "constant": true
    },
    {
      "inputs": [
        {
          "internalType": "address",
          "name": "from",
          "type": "address"
        },
        {
          "internalType": "address",
          "name": "to",
          "type": "address"
        },
        {
          "internalType": "uint256",
          "name": "tokenId",
          "type": "uint256"
        }
      ],
      "name": "transferFrom",
      "outputs": [],
      "stateMutability": "nonpayable",
      "type": "function"
    },
    {
      "inputs": [
        {
          "internalType": "address",
          "name": "_schoolAddress",
          "type": "address"
        }
      ],
      "name": "createSchool",
      "outputs": [],
      "stateMutability": "nonpayable",
      "type": "function"
    },
    {
      "inputs": [
        {
          "internalType": "address",
          "name": "_studentAddress",
          "type": "address"
        },
        {
          "internalType": "address",
          "name": "_schoolAddress",
          "type": "address"
        }
      ],
      "name": "createStudent",
      "outputs": [],
      "stateMutability": "nonpayable",
      "type": "function"
    },
    {
      "inputs": [
        {
          "internalType": "address",
          "name": "_studentAddress",
          "type": "address"
        }
      ],
      "name": "getStudent",
      "outputs": [
        {
          "internalType": "address[]",
          "name": "",
          "type": "address[]"
        },
        {
          "internalType": "uint256[]",
          "name": "",
          "type": "uint256[]"
        }
      ],
      "stateMutability": "view",
      "type": "function",
      "constant": true
    },
    {
      "inputs": [
        {
          "internalType": "address",
          "name": "_studentAddress",
          "type": "address"
        }
      ],
      "name": "deleteStudent",
      "outputs": [],
      "stateMutability": "nonpayable",
      "type": "function"
    },
    {
      "inputs": [
        {
          "internalType": "address",
          "name": "_studentAddress",
          "type": "address"
        },
        {
          "internalType": "string",
          "name": "_tokenURI",
          "type": "string"
        }
      ],
      "name": "issueNFT",
      "outputs": [],
      "stateMutability": "nonpayable",
      "type": "function"
    },
    {
      "inputs": [
        {
          "internalType": "uint256",
          "name": "_tokenId",
          "type": "uint256"
        }
      ],
      "name": "destroyNFT",
      "outputs": [],
      "stateMutability": "nonpayable",
      "type": "function"
    },
    {
      "inputs": [
        {
          "internalType": "uint256",
          "name": "_id",
          "type": "uint256"
        }
      ],
      "name": "getSchoolNFTs",
      "outputs": [
        {
          "internalType": "address",
          "name": "",
          "type": "address"
        },
        {
          "internalType": "address",
          "name": "",
          "type": "address"
        },
        {
          "internalType": "uint256",
          "name": "",
          "type": "uint256"
        }
      ],
      "stateMutability": "view",
      "type": "function",
      "constant": true
    },
    {
      "inputs": [
        {
          "internalType": "uint256",
          "name": "_tokenId",
          "type": "uint256"
        }
      ],
      "name": "getIPFSByID",
      "outputs": [
        {
          "internalType": "string",
          "name": "",
          "type": "string"
        }
      ],
      "stateMutability": "view",
      "type": "function",
      "constant": true
    },
    {
      "inputs": [
        {
          "internalType": "address",
          "name": "_schoolAddress",
          "type": "address"
        }
      ],
      "name": "getStudentsBySchool",
      "outputs": [
        {
          "internalType": "address[]",
          "name": "",
          "type": "address[]"
        }
      ],
      "stateMutability": "view",
      "type": "function",
      "constant": true
    },
    {
      "inputs": [
        {
          "internalType": "address",
          "name": "_studentAddress",
          "type": "address"
        }
      ],
      "name": "seeOwnedNFTs",
      "outputs": [
        {
          "internalType": "uint256[]",
          "name": "",
          "type": "uint256[]"
        }
      ],
      "stateMutability": "view",
      "type": "function",
      "constant": true
    },
    {
      "inputs": [
        {
          "internalType": "uint256",
          "name": "_tokenId",
          "type": "uint256"
        }
      ],
      "name": "seeNFTOrigin",
      "outputs": [
        {
          "internalType": "address",
          "name": "",
          "type": "address"
        }
      ],
      "stateMutability": "view",
      "type": "function",
      "constant": true
    }
  ],
  "bytecode": "0x608060405234801562000010575f80fd5b506040518060400160405280601281526020017f456475636174696f6e53797374656d4e465400000000000000000000000000008152506040518060400160405280600381526020017f45534e0000000000000000000000000000000000000000000000000000000000815250815f90816200008d91906200034c565b5080600190816200009f91906200034c565b5050503360085f6101000a81548173ffffffffffffffffffffffffffffffffffffffff021916908373ffffffffffffffffffffffffffffffffffffffff16021790555062000430565b5f81519050919050565b7f4e487b71000000000000000000000000000000000000000000000000000000005f52604160045260245ffd5b7f4e487b71000000000000000000000000000000000000000000000000000000005f52602260045260245ffd5b5f60028204905060018216806200016457607f821691505b6020821081036200017a57620001796200011f565b5b50919050565b5f819050815f5260205f209050919050565b5f6020601f8301049050919050565b5f82821b905092915050565b5f60088302620001de7fffffffffffffffffffffffffffffffffffffffffffffffffffffffffffffffff82620001a1565b620001ea8683620001a1565b95508019841693508086168417925050509392505050565b5f819050919050565b5f819050919050565b5f620002346200022e620002288462000202565b6200020b565b62000202565b9050919050565b5f819050919050565b6200024f8362000214565b620002676200025e826200023b565b848454620001ad565b825550505050565b5f90565b6200027d6200026f565b6200028a81848462000244565b505050565b5b81811015620002b157620002a55f8262000273565b60018101905062000290565b5050565b601f8211156200030057620002ca8162000180565b620002d58462000192565b81016020851015620002e5578190505b620002fd620002f48562000192565b8301826200028f565b50505b505050565b5f82821c905092915050565b5f620003225f198460080262000305565b1980831691505092915050565b5f6200033c838362000311565b9150826002028217905092915050565b6200035782620000e8565b67ffffffffffffffff811115620003735762000372620000f2565b5b6200037f82546200014c565b6200038c828285620002b5565b5f60209050601f831160018114620003c2575f8415620003ad578287015190505b620003b985826200032f565b86555062000428565b601f198416620003d28662000180565b5f5b82811015620003fb57848901518255600182019150602085019450602081019050620003d4565b868310156200041b578489015162000417601f89168262000311565b8355505b6001600288020188555050505b505050505050565b6144a6806200043e5f395ff3fe608060405234801561000f575f80fd5b50600436106101e3575f3560e01c8063675f79631161010d578063a22cb465116100a0578063c3272e8c1161006f578063c3272e8c146105ff578063c40412b514610631578063c87b56dd1461064d578063e985e9c51461067d576101e3565b8063a22cb4651461057b578063a9183fe514610597578063b540e438146105c7578063b88d4fde146105e3576101e3565b8063727790fa116100dc578063727790fa146104e1578063730bcc5d1461051157806395d89b411461052d5780639edc27f01461054b576101e3565b8063675f7963146104205780636b7b44d7146104505780636c78c8391461048157806370a08231146104b1576101e3565b80632672f5261161018557806342842e0e1161015457806342842e0e146103885780634d6166a1146103a45780635b4ca27a146103c05780636352211e146103f0576101e3565b80632672f526146102e95780632896d49d146103075780632d7a2e8f1461033a578063333ec6be14610358576101e3565b8063095ea7b3116101c1578063095ea7b3146102655780630c7d247a1461028157806312a767e51461029d57806323b872dd146102cd576101e3565b806301ffc9a7146101e757806306fdde0314610217578063081812fc14610235575b5f80fd5b61020160048036038101906101fc9190612f2c565b6106ad565b60405161020e9190612f71565b60405180910390f35b61021f61070d565b60405161022c9190613014565b60405180910390f35b61024f600480360381019061024a9190613067565b61079c565b60405161025c91906130d1565b60405180910390f35b61027f600480360381019061027a9190613114565b6107de565b005b61029b60048036038101906102969190613152565b6108f4565b005b6102b760048036038101906102b29190613067565b6109db565b6040516102c49190613014565b60405180910390f35b6102e760048036038101906102e2919061317d565b610a7c565b005b6102f1610adc565b6040516102fe91906130d1565b60405180910390f35b610321600480360381019061031c9190613067565b610b01565b60405161033194939291906131dc565b60405180910390f35b610342610b6b565b60405161034f919061321f565b60405180910390f35b610372600480360381019061036d9190613152565b610b72565b60405161037f91906132ef565b60405180910390f35b6103a2600480360381019061039d919061317d565b610c08565b005b6103be60048036038101906103b9919061330f565b610c27565b005b6103da60048036038101906103d59190613067565b610f0f565b6040516103e79190613014565b60405180910390f35b61040a60048036038101906104059190613067565b610faa565b60405161041791906130d1565b60405180910390f35b61043a60048036038101906104359190613114565b61102e565b604051610447919061321f565b60405180910390f35b61046a60048036038101906104659190613152565b611059565b604051610478929190613404565b60405180910390f35b61049b60048036038101906104969190613067565b6111b9565b6040516104a891906130d1565b60405180910390f35b6104cb60048036038101906104c69190613152565b6111f5565b6040516104d8919061321f565b60405180910390f35b6104fb60048036038101906104f69190613152565b6112a9565b6040516105089190612f71565b60405180910390f35b61052b60048036038101906105269190613152565b6112c6565b005b610535611406565b6040516105429190613014565b60405180910390f35b61056560048036038101906105609190613114565b611496565b60405161057291906130d1565b60405180910390f35b61059560048036038101906105909190613463565b6114de565b005b6105b160048036038101906105ac9190613152565b6114f4565b6040516105be91906134a1565b60405180910390f35b6105e160048036038101906105dc91906135ed565b6115bc565b005b6105fd60048036038101906105f891906136e5565b6118bb565b005b61061960048036038101906106149190613067565b61191d565b60405161062893929190613765565b60405180910390f35b61064b60048036038101906106469190613067565b6119aa565b005b61066760048036038101906106629190613067565b611b11565b6040516106749190613014565b60405180910390f35b6106976004803603810190610692919061330f565b611c1b565b6040516106a49190612f71565b60405180910390f35b5f634906490660e01b7bffffffffffffffffffffffffffffffffffffffffffffffffffffffff1916827bffffffffffffffffffffffffffffffffffffffffffffffffffffffff19161480610706575061070582611ca9565b5b9050919050565b60605f805461071b906137c7565b80601f0160208091040260200160405190810160405280929190818152602001828054610747906137c7565b80156107925780601f1061076957610100808354040283529160200191610792565b820191905f5260205f20905b81548152906001019060200180831161077557829003601f168201915b5050505050905090565b5f6107a682611d8a565b60045f8381526020019081526020015f205f9054906101000a900473ffffffffffffffffffffffffffffffffffffffff169050919050565b5f6107e882610faa565b90508073ffffffffffffffffffffffffffffffffffffffff168373ffffffffffffffffffffffffffffffffffffffff1603610858576040517f08c379a000000000000000000000000000000000000000000000000000000000815260040161084f90613867565b60405180910390fd5b8073ffffffffffffffffffffffffffffffffffffffff16610877611dd5565b73ffffffffffffffffffffffffffffffffffffffff1614806108a657506108a5816108a0611dd5565b611c1b565b5b6108e5576040517f08c379a00000000000000000000000000000000000000000000000000000000081526004016108dc906138f5565b60405180910390fd5b6108ef8383611ddc565b505050565b60085f9054906101000a900473ffffffffffffffffffffffffffffffffffffffff1673ffffffffffffffffffffffffffffffffffffffff163373ffffffffffffffffffffffffffffffffffffffff1614610983576040517f08c379a000000000000000000000000000000000000000000000000000000000815260040161097a90613983565b60405180910390fd5b600160095f8373ffffffffffffffffffffffffffffffffffffffff1673ffffffffffffffffffffffffffffffffffffffff1681526020019081526020015f205f6101000a81548160ff02191690831515021790555050565b6060600d5f8381526020019081526020015f2080546109f9906137c7565b80601f0160208091040260200160405190810160405280929190818152602001828054610a25906137c7565b8015610a705780601f10610a4757610100808354040283529160200191610a70565b820191905f5260205f20905b815481529060010190602001808311610a5357829003601f168201915b50505050509050919050565b610a8d610a87611dd5565b82611e92565b610acc576040517f08c379a0000000000000000000000000000000000000000000000000000000008152600401610ac390613a11565b60405180910390fd5b610ad7838383611f26565b505050565b60085f9054906101000a900473ffffffffffffffffffffffffffffffffffffffff1681565b600b602052805f5260405f205f91509050805f015490806001015f9054906101000a900473ffffffffffffffffffffffffffffffffffffffff1690806002015f9054906101000a900473ffffffffffffffffffffffffffffffffffffffff16908060030154905084565b62278d0081565b6060600a5f8373ffffffffffffffffffffffffffffffffffffffff1673ffffffffffffffffffffffffffffffffffffffff1681526020019081526020015f20600101805480602002602001604051908101604052809291908181526020018280548015610bfc57602002820191905f5260205f20905b815481526020019060010190808311610be8575b50505050509050919050565b610c2283838360405180602001604052805f8152506118bb565b505050565b60085f9054906101000a900473ffffffffffffffffffffffffffffffffffffffff1673ffffffffffffffffffffffffffffffffffffffff163373ffffffffffffffffffffffffffffffffffffffff1614610cb6576040517f08c379a0000000000000000000000000000000000000000000000000000000008152600401610cad90613983565b60405180910390fd5b60405180604001604052805f67ffffffffffffffff811115610cdb57610cda6134c9565b5b604051908082528060200260200182016040528015610d095781602001602082028036833780820191505090505b5081526020015f67ffffffffffffffff811115610d2957610d286134c9565b5b604051908082528060200260200182016040528015610d575781602001602082028036833780820191505090505b50815250600a5f8473ffffffffffffffffffffffffffffffffffffffff1673ffffffffffffffffffffffffffffffffffffffff1681526020019081526020015f205f820151815f019080519060200190610db2929190612d60565b506020820151816001019080519060200190610dcf929190612de7565b50905050600a5f8373ffffffffffffffffffffffffffffffffffffffff1673ffffffffffffffffffffffffffffffffffffffff1681526020019081526020015f205f0133908060018154018082558091505060019003905f5260205f20015f9091909190916101000a81548173ffffffffffffffffffffffffffffffffffffffff021916908373ffffffffffffffffffffffffffffffffffffffff160217905550600e5f8273ffffffffffffffffffffffffffffffffffffffff1673ffffffffffffffffffffffffffffffffffffffff1681526020019081526020015f2082908060018154018082558091505060019003905f5260205f20015f9091909190916101000a81548173ffffffffffffffffffffffffffffffffffffffff021916908373ffffffffffffffffffffffffffffffffffffffff1602179055505050565b600d602052805f5260405f205f915090508054610f2b906137c7565b80601f0160208091040260200160405190810160405280929190818152602001828054610f57906137c7565b8015610fa25780601f10610f7957610100808354040283529160200191610fa2565b820191905f5260205f20905b815481529060010190602001808311610f8557829003601f168201915b505050505081565b5f80610fb583612212565b90505f73ffffffffffffffffffffffffffffffffffffffff168173ffffffffffffffffffffffffffffffffffffffff1603611025576040517f08c379a000000000000000000000000000000000000000000000000000000000815260040161101c90613a79565b60405180910390fd5b80915050919050565b600c602052815f5260405f208181548110611047575f80fd5b905f5260205f20015f91509150505481565b606080600a5f8473ffffffffffffffffffffffffffffffffffffffff1673ffffffffffffffffffffffffffffffffffffffff1681526020019081526020015f205f01600a5f8573ffffffffffffffffffffffffffffffffffffffff1673ffffffffffffffffffffffffffffffffffffffff1681526020019081526020015f206001018180548060200260200160405190810160405280929190818152602001828054801561115957602002820191905f5260205f20905b815f9054906101000a900473ffffffffffffffffffffffffffffffffffffffff1673ffffffffffffffffffffffffffffffffffffffff1681526020019060010190808311611110575b50505050509150808054806020026020016040519081016040528092919081815260200182805480156111a957602002820191905f5260205f20905b815481526020019060010190808311611195575b5050505050905091509150915091565b5f600b5f8381526020019081526020015f206001015f9054906101000a900473ffffffffffffffffffffffffffffffffffffffff169050919050565b5f8073ffffffffffffffffffffffffffffffffffffffff168273ffffffffffffffffffffffffffffffffffffffff1603611264576040517f08c379a000000000000000000000000000000000000000000000000000000000815260040161125b90613b07565b60405180910390fd5b60035f8373ffffffffffffffffffffffffffffffffffffffff1673ffffffffffffffffffffffffffffffffffffffff1681526020019081526020015f20549050919050565b6009602052805f5260405f205f915054906101000a900460ff1681565b60095f3373ffffffffffffffffffffffffffffffffffffffff1673ffffffffffffffffffffffffffffffffffffffff1681526020019081526020015f205f9054906101000a900460ff1680611367575060085f9054906101000a900473ffffffffffffffffffffffffffffffffffffffff1673ffffffffffffffffffffffffffffffffffffffff163373ffffffffffffffffffffffffffffffffffffffff16145b6113a6576040517f08c379a000000000000000000000000000000000000000000000000000000000815260040161139d90613b95565b60405180910390fd5b600a5f8273ffffffffffffffffffffffffffffffffffffffff1673ffffffffffffffffffffffffffffffffffffffff1681526020019081526020015f205f8082015f6113f29190612e32565b600182015f6114019190612e50565b505050565b606060018054611415906137c7565b80601f0160208091040260200160405190810160405280929190818152602001828054611441906137c7565b801561148c5780601f106114635761010080835404028352916020019161148c565b820191905f5260205f20905b81548152906001019060200180831161146f57829003601f168201915b5050505050905090565b600e602052815f5260405f2081815481106114af575f80fd5b905f5260205f20015f915091509054906101000a900473ffffffffffffffffffffffffffffffffffffffff1681565b6114f06114e9611dd5565b838361224b565b5050565b6060600e5f8373ffffffffffffffffffffffffffffffffffffffff1673ffffffffffffffffffffffffffffffffffffffff1681526020019081526020015f208054806020026020016040519081016040528092919081815260200182805480156115b057602002820191905f5260205f20905b815f9054906101000a900473ffffffffffffffffffffffffffffffffffffffff1673ffffffffffffffffffffffffffffffffffffffff1681526020019060010190808311611567575b50505050509050919050565b60095f3373ffffffffffffffffffffffffffffffffffffffff1673ffffffffffffffffffffffffffffffffffffffff1681526020019081526020015f205f9054906101000a900460ff168061165d575060085f9054906101000a900473ffffffffffffffffffffffffffffffffffffffff1673ffffffffffffffffffffffffffffffffffffffff163373ffffffffffffffffffffffffffffffffffffffff16145b61169c576040517f08c379a000000000000000000000000000000000000000000000000000000000815260040161169390613b95565b60405180910390fd5b5f60016116a960076123b2565b6116b39190613be0565b90506116bf83826123be565b6116c981836125d1565b60405180608001604052808281526020013373ffffffffffffffffffffffffffffffffffffffff1681526020018473ffffffffffffffffffffffffffffffffffffffff16815260200142815250600b5f8381526020019081526020015f205f820151815f01556020820151816001015f6101000a81548173ffffffffffffffffffffffffffffffffffffffff021916908373ffffffffffffffffffffffffffffffffffffffff1602179055506040820151816002015f6101000a81548173ffffffffffffffffffffffffffffffffffffffff021916908373ffffffffffffffffffffffffffffffffffffffff16021790555060608201518160030155905050600c5f3373ffffffffffffffffffffffffffffffffffffffff1673ffffffffffffffffffffffffffffffffffffffff1681526020019081526020015f2081908060018154018082558091505060019003905f5260205f20015f9091909190915055600a5f8473ffffffffffffffffffffffffffffffffffffffff1673ffffffffffffffffffffffffffffffffffffffff1681526020019081526020015f2060010181908060018154018082558091505060019003905f5260205f20015f909190919091505581600d5f8381526020019081526020015f2090816118ab9190613db0565b506118b66007612673565b505050565b6118cc6118c6611dd5565b83611e92565b61190b576040517f08c379a000000000000000000000000000000000000000000000000000000000815260040161190290613a11565b60405180910390fd5b61191784848484612687565b50505050565b5f805f600b5f8581526020019081526020015f206001015f9054906101000a900473ffffffffffffffffffffffffffffffffffffffff16600b5f8681526020019081526020015f206002015f9054906101000a900473ffffffffffffffffffffffffffffffffffffffff16600b5f8781526020019081526020015f20600301549250925092509193909250565b60095f3373ffffffffffffffffffffffffffffffffffffffff1673ffffffffffffffffffffffffffffffffffffffff1681526020019081526020015f205f9054906101000a900460ff16611a33576040517f08c379a0000000000000000000000000000000000000000000000000000000008152600401611a2a90613eef565b60405180910390fd5b62278d00600b5f8381526020019081526020015f2060030154611a569190613be0565b421115611a98576040517f08c379a0000000000000000000000000000000000000000000000000000000008152600401611a8f90613f7d565b60405180910390fd5b611aa1816126e3565b600b5f8281526020019081526020015f205f8082015f9055600182015f6101000a81549073ffffffffffffffffffffffffffffffffffffffff0219169055600282015f6101000a81549073ffffffffffffffffffffffffffffffffffffffff0219169055600382015f9055505050565b6060611b1c82611d8a565b5f60065f8481526020019081526020015f208054611b39906137c7565b80601f0160208091040260200160405190810160405280929190818152602001828054611b65906137c7565b8015611bb05780601f10611b8757610100808354040283529160200191611bb0565b820191905f5260205f20905b815481529060010190602001808311611b9357829003601f168201915b505050505090505f611bc0612730565b90505f815103611bd4578192505050611c16565b5f82511115611c08578082604051602001611bf0929190613fd5565b60405160208183030381529060405292505050611c16565b611c1184612746565b925050505b919050565b5f60055f8473ffffffffffffffffffffffffffffffffffffffff1673ffffffffffffffffffffffffffffffffffffffff1681526020019081526020015f205f8373ffffffffffffffffffffffffffffffffffffffff1673ffffffffffffffffffffffffffffffffffffffff1681526020019081526020015f205f9054906101000a900460ff16905092915050565b5f7f80ac58cd000000000000000000000000000000000000000000000000000000007bffffffffffffffffffffffffffffffffffffffffffffffffffffffff1916827bffffffffffffffffffffffffffffffffffffffffffffffffffffffff19161480611d7357507f5b5e139f000000000000000000000000000000000000000000000000000000007bffffffffffffffffffffffffffffffffffffffffffffffffffffffff1916827bffffffffffffffffffffffffffffffffffffffffffffffffffffffff1916145b80611d835750611d82826127ab565b5b9050919050565b611d9381612814565b611dd2576040517f08c379a0000000000000000000000000000000000000000000000000000000008152600401611dc990613a79565b60405180910390fd5b50565b5f33905090565b8160045f8381526020019081526020015f205f6101000a81548173ffffffffffffffffffffffffffffffffffffffff021916908373ffffffffffffffffffffffffffffffffffffffff160217905550808273ffffffffffffffffffffffffffffffffffffffff16611e4c83610faa565b73ffffffffffffffffffffffffffffffffffffffff167f8c5be1e5ebec7d5bd14f71427d1e84f3dd0314c0f7b2291e5b200ac8c7c3b92560405160405180910390a45050565b5f80611e9d83610faa565b90508073ffffffffffffffffffffffffffffffffffffffff168473ffffffffffffffffffffffffffffffffffffffff161480611edf5750611ede8185611c1b565b5b80611f1d57508373ffffffffffffffffffffffffffffffffffffffff16611f058461079c565b73ffffffffffffffffffffffffffffffffffffffff16145b91505092915050565b8273ffffffffffffffffffffffffffffffffffffffff16611f4682610faa565b73ffffffffffffffffffffffffffffffffffffffff1614611f9c576040517f08c379a0000000000000000000000000000000000000000000000000000000008152600401611f9390614068565b60405180910390fd5b5f73ffffffffffffffffffffffffffffffffffffffff168273ffffffffffffffffffffffffffffffffffffffff160361200a576040517f08c379a0000000000000000000000000000000000000000000000000000000008152600401612001906140f6565b60405180910390fd5b6120178383836001612854565b8273ffffffffffffffffffffffffffffffffffffffff1661203782610faa565b73ffffffffffffffffffffffffffffffffffffffff161461208d576040517f08c379a000000000000000000000000000000000000000000000000000000000815260040161208490614068565b60405180910390fd5b60045f8281526020019081526020015f205f6101000a81549073ffffffffffffffffffffffffffffffffffffffff0219169055600160035f8573ffffffffffffffffffffffffffffffffffffffff1673ffffffffffffffffffffffffffffffffffffffff1681526020019081526020015f205f8282540392505081905550600160035f8473ffffffffffffffffffffffffffffffffffffffff1673ffffffffffffffffffffffffffffffffffffffff1681526020019081526020015f205f82825401925050819055508160025f8381526020019081526020015f205f6101000a81548173ffffffffffffffffffffffffffffffffffffffff021916908373ffffffffffffffffffffffffffffffffffffffff160217905550808273ffffffffffffffffffffffffffffffffffffffff168473ffffffffffffffffffffffffffffffffffffffff167fddf252ad1be2c89b69c2b068fc378daa952ba7f163c4a11628f55a4df523b3ef60405160405180910390a461220d838383600161285a565b505050565b5f60025f8381526020019081526020015f205f9054906101000a900473ffffffffffffffffffffffffffffffffffffffff169050919050565b8173ffffffffffffffffffffffffffffffffffffffff168373ffffffffffffffffffffffffffffffffffffffff16036122b9576040517f08c379a00000000000000000000000000000000000000000000000000000000081526004016122b09061415e565b60405180910390fd5b8060055f8573ffffffffffffffffffffffffffffffffffffffff1673ffffffffffffffffffffffffffffffffffffffff1681526020019081526020015f205f8473ffffffffffffffffffffffffffffffffffffffff1673ffffffffffffffffffffffffffffffffffffffff1681526020019081526020015f205f6101000a81548160ff0219169083151502179055508173ffffffffffffffffffffffffffffffffffffffff168373ffffffffffffffffffffffffffffffffffffffff167f17307eab39ab6107e8899845ad3d59bd9653f200f220920489ca2b5937696c31836040516123a59190612f71565b60405180910390a3505050565b5f815f01549050919050565b5f73ffffffffffffffffffffffffffffffffffffffff168273ffffffffffffffffffffffffffffffffffffffff160361242c576040517f08c379a0000000000000000000000000000000000000000000000000000000008152600401612423906141c6565b60405180910390fd5b61243581612814565b15612475576040517f08c379a000000000000000000000000000000000000000000000000000000000815260040161246c9061422e565b60405180910390fd5b6124825f83836001612854565b61248b81612814565b156124cb576040517f08c379a00000000000000000000000000000000000000000000000000000000081526004016124c29061422e565b60405180910390fd5b600160035f8473ffffffffffffffffffffffffffffffffffffffff1673ffffffffffffffffffffffffffffffffffffffff1681526020019081526020015f205f82825401925050819055508160025f8381526020019081526020015f205f6101000a81548173ffffffffffffffffffffffffffffffffffffffff021916908373ffffffffffffffffffffffffffffffffffffffff160217905550808273ffffffffffffffffffffffffffffffffffffffff165f73ffffffffffffffffffffffffffffffffffffffff167fddf252ad1be2c89b69c2b068fc378daa952ba7f163c4a11628f55a4df523b3ef60405160405180910390a46125cd5f8383600161285a565b5050565b6125da82612814565b612619576040517f08c379a0000000000000000000000000000000000000000000000000000000008152600401612610906142bc565b60405180910390fd5b8060065f8481526020019081526020015f2090816126379190613db0565b507ff8e1a15aba9398e019f0b49df1a4fde98ee17ae345cb5f6b5e2c27f5033e8ce782604051612667919061321f565b60405180910390a15050565b6001815f015f828254019250508190555050565b612692848484611f26565b61269e84848484612860565b6126dd576040517f08c379a00000000000000000000000000000000000000000000000000000000081526004016126d49061434a565b60405180910390fd5b50505050565b6126ec816129e2565b5f60065f8381526020019081526020015f208054612709906137c7565b90501461272d5760065f8281526020019081526020015f205f61272c9190612e6e565b5b50565b606060405180602001604052805f815250905090565b606061275182611d8a565b5f61275a612730565b90505f8151116127785760405180602001604052805f8152506127a3565b8061278284612b23565b604051602001612793929190613fd5565b6040516020818303038152906040525b915050919050565b5f7f01ffc9a7000000000000000000000000000000000000000000000000000000007bffffffffffffffffffffffffffffffffffffffffffffffffffffffff1916827bffffffffffffffffffffffffffffffffffffffffffffffffffffffff1916149050919050565b5f8073ffffffffffffffffffffffffffffffffffffffff1661283583612212565b73ffffffffffffffffffffffffffffffffffffffff1614159050919050565b50505050565b50505050565b5f6128808473ffffffffffffffffffffffffffffffffffffffff16612bed565b156129d5578373ffffffffffffffffffffffffffffffffffffffff1663150b7a026128a9611dd5565b8786866040518563ffffffff1660e01b81526004016128cb94939291906143ba565b6020604051808303815f875af192505050801561290657506040513d601f19601f820116820180604052508101906129039190614418565b60015b612985573d805f8114612934576040519150601f19603f3d011682016040523d82523d5f602084013e612939565b606091505b505f81510361297d576040517f08c379a00000000000000000000000000000000000000000000000000000000081526004016129749061434a565b60405180910390fd5b805181602001fd5b63150b7a0260e01b7bffffffffffffffffffffffffffffffffffffffffffffffffffffffff1916817bffffffffffffffffffffffffffffffffffffffffffffffffffffffff1916149150506129da565b600190505b949350505050565b5f6129ec82610faa565b90506129fb815f846001612854565b612a0482610faa565b905060045f8381526020019081526020015f205f6101000a81549073ffffffffffffffffffffffffffffffffffffffff0219169055600160035f8373ffffffffffffffffffffffffffffffffffffffff1673ffffffffffffffffffffffffffffffffffffffff1681526020019081526020015f205f828254039250508190555060025f8381526020019081526020015f205f6101000a81549073ffffffffffffffffffffffffffffffffffffffff0219169055815f73ffffffffffffffffffffffffffffffffffffffff168273ffffffffffffffffffffffffffffffffffffffff167fddf252ad1be2c89b69c2b068fc378daa952ba7f163c4a11628f55a4df523b3ef60405160405180910390a4612b1f815f84600161285a565b5050565b60605f6001612b3184612c0f565b0190505f8167ffffffffffffffff811115612b4f57612b4e6134c9565b5b6040519080825280601f01601f191660200182016040528015612b815781602001600182028036833780820191505090505b5090505f82602001820190505b600115612be2578080600190039150507f3031323334353637383961626364656600000000000000000000000000000000600a86061a8153600a8581612bd757612bd6614443565b5b0494505f8503612b8e575b819350505050919050565b5f808273ffffffffffffffffffffffffffffffffffffffff163b119050919050565b5f805f90507a184f03e93ff9f4daa797ed6e38ed64bf6a1f0100000000000000008310612c6b577a184f03e93ff9f4daa797ed6e38ed64bf6a1f0100000000000000008381612c6157612c60614443565b5b0492506040810190505b6d04ee2d6d415b85acef81000000008310612ca8576d04ee2d6d415b85acef81000000008381612c9e57612c9d614443565b5b0492506020810190505b662386f26fc100008310612cd757662386f26fc100008381612ccd57612ccc614443565b5b0492506010810190505b6305f5e1008310612d00576305f5e1008381612cf657612cf5614443565b5b0492506008810190505b6127108310612d25576127108381612d1b57612d1a614443565b5b0492506004810190505b60648310612d485760648381612d3e57612d3d614443565b5b0492506002810190505b600a8310612d57576001810190505b80915050919050565b828054828255905f5260205f20908101928215612dd6579160200282015b82811115612dd5578251825f6101000a81548173ffffffffffffffffffffffffffffffffffffffff021916908373ffffffffffffffffffffffffffffffffffffffff16021790555091602001919060010190612d7e565b5b509050612de39190612eab565b5090565b828054828255905f5260205f20908101928215612e21579160200282015b82811115612e20578251825591602001919060010190612e05565b5b509050612e2e9190612eab565b5090565b5080545f8255905f5260205f2090810190612e4d9190612eab565b50565b5080545f8255905f5260205f2090810190612e6b9190612eab565b50565b508054612e7a906137c7565b5f825580601f10612e8b5750612ea8565b601f0160209004905f5260205f2090810190612ea79190612eab565b5b50565b5b80821115612ec2575f815f905550600101612eac565b5090565b5f604051905090565b5f80fd5b5f80fd5b5f7fffffffff0000000000000000000000000000000000000000000000000000000082169050919050565b612f0b81612ed7565b8114612f15575f80fd5b50565b5f81359050612f2681612f02565b92915050565b5f60208284031215612f4157612f40612ecf565b5b5f612f4e84828501612f18565b91505092915050565b5f8115159050919050565b612f6b81612f57565b82525050565b5f602082019050612f845f830184612f62565b92915050565b5f81519050919050565b5f82825260208201905092915050565b5f5b83811015612fc1578082015181840152602081019050612fa6565b5f8484015250505050565b5f601f19601f8301169050919050565b5f612fe682612f8a565b612ff08185612f94565b9350613000818560208601612fa4565b61300981612fcc565b840191505092915050565b5f6020820190508181035f83015261302c8184612fdc565b905092915050565b5f819050919050565b61304681613034565b8114613050575f80fd5b50565b5f813590506130618161303d565b92915050565b5f6020828403121561307c5761307b612ecf565b5b5f61308984828501613053565b91505092915050565b5f73ffffffffffffffffffffffffffffffffffffffff82169050919050565b5f6130bb82613092565b9050919050565b6130cb816130b1565b82525050565b5f6020820190506130e45f8301846130c2565b92915050565b6130f3816130b1565b81146130fd575f80fd5b50565b5f8135905061310e816130ea565b92915050565b5f806040838503121561312a57613129612ecf565b5b5f61313785828601613100565b925050602061314885828601613053565b9150509250929050565b5f6020828403121561316757613166612ecf565b5b5f61317484828501613100565b91505092915050565b5f805f6060848603121561319457613193612ecf565b5b5f6131a186828701613100565b93505060206131b286828701613100565b92505060406131c386828701613053565b9150509250925092565b6131d681613034565b82525050565b5f6080820190506131ef5f8301876131cd565b6131fc60208301866130c2565b61320960408301856130c2565b61321660608301846131cd565b95945050505050565b5f6020820190506132325f8301846131cd565b92915050565b5f81519050919050565b5f82825260208201905092915050565b5f819050602082019050919050565b61326a81613034565b82525050565b5f61327b8383613261565b60208301905092915050565b5f602082019050919050565b5f61329d82613238565b6132a78185613242565b93506132b283613252565b805f5b838110156132e25781516132c98882613270565b97506132d483613287565b9250506001810190506132b5565b5085935050505092915050565b5f6020820190508181035f8301526133078184613293565b905092915050565b5f806040838503121561332557613324612ecf565b5b5f61333285828601613100565b925050602061334385828601613100565b9150509250929050565b5f81519050919050565b5f82825260208201905092915050565b5f819050602082019050919050565b61337f816130b1565b82525050565b5f6133908383613376565b60208301905092915050565b5f602082019050919050565b5f6133b28261334d565b6133bc8185613357565b93506133c783613367565b805f5b838110156133f75781516133de8882613385565b97506133e98361339c565b9250506001810190506133ca565b5085935050505092915050565b5f6040820190508181035f83015261341c81856133a8565b905081810360208301526134308184613293565b90509392505050565b61344281612f57565b811461344c575f80fd5b50565b5f8135905061345d81613439565b92915050565b5f806040838503121561347957613478612ecf565b5b5f61348685828601613100565b92505060206134978582860161344f565b9150509250929050565b5f6020820190508181035f8301526134b981846133a8565b905092915050565b5f80fd5b5f80fd5b7f4e487b71000000000000000000000000000000000000000000000000000000005f52604160045260245ffd5b6134ff82612fcc565b810181811067ffffffffffffffff8211171561351e5761351d6134c9565b5b80604052505050565b5f613530612ec6565b905061353c82826134f6565b919050565b5f67ffffffffffffffff82111561355b5761355a6134c9565b5b61356482612fcc565b9050602081019050919050565b828183375f83830152505050565b5f61359161358c84613541565b613527565b9050828152602081018484840111156135ad576135ac6134c5565b5b6135b8848285613571565b509392505050565b5f82601f8301126135d4576135d36134c1565b5b81356135e484826020860161357f565b91505092915050565b5f806040838503121561360357613602612ecf565b5b5f61361085828601613100565b925050602083013567ffffffffffffffff81111561363157613630612ed3565b5b61363d858286016135c0565b9150509250929050565b5f67ffffffffffffffff821115613661576136606134c9565b5b61366a82612fcc565b9050602081019050919050565b5f61368961368484613647565b613527565b9050828152602081018484840111156136a5576136a46134c5565b5b6136b0848285613571565b509392505050565b5f82601f8301126136cc576136cb6134c1565b5b81356136dc848260208601613677565b91505092915050565b5f805f80608085870312156136fd576136fc612ecf565b5b5f61370a87828801613100565b945050602061371b87828801613100565b935050604061372c87828801613053565b925050606085013567ffffffffffffffff81111561374d5761374c612ed3565b5b613759878288016136b8565b91505092959194509250565b5f6060820190506137785f8301866130c2565b61378560208301856130c2565b61379260408301846131cd565b949350505050565b7f4e487b71000000000000000000000000000000000000000000000000000000005f52602260045260245ffd5b5f60028204905060018216806137de57607f821691505b6020821081036137f1576137f061379a565b5b50919050565b7f4552433732313a20617070726f76616c20746f2063757272656e74206f776e655f8201527f7200000000000000000000000000000000000000000000000000000000000000602082015250565b5f613851602183612f94565b915061385c826137f7565b604082019050919050565b5f6020820190508181035f83015261387e81613845565b9050919050565b7f4552433732313a20617070726f76652063616c6c6572206973206e6f7420746f5f8201527f6b656e206f776e6572206f7220617070726f76656420666f7220616c6c000000602082015250565b5f6138df603d83612f94565b91506138ea82613885565b604082019050919050565b5f6020820190508181035f83015261390c816138d3565b9050919050565b7f4f6e6c792074686520676f7665726e6d656e742063616e20706572666f726d205f8201527f7468697320616374696f6e000000000000000000000000000000000000000000602082015250565b5f61396d602b83612f94565b915061397882613913565b604082019050919050565b5f6020820190508181035f83015261399a81613961565b9050919050565b7f4552433732313a2063616c6c6572206973206e6f7420746f6b656e206f776e655f8201527f72206f7220617070726f76656400000000000000000000000000000000000000602082015250565b5f6139fb602d83612f94565b9150613a06826139a1565b604082019050919050565b5f6020820190508181035f830152613a28816139ef565b9050919050565b7f4552433732313a20696e76616c696420746f6b656e20494400000000000000005f82015250565b5f613a63601883612f94565b9150613a6e82613a2f565b602082019050919050565b5f6020820190508181035f830152613a9081613a57565b9050919050565b7f4552433732313a2061646472657373207a65726f206973206e6f7420612076615f8201527f6c6964206f776e65720000000000000000000000000000000000000000000000602082015250565b5f613af1602983612f94565b9150613afc82613a97565b604082019050919050565b5f6020820190508181035f830152613b1e81613ae5565b9050919050565b7f4f6e6c792061207363686f6f6c206f722074686520676f7665726d656e7420635f8201527f616e20706572666f726d207468697320616374696f6e00000000000000000000602082015250565b5f613b7f603683612f94565b9150613b8a82613b25565b604082019050919050565b5f6020820190508181035f830152613bac81613b73565b9050919050565b7f4e487b71000000000000000000000000000000000000000000000000000000005f52601160045260245ffd5b5f613bea82613034565b9150613bf583613034565b9250828201905080821115613c0d57613c0c613bb3565b5b92915050565b5f819050815f5260205f209050919050565b5f6020601f8301049050919050565b5f82821b905092915050565b5f60088302613c6f7fffffffffffffffffffffffffffffffffffffffffffffffffffffffffffffffff82613c34565b613c798683613c34565b95508019841693508086168417925050509392505050565b5f819050919050565b5f613cb4613caf613caa84613034565b613c91565b613034565b9050919050565b5f819050919050565b613ccd83613c9a565b613ce1613cd982613cbb565b848454613c40565b825550505050565b5f90565b613cf5613ce9565b613d00818484613cc4565b505050565b5b81811015613d2357613d185f82613ced565b600181019050613d06565b5050565b601f821115613d6857613d3981613c13565b613d4284613c25565b81016020851015613d51578190505b613d65613d5d85613c25565b830182613d05565b50505b505050565b5f82821c905092915050565b5f613d885f1984600802613d6d565b1980831691505092915050565b5f613da08383613d79565b9150826002028217905092915050565b613db982612f8a565b67ffffffffffffffff811115613dd257613dd16134c9565b5b613ddc82546137c7565b613de7828285613d27565b5f60209050601f831160018114613e18575f8415613e06578287015190505b613e108582613d95565b865550613e77565b601f198416613e2686613c13565b5f5b82811015613e4d57848901518255600182019150602085019450602081019050613e28565b86831015613e6a5784890151613e66601f891682613d79565b8355505b6001600288020188555050505b505050505050565b7f4f6e6c792061207363686f6f6c2063616e20706572666f726d207468697320615f8201527f6374696f6e000000000000000000000000000000000000000000000000000000602082015250565b5f613ed9602583612f94565b9150613ee482613e7f565b604082019050919050565b5f6020820190508181035f830152613f0681613ecd565b9050919050565b7f5468652065787069727920706572696f6420666f722064657374726f79696e675f8201527f2074686973204e46542068617320706173736564000000000000000000000000602082015250565b5f613f67603483612f94565b9150613f7282613f0d565b604082019050919050565b5f6020820190508181035f830152613f9481613f5b565b9050919050565b5f81905092915050565b5f613faf82612f8a565b613fb98185613f9b565b9350613fc9818560208601612fa4565b80840191505092915050565b5f613fe08285613fa5565b9150613fec8284613fa5565b91508190509392505050565b7f4552433732313a207472616e736665722066726f6d20696e636f7272656374205f8201527f6f776e6572000000000000000000000000000000000000000000000000000000602082015250565b5f614052602583612f94565b915061405d82613ff8565b604082019050919050565b5f6020820190508181035f83015261407f81614046565b9050919050565b7f4552433732313a207472616e7366657220746f20746865207a65726f206164645f8201527f7265737300000000000000000000000000000000000000000000000000000000602082015250565b5f6140e0602483612f94565b91506140eb82614086565b604082019050919050565b5f6020820190508181035f83015261410d816140d4565b9050919050565b7f4552433732313a20617070726f766520746f2063616c6c6572000000000000005f82015250565b5f614148601983612f94565b915061415382614114565b602082019050919050565b5f6020820190508181035f8301526141758161413c565b9050919050565b7f4552433732313a206d696e7420746f20746865207a65726f20616464726573735f82015250565b5f6141b0602083612f94565b91506141bb8261417c565b602082019050919050565b5f6020820190508181035f8301526141dd816141a4565b9050919050565b7f4552433732313a20746f6b656e20616c7265616479206d696e746564000000005f82015250565b5f614218601c83612f94565b9150614223826141e4565b602082019050919050565b5f6020820190508181035f8301526142458161420c565b9050919050565b7f45524337323155524953746f726167653a2055524920736574206f66206e6f6e5f8201527f6578697374656e7420746f6b656e000000000000000000000000000000000000602082015250565b5f6142a6602e83612f94565b91506142b18261424c565b604082019050919050565b5f6020820190508181035f8301526142d38161429a565b9050919050565b7f4552433732313a207472616e7366657220746f206e6f6e2045524337323152655f8201527f63656976657220696d706c656d656e7465720000000000000000000000000000602082015250565b5f614334603283612f94565b915061433f826142da565b604082019050919050565b5f6020820190508181035f83015261436181614328565b9050919050565b5f81519050919050565b5f82825260208201905092915050565b5f61438c82614368565b6143968185614372565b93506143a6818560208601612fa4565b6143af81612fcc565b840191505092915050565b5f6080820190506143cd5f8301876130c2565b6143da60208301866130c2565b6143e760408301856131cd565b81810360608301526143f98184614382565b905095945050505050565b5f8151905061441281612f02565b92915050565b5f6020828403121561442d5761442c612ecf565b5b5f61443a84828501614404565b91505092915050565b7f4e487b71000000000000000000000000000000000000000000000000000000005f52601260045260245ffdfea2646970667358221220255e0c07bb1e94f53794eca35ec52f27e9304d228566a27a6ade5f0629beb5de64736f6c63430008140033",
  "immutableReferences": {},
  "source": "// SPDX-License-Identifier: GPL-3.0\n\npragma solidity >=0.7.0 <0.9.0;\n\nimport \"../node_modules/@openzeppelin/contracts/token/ERC721/ERC721.sol\";\nimport \"../node_modules/@openzeppelin/contracts/utils/Counters.sol\";\nimport \"../node_modules/@openzeppelin/contracts/token/ERC721/extensions/ERC721URIStorage.sol\";\n\n\ncontract EducationSystem is ERC721URIStorage {\n   using Counters for Counters.Counter;\n   Counters.Counter private _tokenIds;\n\n   address public government;\n   mapping(address => bool) public schools;\n   mapping(address => Student) students;\n   mapping(uint256 => SchoolNFT) public schoolNFTs;\n   mapping(address => uint256[]) public schoolNFTsBySchool;\n   mapping(uint => string) public ipfsById;\n   mapping(address => address[]) public studentsBySchool;\n\n   struct Student {\n      address[] schoolsAllowed;\n    //   mapping(address => bool) schoolsAllowedStatus;\n      uint256[] ownedNFTs;\n   }\n\n   struct SchoolNFT {\n      uint256 id;\n      address schoolAddress;\n      address studentAddress;\n      uint256 issuedAt;\n   }\n\n   uint256 public constant EXPIRY_PERIOD = 30 days;\n\n   constructor() ERC721(\"EducationSystemNFT\", \"ESN\") {\n      government = msg.sender;\n   }\n\n   modifier onlyGovernment() {\n      require(\n         msg.sender == government,\n         \"Only the government can perform this action\"\n      );\n      _;\n   }\n\n   modifier onlySchools() {\n      require(schools[msg.sender], \"Only a school can perform this action\");\n      _;\n   }\n\n   modifier onlySchoolsOrGoverment() {\n       require(schools[msg.sender] || msg.sender == government, \"Only a school or the goverment can perform this action\");\n       _;\n   }\n\n   function createSchool(address _schoolAddress) public onlyGovernment {\n      schools[_schoolAddress] = true;\n   }\n\n   function createStudent(address _studentAddress, address _schoolAddress) public onlyGovernment {\n      students[_studentAddress] = Student(\n         new address[](0),\n         new uint256[](0)\n      );\n      students[_studentAddress].schoolsAllowed.push(msg.sender);\n      studentsBySchool[_schoolAddress].push(_studentAddress);\n   }\n\n   function getStudent(address _studentAddress) public view returns (address[] memory, uint256[] memory) {\n       return (students[_studentAddress].schoolsAllowed, students[_studentAddress].ownedNFTs);\n   }\n\n    function deleteStudent(address _studentAddress) public onlySchoolsOrGoverment {\n        delete students[_studentAddress];\n    }\n\n    function issueNFT(address _studentAddress, string memory _tokenURI) public onlySchoolsOrGoverment {\n        uint256 newNFTId = _tokenIds.current() + 1;\n        _mint(_studentAddress, newNFTId);\n        _setTokenURI(newNFTId, _tokenURI);\n        schoolNFTs[newNFTId] = SchoolNFT(newNFTId, msg.sender, _studentAddress, block.timestamp);\n        schoolNFTsBySchool[msg.sender].push(newNFTId);\n        students[_studentAddress].ownedNFTs.push(newNFTId);\n        ipfsById[newNFTId] = _tokenURI;\n        _tokenIds.increment();\n    }\n\n    function destroyNFT(uint256 _tokenId) public onlySchools {\n        require(\n            block.timestamp <= schoolNFTs[_tokenId].issuedAt + EXPIRY_PERIOD,\n            \"The expiry period for destroying this NFT has passed\"\n        );\n        _burn(_tokenId);\n        delete schoolNFTs[_tokenId];\n    }\n\n    function getSchoolNFTs(uint256 _id) public view returns (address, address, uint256) {\n       return (schoolNFTs[_id].schoolAddress, schoolNFTs[_id].studentAddress, schoolNFTs[_id].issuedAt);\n    }\n\n    function getIPFSByID(uint _tokenId) public view returns (string memory) {\n        return ipfsById[_tokenId];\n    }\n\n    function getStudentsBySchool(address _schoolAddress) public view returns (address[] memory) {\n        return studentsBySchool[_schoolAddress];\n    }\n\n    function seeOwnedNFTs(\n        address _studentAddress\n    ) public view returns (uint256[] memory) {\n        return students[_studentAddress].ownedNFTs;\n    }\n\n    function seeNFTOrigin(uint256 _tokenId) public view returns (address) {\n        return schoolNFTs[_tokenId].schoolAddress;\n    }\n}",
  "sourcePath": "/home/victorcarvalho/Documents/Github/EthereumHachas/ethereum-sp23/blockchain/contracts/EducationSystem.sol",
  "compiler": {
    "name": "solc",
    "version": "0.8.20+commit.a1b79de6.Emscripten.clang"
  },
  "schemaVersion": "3.4.14",
  "updatedAt": "2023-06-25T07:23:06.698Z",
  "networkType": "ethereum",
  "devdoc": {
    "events": {
      "Approval(address,address,uint256)": {
        "details": "Emitted when `owner` enables `approved` to manage the `tokenId` token."
      },
      "ApprovalForAll(address,address,bool)": {
        "details": "Emitted when `owner` enables or disables (`approved`) `operator` to manage all of its assets."
      },
      "BatchMetadataUpdate(uint256,uint256)": {
        "details": "This event emits when the metadata of a range of tokens is changed. So that the third-party platforms such as NFT market could timely update the images and related attributes of the NFTs."
      },
      "MetadataUpdate(uint256)": {
        "details": "This event emits when the metadata of a token is changed. So that the third-party platforms such as NFT market could timely update the images and related attributes of the NFT."
      },
      "Transfer(address,address,uint256)": {
        "details": "Emitted when `tokenId` token is transferred from `from` to `to`."
      }
    },
    "kind": "dev",
    "methods": {
      "approve(address,uint256)": {
        "details": "See {IERC721-approve}."
      },
      "balanceOf(address)": {
        "details": "See {IERC721-balanceOf}."
      },
      "getApproved(uint256)": {
        "details": "See {IERC721-getApproved}."
      },
      "isApprovedForAll(address,address)": {
        "details": "See {IERC721-isApprovedForAll}."
      },
      "name()": {
        "details": "See {IERC721Metadata-name}."
      },
      "ownerOf(uint256)": {
        "details": "See {IERC721-ownerOf}."
      },
      "safeTransferFrom(address,address,uint256)": {
        "details": "See {IERC721-safeTransferFrom}."
      },
      "safeTransferFrom(address,address,uint256,bytes)": {
        "details": "See {IERC721-safeTransferFrom}."
      },
      "setApprovalForAll(address,bool)": {
        "details": "See {IERC721-setApprovalForAll}."
      },
      "supportsInterface(bytes4)": {
        "details": "See {IERC165-supportsInterface}"
      },
      "symbol()": {
        "details": "See {IERC721Metadata-symbol}."
      },
      "tokenURI(uint256)": {
        "details": "See {IERC721Metadata-tokenURI}."
      },
      "transferFrom(address,address,uint256)": {
        "details": "See {IERC721-transferFrom}."
      }
    },
    "version": 1
  },
  "userdoc": {
    "kind": "user",
    "methods": {},
    "version": 1
  }
}