{
   "contractName": "EducationSystem",
   "abi": [
      {
         "inputs": [],
         "stateMutability": "nonpayable",
         "type": "constructor"
      },
      {
         "anonymous": false,
         "inputs": [
            {
               "indexed": true,
               "internalType": "address",
               "name": "owner",
               "type": "address"
            },
            {
               "indexed": true,
               "internalType": "address",
               "name": "approved",
               "type": "address"
            },
            {
               "indexed": true,
               "internalType": "uint256",
               "name": "tokenId",
               "type": "uint256"
            }
         ],
         "name": "Approval",
         "type": "event"
      },
      {
         "anonymous": false,
         "inputs": [
            {
               "indexed": true,
               "internalType": "address",
               "name": "owner",
               "type": "address"
            },
            {
               "indexed": true,
               "internalType": "address",
               "name": "operator",
               "type": "address"
            },
            {
               "indexed": false,
               "internalType": "bool",
               "name": "approved",
               "type": "bool"
            }
         ],
         "name": "ApprovalForAll",
         "type": "event"
      },
      {
         "anonymous": false,
         "inputs": [
            {
               "indexed": true,
               "internalType": "address",
               "name": "from",
               "type": "address"
            },
            {
               "indexed": true,
               "internalType": "address",
               "name": "to",
               "type": "address"
            },
            {
               "indexed": true,
               "internalType": "uint256",
               "name": "tokenId",
               "type": "uint256"
            }
         ],
         "name": "Transfer",
         "type": "event"
      },
      {
         "inputs": [],
         "name": "EXPIRY_PERIOD",
         "outputs": [
            {
               "internalType": "uint256",
               "name": "",
               "type": "uint256"
            }
         ],
         "stateMutability": "view",
         "type": "function"
      },
      {
         "inputs": [
            {
               "internalType": "address",
               "name": "to",
               "type": "address"
            },
            {
               "internalType": "uint256",
               "name": "tokenId",
               "type": "uint256"
            }
         ],
         "name": "approve",
         "outputs": [],
         "stateMutability": "nonpayable",
         "type": "function"
      },
      {
         "inputs": [
            {
               "internalType": "address",
               "name": "owner",
               "type": "address"
            }
         ],
         "name": "balanceOf",
         "outputs": [
            {
               "internalType": "uint256",
               "name": "",
               "type": "uint256"
            }
         ],
         "stateMutability": "view",
         "type": "function"
      },
      {
         "inputs": [
            {
               "internalType": "uint256",
               "name": "tokenId",
               "type": "uint256"
            }
         ],
         "name": "getApproved",
         "outputs": [
            {
               "internalType": "address",
               "name": "",
               "type": "address"
            }
         ],
         "stateMutability": "view",
         "type": "function"
      },
      {
         "inputs": [],
         "name": "government",
         "outputs": [
            {
               "internalType": "address",
               "name": "",
               "type": "address"
            }
         ],
         "stateMutability": "view",
         "type": "function"
      },
      {
         "inputs": [
            {
               "internalType": "address",
               "name": "owner",
               "type": "address"
            },
            {
               "internalType": "address",
               "name": "operator",
               "type": "address"
            }
         ],
         "name": "isApprovedForAll",
         "outputs": [
            {
               "internalType": "bool",
               "name": "",
               "type": "bool"
            }
         ],
         "stateMutability": "view",
         "type": "function"
      },
      {
         "inputs": [],
         "name": "name",
         "outputs": [
            {
               "internalType": "string",
               "name": "",
               "type": "string"
            }
         ],
         "stateMutability": "view",
         "type": "function"
      },
      {
         "inputs": [
            {
               "internalType": "uint256",
               "name": "tokenId",
               "type": "uint256"
            }
         ],
         "name": "ownerOf",
         "outputs": [
            {
               "internalType": "address",
               "name": "",
               "type": "address"
            }
         ],
         "stateMutability": "view",
         "type": "function"
      },
      {
         "inputs": [
            {
               "internalType": "address",
               "name": "from",
               "type": "address"
            },
            {
               "internalType": "address",
               "name": "to",
               "type": "address"
            },
            {
               "internalType": "uint256",
               "name": "tokenId",
               "type": "uint256"
            }
         ],
         "name": "safeTransferFrom",
         "outputs": [],
         "stateMutability": "nonpayable",
         "type": "function"
      },
      {
         "inputs": [
            {
               "internalType": "address",
               "name": "from",
               "type": "address"
            },
            {
               "internalType": "address",
               "name": "to",
               "type": "address"
            },
            {
               "internalType": "uint256",
               "name": "tokenId",
               "type": "uint256"
            },
            {
               "internalType": "bytes",
               "name": "data",
               "type": "bytes"
            }
         ],
         "name": "safeTransferFrom",
         "outputs": [],
         "stateMutability": "nonpayable",
         "type": "function"
      },
      {
         "inputs": [
            {
               "internalType": "uint256",
               "name": "",
               "type": "uint256"
            }
         ],
         "name": "schoolNFTs",
         "outputs": [
            {
               "internalType": "uint256",
               "name": "id",
               "type": "uint256"
            },
            {
               "internalType": "address",
               "name": "schoolAddress",
               "type": "address"
            },
            {
               "internalType": "address",
               "name": "studentAddress",
               "type": "address"
            },
            {
               "internalType": "uint256",
               "name": "issuedAt",
               "type": "uint256"
            }
         ],
         "stateMutability": "view",
         "type": "function"
      },
      {
         "inputs": [
            {
               "internalType": "address",
               "name": "",
               "type": "address"
            },
            {
               "internalType": "uint256",
               "name": "",
               "type": "uint256"
            }
         ],
         "name": "schoolNFTsBySchool",
         "outputs": [
            {
               "internalType": "uint256",
               "name": "",
               "type": "uint256"
            }
         ],
         "stateMutability": "view",
         "type": "function"
      },
      {
         "inputs": [
            {
               "internalType": "address",
               "name": "",
               "type": "address"
            }
         ],
         "name": "schools",
         "outputs": [
            {
               "internalType": "bool",
               "name": "",
               "type": "bool"
            }
         ],
         "stateMutability": "view",
         "type": "function"
      },
      {
         "inputs": [
            {
               "internalType": "address",
               "name": "operator",
               "type": "address"
            },
            {
               "internalType": "bool",
               "name": "approved",
               "type": "bool"
            }
         ],
         "name": "setApprovalForAll",
         "outputs": [],
         "stateMutability": "nonpayable",
         "type": "function"
      },
      {
         "inputs": [
            {
               "internalType": "bytes4",
               "name": "interfaceId",
               "type": "bytes4"
            }
         ],
         "name": "supportsInterface",
         "outputs": [
            {
               "internalType": "bool",
               "name": "",
               "type": "bool"
            }
         ],
         "stateMutability": "view",
         "type": "function"
      },
      {
         "inputs": [],
         "name": "symbol",
         "outputs": [
            {
               "internalType": "string",
               "name": "",
               "type": "string"
            }
         ],
         "stateMutability": "view",
         "type": "function"
      },
      {
         "inputs": [
            {
               "internalType": "uint256",
               "name": "tokenId",
               "type": "uint256"
            }
         ],
         "name": "tokenURI",
         "outputs": [
            {
               "internalType": "string",
               "name": "",
               "type": "string"
            }
         ],
         "stateMutability": "view",
         "type": "function"
      },
      {
         "inputs": [
            {
               "internalType": "address",
               "name": "from",
               "type": "address"
            },
            {
               "internalType": "address",
               "name": "to",
               "type": "address"
            },
            {
               "internalType": "uint256",
               "name": "tokenId",
               "type": "uint256"
            }
         ],
         "name": "transferFrom",
         "outputs": [],
         "stateMutability": "nonpayable",
         "type": "function"
      },
      {
         "inputs": [
            {
               "internalType": "address",
               "name": "_schoolAddress",
               "type": "address"
            }
         ],
         "name": "createSchool",
         "outputs": [],
         "stateMutability": "nonpayable",
         "type": "function"
      },
      {
         "inputs": [
            {
               "internalType": "address",
               "name": "_studentAddress",
               "type": "address"
            }
         ],
         "name": "createStudent",
         "outputs": [],
         "stateMutability": "nonpayable",
         "type": "function"
      },
      {
         "inputs": [
            {
               "internalType": "address",
               "name": "wallet",
               "type": "address"
            }
         ],
         "name": "getStudent",
         "outputs": [
            {
               "internalType": "address[]",
               "name": "",
               "type": "address[]"
            },
            {
               "internalType": "uint256[]",
               "name": "",
               "type": "uint256[]"
            }
         ],
         "stateMutability": "view",
         "type": "function"
      },
      {
         "inputs": [
            {
               "internalType": "address",
               "name": "_studentAddress",
               "type": "address"
            }
         ],
         "name": "deleteStudent",
         "outputs": [],
         "stateMutability": "nonpayable",
         "type": "function"
      },
      {
         "inputs": [
            {
               "internalType": "address",
               "name": "_studentAddress",
               "type": "address"
            }
         ],
         "name": "issueNFT",
         "outputs": [],
         "stateMutability": "nonpayable",
         "type": "function"
      },
      {
         "inputs": [
            {
               "internalType": "uint256",
               "name": "_tokenId",
               "type": "uint256"
            }
         ],
         "name": "destroyNFT",
         "outputs": [],
         "stateMutability": "nonpayable",
         "type": "function"
      },
      {
         "inputs": [
            {
               "internalType": "uint256",
               "name": "id",
               "type": "uint256"
            }
         ],
         "name": "getSchoolNFTs",
         "outputs": [
            {
               "internalType": "address",
               "name": "",
               "type": "address"
            },
            {
               "internalType": "address",
               "name": "",
               "type": "address"
            },
            {
               "internalType": "uint256",
               "name": "",
               "type": "uint256"
            }
         ],
         "stateMutability": "view",
         "type": "function"
      },
      {
         "inputs": [
            {
               "internalType": "address",
               "name": "_studentAddress",
               "type": "address"
            }
         ],
         "name": "seeOwnedNFTs",
         "outputs": [
            {
               "internalType": "uint256[]",
               "name": "",
               "type": "uint256[]"
            }
         ],
         "stateMutability": "view",
         "type": "function"
      },
      {
         "inputs": [
            {
               "internalType": "uint256",
               "name": "_tokenId",
               "type": "uint256"
            }
         ],
         "name": "seeNFTOrigin",
         "outputs": [
            {
               "internalType": "address",
               "name": "",
               "type": "address"
            }
         ],
         "stateMutability": "view",
         "type": "function"
      }
   ],
   "bytecode": "0x608060405234801562000010575f80fd5b506040518060400160405280601281526020017f456475636174696f6e53797374656d4e465400000000000000000000000000008152506040518060400160405280600381526020017f45534e0000000000000000000000000000000000000000000000000000000000815250815f90816200008d91906200034c565b5080600190816200009f91906200034c565b5050503360075f6101000a81548173ffffffffffffffffffffffffffffffffffffffff021916908373ffffffffffffffffffffffffffffffffffffffff16021790555062000430565b5f81519050919050565b7f4e487b71000000000000000000000000000000000000000000000000000000005f52604160045260245ffd5b7f4e487b71000000000000000000000000000000000000000000000000000000005f52602260045260245ffd5b5f60028204905060018216806200016457607f821691505b6020821081036200017a57620001796200011f565b5b50919050565b5f819050815f5260205f209050919050565b5f6020601f8301049050919050565b5f82821b905092915050565b5f60088302620001de7fffffffffffffffffffffffffffffffffffffffffffffffffffffffffffffffff82620001a1565b620001ea8683620001a1565b95508019841693508086168417925050509392505050565b5f819050919050565b5f819050919050565b5f620002346200022e620002288462000202565b6200020b565b62000202565b9050919050565b5f819050919050565b6200024f8362000214565b620002676200025e826200023b565b848454620001ad565b825550505050565b5f90565b6200027d6200026f565b6200028a81848462000244565b505050565b5b81811015620002b157620002a55f8262000273565b60018101905062000290565b5050565b601f8211156200030057620002ca8162000180565b620002d58462000192565b81016020851015620002e5578190505b620002fd620002f48562000192565b8301826200028f565b50505b505050565b5f82821c905092915050565b5f620003225f198460080262000305565b1980831691505092915050565b5f6200033c838362000311565b9150826002028217905092915050565b6200035782620000e8565b67ffffffffffffffff811115620003735762000372620000f2565b5b6200037f82546200014c565b6200038c828285620002b5565b5f60209050601f831160018114620003c2575f8415620003ad578287015190505b620003b985826200032f565b86555062000428565b601f198416620003d28662000180565b5f5b82811015620003fb57848901518255600182019150602085019450602081019050620003d4565b868310156200041b578489015162000417601f89168262000311565b8355505b6001600288020188555050505b505050505050565b6139f0806200043e5f395ff3fe608060405234801561000f575f80fd5b50600436106101a7575f3560e01c8063675f7963116100f7578063a22cb46511610095578063c3272e8c1161006f578063c3272e8c14610503578063c40412b514610535578063c87b56dd14610551578063e985e9c514610581576101a7565b8063a22cb465146104af578063b304517e146104cb578063b88d4fde146104e7576101a7565b806370a08231116100d157806370a0823114610415578063727790fa14610445578063730bcc5d1461047557806395d89b4114610491576101a7565b8063675f7963146103845780636b7b44d7146103b45780636c78c839146103e5576101a7565b80632672f52611610164578063333ec6be1161013e578063333ec6be146102ec57806342842e0e1461031c5780636352211e14610338578063662c8c0b14610368576101a7565b80632672f5261461027d5780632896d49d1461029b5780632d7a2e8f146102ce576101a7565b806301ffc9a7146101ab57806306fdde03146101db578063081812fc146101f9578063095ea7b3146102295780630c7d247a1461024557806323b872dd14610261575b5f80fd5b6101c560048036038101906101c09190612888565b6105b1565b6040516101d291906128cd565b60405180910390f35b6101e3610692565b6040516101f09190612970565b60405180910390f35b610213600480360381019061020e91906129c3565b610721565b6040516102209190612a2d565b60405180910390f35b610243600480360381019061023e9190612a70565b610763565b005b61025f600480360381019061025a9190612aae565b610879565b005b61027b60048036038101906102769190612ad9565b610960565b005b6102856109c0565b6040516102929190612a2d565b60405180910390f35b6102b560048036038101906102b091906129c3565b6109e5565b6040516102c59493929190612b38565b60405180910390f35b6102d6610a4f565b6040516102e39190612b7b565b60405180910390f35b61030660048036038101906103019190612aae565b610a56565b6040516103139190612c4b565b60405180910390f35b61033660048036038101906103319190612ad9565b610aec565b005b610352600480360381019061034d91906129c3565b610b0b565b60405161035f9190612a2d565b60405180910390f35b610382600480360381019061037d9190612aae565b610b8f565b005b61039e60048036038101906103999190612a70565b610e64565b6040516103ab9190612b7b565b60405180910390f35b6103ce60048036038101906103c99190612aae565b610e8f565b6040516103dc929190612d22565b60405180910390f35b6103ff60048036038101906103fa91906129c3565b610fef565b60405161040c9190612a2d565b60405180910390f35b61042f600480360381019061042a9190612aae565b61102b565b60405161043c9190612b7b565b60405180910390f35b61045f600480360381019061045a9190612aae565b6110df565b60405161046c91906128cd565b60405180910390f35b61048f600480360381019061048a9190612aae565b6110fc565b005b61049961123c565b6040516104a69190612970565b60405180910390f35b6104c960048036038101906104c49190612d81565b6112cc565b005b6104e560048036038101906104e09190612aae565b6112e2565b005b61050160048036038101906104fc9190612eeb565b61152e565b005b61051d600480360381019061051891906129c3565b611590565b60405161052c93929190612f6b565b60405180910390f35b61054f600480360381019061054a91906129c3565b61161d565b005b61056b600480360381019061056691906129c3565b611784565b6040516105789190612970565b60405180910390f35b61059b60048036038101906105969190612fa0565b6117e9565b6040516105a891906128cd565b60405180910390f35b5f7f80ac58cd000000000000000000000000000000000000000000000000000000007bffffffffffffffffffffffffffffffffffffffffffffffffffffffff1916827bffffffffffffffffffffffffffffffffffffffffffffffffffffffff1916148061067b57507f5b5e139f000000000000000000000000000000000000000000000000000000007bffffffffffffffffffffffffffffffffffffffffffffffffffffffff1916827bffffffffffffffffffffffffffffffffffffffffffffffffffffffff1916145b8061068b575061068a82611877565b5b9050919050565b60605f80546106a09061300b565b80601f01602080910402602001604051908101604052809291908181526020018280546106cc9061300b565b80156107175780601f106106ee57610100808354040283529160200191610717565b820191905f5260205f20905b8154815290600101906020018083116106fa57829003601f168201915b5050505050905090565b5f61072b826118e0565b60045f8381526020019081526020015f205f9054906101000a900473ffffffffffffffffffffffffffffffffffffffff169050919050565b5f61076d82610b0b565b90508073ffffffffffffffffffffffffffffffffffffffff168373ffffffffffffffffffffffffffffffffffffffff16036107dd576040517f08c379a00000000000000000000000000000000000000000000000000000000081526004016107d4906130ab565b60405180910390fd5b8073ffffffffffffffffffffffffffffffffffffffff166107fc61192b565b73ffffffffffffffffffffffffffffffffffffffff16148061082b575061082a8161082561192b565b6117e9565b5b61086a576040517f08c379a000000000000000000000000000000000000000000000000000000000815260040161086190613139565b60405180910390fd5b6108748383611932565b505050565b60075f9054906101000a900473ffffffffffffffffffffffffffffffffffffffff1673ffffffffffffffffffffffffffffffffffffffff163373ffffffffffffffffffffffffffffffffffffffff1614610908576040517f08c379a00000000000000000000000000000000000000000000000000000000081526004016108ff906131c7565b60405180910390fd5b600160085f8373ffffffffffffffffffffffffffffffffffffffff1673ffffffffffffffffffffffffffffffffffffffff1681526020019081526020015f205f6101000a81548160ff02191690831515021790555050565b61097161096b61192b565b826119e8565b6109b0576040517f08c379a00000000000000000000000000000000000000000000000000000000081526004016109a790613255565b60405180910390fd5b6109bb838383611a7c565b505050565b60075f9054906101000a900473ffffffffffffffffffffffffffffffffffffffff1681565b600a602052805f5260405f205f91509050805f015490806001015f9054906101000a900473ffffffffffffffffffffffffffffffffffffffff1690806002015f9054906101000a900473ffffffffffffffffffffffffffffffffffffffff16908060030154905084565b62278d0081565b606060095f8373ffffffffffffffffffffffffffffffffffffffff1673ffffffffffffffffffffffffffffffffffffffff1681526020019081526020015f20600101805480602002602001604051908101604052809291908181526020018280548015610ae057602002820191905f5260205f20905b815481526020019060010190808311610acc575b50505050509050919050565b610b0683838360405180602001604052805f81525061152e565b505050565b5f80610b1683611d68565b90505f73ffffffffffffffffffffffffffffffffffffffff168173ffffffffffffffffffffffffffffffffffffffff1603610b86576040517f08c379a0000000000000000000000000000000000000000000000000000000008152600401610b7d906132bd565b60405180910390fd5b80915050919050565b60085f3373ffffffffffffffffffffffffffffffffffffffff1673ffffffffffffffffffffffffffffffffffffffff1681526020019081526020015f205f9054906101000a900460ff1680610c30575060075f9054906101000a900473ffffffffffffffffffffffffffffffffffffffff1673ffffffffffffffffffffffffffffffffffffffff163373ffffffffffffffffffffffffffffffffffffffff16145b610c6f576040517f08c379a0000000000000000000000000000000000000000000000000000000008152600401610c669061334b565b60405180910390fd5b5f6001610c7c6006611da1565b610c869190613396565b9050610c928282611dad565b60405180608001604052808281526020013373ffffffffffffffffffffffffffffffffffffffff1681526020018373ffffffffffffffffffffffffffffffffffffffff16815260200142815250600a5f8381526020019081526020015f205f820151815f01556020820151816001015f6101000a81548173ffffffffffffffffffffffffffffffffffffffff021916908373ffffffffffffffffffffffffffffffffffffffff1602179055506040820151816002015f6101000a81548173ffffffffffffffffffffffffffffffffffffffff021916908373ffffffffffffffffffffffffffffffffffffffff16021790555060608201518160030155905050600b5f3373ffffffffffffffffffffffffffffffffffffffff1673ffffffffffffffffffffffffffffffffffffffff1681526020019081526020015f2081908060018154018082558091505060019003905f5260205f20015f909190919091505560095f8373ffffffffffffffffffffffffffffffffffffffff1673ffffffffffffffffffffffffffffffffffffffff1681526020019081526020015f2060010181908060018154018082558091505060019003905f5260205f20015f9091909190915055610e606006611fc0565b5050565b600b602052815f5260405f208181548110610e7d575f80fd5b905f5260205f20015f91509150505481565b60608060095f8473ffffffffffffffffffffffffffffffffffffffff1673ffffffffffffffffffffffffffffffffffffffff1681526020019081526020015f205f0160095f8573ffffffffffffffffffffffffffffffffffffffff1673ffffffffffffffffffffffffffffffffffffffff1681526020019081526020015f2060010181805480602002602001604051908101604052809291908181526020018280548015610f8f57602002820191905f5260205f20905b815f9054906101000a900473ffffffffffffffffffffffffffffffffffffffff1673ffffffffffffffffffffffffffffffffffffffff1681526020019060010190808311610f46575b5050505050915080805480602002602001604051908101604052809291908181526020018280548015610fdf57602002820191905f5260205f20905b815481526020019060010190808311610fcb575b5050505050905091509150915091565b5f600a5f8381526020019081526020015f206001015f9054906101000a900473ffffffffffffffffffffffffffffffffffffffff169050919050565b5f8073ffffffffffffffffffffffffffffffffffffffff168273ffffffffffffffffffffffffffffffffffffffff160361109a576040517f08c379a000000000000000000000000000000000000000000000000000000000815260040161109190613439565b60405180910390fd5b60035f8373ffffffffffffffffffffffffffffffffffffffff1673ffffffffffffffffffffffffffffffffffffffff1681526020019081526020015f20549050919050565b6008602052805f5260405f205f915054906101000a900460ff1681565b60085f3373ffffffffffffffffffffffffffffffffffffffff1673ffffffffffffffffffffffffffffffffffffffff1681526020019081526020015f205f9054906101000a900460ff168061119d575060075f9054906101000a900473ffffffffffffffffffffffffffffffffffffffff1673ffffffffffffffffffffffffffffffffffffffff163373ffffffffffffffffffffffffffffffffffffffff16145b6111dc576040517f08c379a00000000000000000000000000000000000000000000000000000000081526004016111d39061334b565b60405180910390fd5b60095f8273ffffffffffffffffffffffffffffffffffffffff1673ffffffffffffffffffffffffffffffffffffffff1681526020019081526020015f205f8082015f61122891906126f9565b600182015f6112379190612717565b505050565b60606001805461124b9061300b565b80601f01602080910402602001604051908101604052809291908181526020018280546112779061300b565b80156112c25780601f10611299576101008083540402835291602001916112c2565b820191905f5260205f20905b8154815290600101906020018083116112a557829003601f168201915b5050505050905090565b6112de6112d761192b565b8383611fd4565b5050565b60075f9054906101000a900473ffffffffffffffffffffffffffffffffffffffff1673ffffffffffffffffffffffffffffffffffffffff163373ffffffffffffffffffffffffffffffffffffffff1614611371576040517f08c379a0000000000000000000000000000000000000000000000000000000008152600401611368906131c7565b60405180910390fd5b60405180604001604052805f67ffffffffffffffff81111561139657611395612dc7565b5b6040519080825280602002602001820160405280156113c45781602001602082028036833780820191505090505b5081526020015f67ffffffffffffffff8111156113e4576113e3612dc7565b5b6040519080825280602002602001820160405280156114125781602001602082028036833780820191505090505b5081525060095f8373ffffffffffffffffffffffffffffffffffffffff1673ffffffffffffffffffffffffffffffffffffffff1681526020019081526020015f205f820151815f01908051906020019061146d929190612735565b50602082015181600101908051906020019061148a9291906127bc565b5090505060095f8273ffffffffffffffffffffffffffffffffffffffff1673ffffffffffffffffffffffffffffffffffffffff1681526020019081526020015f205f0133908060018154018082558091505060019003905f5260205f20015f9091909190916101000a81548173ffffffffffffffffffffffffffffffffffffffff021916908373ffffffffffffffffffffffffffffffffffffffff16021790555050565b61153f61153961192b565b836119e8565b61157e576040517f08c379a000000000000000000000000000000000000000000000000000000000815260040161157590613255565b60405180910390fd5b61158a8484848461213b565b50505050565b5f805f600a5f8581526020019081526020015f206001015f9054906101000a900473ffffffffffffffffffffffffffffffffffffffff16600a5f8681526020019081526020015f206002015f9054906101000a900473ffffffffffffffffffffffffffffffffffffffff16600a5f8781526020019081526020015f20600301549250925092509193909250565b60085f3373ffffffffffffffffffffffffffffffffffffffff1673ffffffffffffffffffffffffffffffffffffffff1681526020019081526020015f205f9054906101000a900460ff166116a6576040517f08c379a000000000000000000000000000000000000000000000000000000000815260040161169d906134c7565b60405180910390fd5b62278d00600a5f8381526020019081526020015f20600301546116c99190613396565b42111561170b576040517f08c379a000000000000000000000000000000000000000000000000000000000815260040161170290613555565b60405180910390fd5b61171481612197565b600a5f8281526020019081526020015f205f8082015f9055600182015f6101000a81549073ffffffffffffffffffffffffffffffffffffffff0219169055600282015f6101000a81549073ffffffffffffffffffffffffffffffffffffffff0219169055600382015f9055505050565b606061178f826118e0565b5f6117986122d8565b90505f8151116117b65760405180602001604052805f8152506117e1565b806117c0846122ee565b6040516020016117d19291906135ad565b6040516020818303038152906040525b915050919050565b5f60055f8473ffffffffffffffffffffffffffffffffffffffff1673ffffffffffffffffffffffffffffffffffffffff1681526020019081526020015f205f8373ffffffffffffffffffffffffffffffffffffffff1673ffffffffffffffffffffffffffffffffffffffff1681526020019081526020015f205f9054906101000a900460ff16905092915050565b5f7f01ffc9a7000000000000000000000000000000000000000000000000000000007bffffffffffffffffffffffffffffffffffffffffffffffffffffffff1916827bffffffffffffffffffffffffffffffffffffffffffffffffffffffff1916149050919050565b6118e9816123b8565b611928576040517f08c379a000000000000000000000000000000000000000000000000000000000815260040161191f906132bd565b60405180910390fd5b50565b5f33905090565b8160045f8381526020019081526020015f205f6101000a81548173ffffffffffffffffffffffffffffffffffffffff021916908373ffffffffffffffffffffffffffffffffffffffff160217905550808273ffffffffffffffffffffffffffffffffffffffff166119a283610b0b565b73ffffffffffffffffffffffffffffffffffffffff167f8c5be1e5ebec7d5bd14f71427d1e84f3dd0314c0f7b2291e5b200ac8c7c3b92560405160405180910390a45050565b5f806119f383610b0b565b90508073ffffffffffffffffffffffffffffffffffffffff168473ffffffffffffffffffffffffffffffffffffffff161480611a355750611a3481856117e9565b5b80611a7357508373ffffffffffffffffffffffffffffffffffffffff16611a5b84610721565b73ffffffffffffffffffffffffffffffffffffffff16145b91505092915050565b8273ffffffffffffffffffffffffffffffffffffffff16611a9c82610b0b565b73ffffffffffffffffffffffffffffffffffffffff1614611af2576040517f08c379a0000000000000000000000000000000000000000000000000000000008152600401611ae990613640565b60405180910390fd5b5f73ffffffffffffffffffffffffffffffffffffffff168273ffffffffffffffffffffffffffffffffffffffff1603611b60576040517f08c379a0000000000000000000000000000000000000000000000000000000008152600401611b57906136ce565b60405180910390fd5b611b6d83838360016123f8565b8273ffffffffffffffffffffffffffffffffffffffff16611b8d82610b0b565b73ffffffffffffffffffffffffffffffffffffffff1614611be3576040517f08c379a0000000000000000000000000000000000000000000000000000000008152600401611bda90613640565b60405180910390fd5b60045f8281526020019081526020015f205f6101000a81549073ffffffffffffffffffffffffffffffffffffffff0219169055600160035f8573ffffffffffffffffffffffffffffffffffffffff1673ffffffffffffffffffffffffffffffffffffffff1681526020019081526020015f205f8282540392505081905550600160035f8473ffffffffffffffffffffffffffffffffffffffff1673ffffffffffffffffffffffffffffffffffffffff1681526020019081526020015f205f82825401925050819055508160025f8381526020019081526020015f205f6101000a81548173ffffffffffffffffffffffffffffffffffffffff021916908373ffffffffffffffffffffffffffffffffffffffff160217905550808273ffffffffffffffffffffffffffffffffffffffff168473ffffffffffffffffffffffffffffffffffffffff167fddf252ad1be2c89b69c2b068fc378daa952ba7f163c4a11628f55a4df523b3ef60405160405180910390a4611d6383838360016123fe565b505050565b5f60025f8381526020019081526020015f205f9054906101000a900473ffffffffffffffffffffffffffffffffffffffff169050919050565b5f815f01549050919050565b5f73ffffffffffffffffffffffffffffffffffffffff168273ffffffffffffffffffffffffffffffffffffffff1603611e1b576040517f08c379a0000000000000000000000000000000000000000000000000000000008152600401611e1290613736565b60405180910390fd5b611e24816123b8565b15611e64576040517f08c379a0000000000000000000000000000000000000000000000000000000008152600401611e5b9061379e565b60405180910390fd5b611e715f838360016123f8565b611e7a816123b8565b15611eba576040517f08c379a0000000000000000000000000000000000000000000000000000000008152600401611eb19061379e565b60405180910390fd5b600160035f8473ffffffffffffffffffffffffffffffffffffffff1673ffffffffffffffffffffffffffffffffffffffff1681526020019081526020015f205f82825401925050819055508160025f8381526020019081526020015f205f6101000a81548173ffffffffffffffffffffffffffffffffffffffff021916908373ffffffffffffffffffffffffffffffffffffffff160217905550808273ffffffffffffffffffffffffffffffffffffffff165f73ffffffffffffffffffffffffffffffffffffffff167fddf252ad1be2c89b69c2b068fc378daa952ba7f163c4a11628f55a4df523b3ef60405160405180910390a4611fbc5f838360016123fe565b5050565b6001815f015f828254019250508190555050565b8173ffffffffffffffffffffffffffffffffffffffff168373ffffffffffffffffffffffffffffffffffffffff1603612042576040517f08c379a000000000000000000000000000000000000000000000000000000000815260040161203990613806565b60405180910390fd5b8060055f8573ffffffffffffffffffffffffffffffffffffffff1673ffffffffffffffffffffffffffffffffffffffff1681526020019081526020015f205f8473ffffffffffffffffffffffffffffffffffffffff1673ffffffffffffffffffffffffffffffffffffffff1681526020019081526020015f205f6101000a81548160ff0219169083151502179055508173ffffffffffffffffffffffffffffffffffffffff168373ffffffffffffffffffffffffffffffffffffffff167f17307eab39ab6107e8899845ad3d59bd9653f200f220920489ca2b5937696c318360405161212e91906128cd565b60405180910390a3505050565b612146848484611a7c565b61215284848484612404565b612191576040517f08c379a000000000000000000000000000000000000000000000000000000000815260040161218890613894565b60405180910390fd5b50505050565b5f6121a182610b0b565b90506121b0815f8460016123f8565b6121b982610b0b565b905060045f8381526020019081526020015f205f6101000a81549073ffffffffffffffffffffffffffffffffffffffff0219169055600160035f8373ffffffffffffffffffffffffffffffffffffffff1673ffffffffffffffffffffffffffffffffffffffff1681526020019081526020015f205f828254039250508190555060025f8381526020019081526020015f205f6101000a81549073ffffffffffffffffffffffffffffffffffffffff0219169055815f73ffffffffffffffffffffffffffffffffffffffff168273ffffffffffffffffffffffffffffffffffffffff167fddf252ad1be2c89b69c2b068fc378daa952ba7f163c4a11628f55a4df523b3ef60405160405180910390a46122d4815f8460016123fe565b5050565b606060405180602001604052805f815250905090565b60605f60016122fc84612586565b0190505f8167ffffffffffffffff81111561231a57612319612dc7565b5b6040519080825280601f01601f19166020018201604052801561234c5781602001600182028036833780820191505090505b5090505f82602001820190505b6001156123ad578080600190039150507f3031323334353637383961626364656600000000000000000000000000000000600a86061a8153600a85816123a2576123a16138b2565b5b0494505f8503612359575b819350505050919050565b5f8073ffffffffffffffffffffffffffffffffffffffff166123d983611d68565b73ffffffffffffffffffffffffffffffffffffffff1614159050919050565b50505050565b50505050565b5f6124248473ffffffffffffffffffffffffffffffffffffffff166126d7565b15612579578373ffffffffffffffffffffffffffffffffffffffff1663150b7a0261244d61192b565b8786866040518563ffffffff1660e01b815260040161246f9493929190613931565b6020604051808303815f875af19250505080156124aa57506040513d601f19601f820116820180604052508101906124a7919061398f565b60015b612529573d805f81146124d8576040519150601f19603f3d011682016040523d82523d5f602084013e6124dd565b606091505b505f815103612521576040517f08c379a000000000000000000000000000000000000000000000000000000000815260040161251890613894565b60405180910390fd5b805181602001fd5b63150b7a0260e01b7bffffffffffffffffffffffffffffffffffffffffffffffffffffffff1916817bffffffffffffffffffffffffffffffffffffffffffffffffffffffff19161491505061257e565b600190505b949350505050565b5f805f90507a184f03e93ff9f4daa797ed6e38ed64bf6a1f01000000000000000083106125e2577a184f03e93ff9f4daa797ed6e38ed64bf6a1f01000000000000000083816125d8576125d76138b2565b5b0492506040810190505b6d04ee2d6d415b85acef8100000000831061261f576d04ee2d6d415b85acef81000000008381612615576126146138b2565b5b0492506020810190505b662386f26fc10000831061264e57662386f26fc100008381612644576126436138b2565b5b0492506010810190505b6305f5e1008310612677576305f5e100838161266d5761266c6138b2565b5b0492506008810190505b612710831061269c576127108381612692576126916138b2565b5b0492506004810190505b606483106126bf57606483816126b5576126b46138b2565b5b0492506002810190505b600a83106126ce576001810190505b80915050919050565b5f808273ffffffffffffffffffffffffffffffffffffffff163b119050919050565b5080545f8255905f5260205f20908101906127149190612807565b50565b5080545f8255905f5260205f20908101906127329190612807565b50565b828054828255905f5260205f209081019282156127ab579160200282015b828111156127aa578251825f6101000a81548173ffffffffffffffffffffffffffffffffffffffff021916908373ffffffffffffffffffffffffffffffffffffffff16021790555091602001919060010190612753565b5b5090506127b89190612807565b5090565b828054828255905f5260205f209081019282156127f6579160200282015b828111156127f55782518255916020019190600101906127da565b5b5090506128039190612807565b5090565b5b8082111561281e575f815f905550600101612808565b5090565b5f604051905090565b5f80fd5b5f80fd5b5f7fffffffff0000000000000000000000000000000000000000000000000000000082169050919050565b61286781612833565b8114612871575f80fd5b50565b5f813590506128828161285e565b92915050565b5f6020828403121561289d5761289c61282b565b5b5f6128aa84828501612874565b91505092915050565b5f8115159050919050565b6128c7816128b3565b82525050565b5f6020820190506128e05f8301846128be565b92915050565b5f81519050919050565b5f82825260208201905092915050565b5f5b8381101561291d578082015181840152602081019050612902565b5f8484015250505050565b5f601f19601f8301169050919050565b5f612942826128e6565b61294c81856128f0565b935061295c818560208601612900565b61296581612928565b840191505092915050565b5f6020820190508181035f8301526129888184612938565b905092915050565b5f819050919050565b6129a281612990565b81146129ac575f80fd5b50565b5f813590506129bd81612999565b92915050565b5f602082840312156129d8576129d761282b565b5b5f6129e5848285016129af565b91505092915050565b5f73ffffffffffffffffffffffffffffffffffffffff82169050919050565b5f612a17826129ee565b9050919050565b612a2781612a0d565b82525050565b5f602082019050612a405f830184612a1e565b92915050565b612a4f81612a0d565b8114612a59575f80fd5b50565b5f81359050612a6a81612a46565b92915050565b5f8060408385031215612a8657612a8561282b565b5b5f612a9385828601612a5c565b9250506020612aa4858286016129af565b9150509250929050565b5f60208284031215612ac357612ac261282b565b5b5f612ad084828501612a5c565b91505092915050565b5f805f60608486031215612af057612aef61282b565b5b5f612afd86828701612a5c565b9350506020612b0e86828701612a5c565b9250506040612b1f868287016129af565b9150509250925092565b612b3281612990565b82525050565b5f608082019050612b4b5f830187612b29565b612b586020830186612a1e565b612b656040830185612a1e565b612b726060830184612b29565b95945050505050565b5f602082019050612b8e5f830184612b29565b92915050565b5f81519050919050565b5f82825260208201905092915050565b5f819050602082019050919050565b612bc681612990565b82525050565b5f612bd78383612bbd565b60208301905092915050565b5f602082019050919050565b5f612bf982612b94565b612c038185612b9e565b9350612c0e83612bae565b805f5b83811015612c3e578151612c258882612bcc565b9750612c3083612be3565b925050600181019050612c11565b5085935050505092915050565b5f6020820190508181035f830152612c638184612bef565b905092915050565b5f81519050919050565b5f82825260208201905092915050565b5f819050602082019050919050565b612c9d81612a0d565b82525050565b5f612cae8383612c94565b60208301905092915050565b5f602082019050919050565b5f612cd082612c6b565b612cda8185612c75565b9350612ce583612c85565b805f5b83811015612d15578151612cfc8882612ca3565b9750612d0783612cba565b925050600181019050612ce8565b5085935050505092915050565b5f6040820190508181035f830152612d3a8185612cc6565b90508181036020830152612d4e8184612bef565b90509392505050565b612d60816128b3565b8114612d6a575f80fd5b50565b5f81359050612d7b81612d57565b92915050565b5f8060408385031215612d9757612d9661282b565b5b5f612da485828601612a5c565b9250506020612db585828601612d6d565b9150509250929050565b5f80fd5b5f80fd5b7f4e487b71000000000000000000000000000000000000000000000000000000005f52604160045260245ffd5b612dfd82612928565b810181811067ffffffffffffffff82111715612e1c57612e1b612dc7565b5b80604052505050565b5f612e2e612822565b9050612e3a8282612df4565b919050565b5f67ffffffffffffffff821115612e5957612e58612dc7565b5b612e6282612928565b9050602081019050919050565b828183375f83830152505050565b5f612e8f612e8a84612e3f565b612e25565b905082815260208101848484011115612eab57612eaa612dc3565b5b612eb6848285612e6f565b509392505050565b5f82601f830112612ed257612ed1612dbf565b5b8135612ee2848260208601612e7d565b91505092915050565b5f805f8060808587031215612f0357612f0261282b565b5b5f612f1087828801612a5c565b9450506020612f2187828801612a5c565b9350506040612f32878288016129af565b925050606085013567ffffffffffffffff811115612f5357612f5261282f565b5b612f5f87828801612ebe565b91505092959194509250565b5f606082019050612f7e5f830186612a1e565b612f8b6020830185612a1e565b612f986040830184612b29565b949350505050565b5f8060408385031215612fb657612fb561282b565b5b5f612fc385828601612a5c565b9250506020612fd485828601612a5c565b9150509250929050565b7f4e487b71000000000000000000000000000000000000000000000000000000005f52602260045260245ffd5b5f600282049050600182168061302257607f821691505b60208210810361303557613034612fde565b5b50919050565b7f4552433732313a20617070726f76616c20746f2063757272656e74206f776e655f8201527f7200000000000000000000000000000000000000000000000000000000000000602082015250565b5f6130956021836128f0565b91506130a08261303b565b604082019050919050565b5f6020820190508181035f8301526130c281613089565b9050919050565b7f4552433732313a20617070726f76652063616c6c6572206973206e6f7420746f5f8201527f6b656e206f776e6572206f7220617070726f76656420666f7220616c6c000000602082015250565b5f613123603d836128f0565b915061312e826130c9565b604082019050919050565b5f6020820190508181035f83015261315081613117565b9050919050565b7f4f6e6c792074686520676f7665726e6d656e742063616e20706572666f726d205f8201527f7468697320616374696f6e000000000000000000000000000000000000000000602082015250565b5f6131b1602b836128f0565b91506131bc82613157565b604082019050919050565b5f6020820190508181035f8301526131de816131a5565b9050919050565b7f4552433732313a2063616c6c6572206973206e6f7420746f6b656e206f776e655f8201527f72206f7220617070726f76656400000000000000000000000000000000000000602082015250565b5f61323f602d836128f0565b915061324a826131e5565b604082019050919050565b5f6020820190508181035f83015261326c81613233565b9050919050565b7f4552433732313a20696e76616c696420746f6b656e20494400000000000000005f82015250565b5f6132a76018836128f0565b91506132b282613273565b602082019050919050565b5f6020820190508181035f8301526132d48161329b565b9050919050565b7f4f6e6c792061207363686f6f6c206f722074686520676f7665726d656e7420635f8201527f616e20706572666f726d207468697320616374696f6e00000000000000000000602082015250565b5f6133356036836128f0565b9150613340826132db565b604082019050919050565b5f6020820190508181035f83015261336281613329565b9050919050565b7f4e487b71000000000000000000000000000000000000000000000000000000005f52601160045260245ffd5b5f6133a082612990565b91506133ab83612990565b92508282019050808211156133c3576133c2613369565b5b92915050565b7f4552433732313a2061646472657373207a65726f206973206e6f7420612076615f8201527f6c6964206f776e65720000000000000000000000000000000000000000000000602082015250565b5f6134236029836128f0565b915061342e826133c9565b604082019050919050565b5f6020820190508181035f83015261345081613417565b9050919050565b7f4f6e6c792061207363686f6f6c2063616e20706572666f726d207468697320615f8201527f6374696f6e000000000000000000000000000000000000000000000000000000602082015250565b5f6134b16025836128f0565b91506134bc82613457565b604082019050919050565b5f6020820190508181035f8301526134de816134a5565b9050919050565b7f5468652065787069727920706572696f6420666f722064657374726f79696e675f8201527f2074686973204e46542068617320706173736564000000000000000000000000602082015250565b5f61353f6034836128f0565b915061354a826134e5565b604082019050919050565b5f6020820190508181035f83015261356c81613533565b9050919050565b5f81905092915050565b5f613587826128e6565b6135918185613573565b93506135a1818560208601612900565b80840191505092915050565b5f6135b8828561357d565b91506135c4828461357d565b91508190509392505050565b7f4552433732313a207472616e736665722066726f6d20696e636f7272656374205f8201527f6f776e6572000000000000000000000000000000000000000000000000000000602082015250565b5f61362a6025836128f0565b9150613635826135d0565b604082019050919050565b5f6020820190508181035f8301526136578161361e565b9050919050565b7f4552433732313a207472616e7366657220746f20746865207a65726f206164645f8201527f7265737300000000000000000000000000000000000000000000000000000000602082015250565b5f6136b86024836128f0565b91506136c38261365e565b604082019050919050565b5f6020820190508181035f8301526136e5816136ac565b9050919050565b7f4552433732313a206d696e7420746f20746865207a65726f20616464726573735f82015250565b5f6137206020836128f0565b915061372b826136ec565b602082019050919050565b5f6020820190508181035f83015261374d81613714565b9050919050565b7f4552433732313a20746f6b656e20616c7265616479206d696e746564000000005f82015250565b5f613788601c836128f0565b915061379382613754565b602082019050919050565b5f6020820190508181035f8301526137b58161377c565b9050919050565b7f4552433732313a20617070726f766520746f2063616c6c6572000000000000005f82015250565b5f6137f06019836128f0565b91506137fb826137bc565b602082019050919050565b5f6020820190508181035f83015261381d816137e4565b9050919050565b7f4552433732313a207472616e7366657220746f206e6f6e2045524337323152655f8201527f63656976657220696d706c656d656e7465720000000000000000000000000000602082015250565b5f61387e6032836128f0565b915061388982613824565b604082019050919050565b5f6020820190508181035f8301526138ab81613872565b9050919050565b7f4e487b71000000000000000000000000000000000000000000000000000000005f52601260045260245ffd5b5f81519050919050565b5f82825260208201905092915050565b5f613903826138df565b61390d81856138e9565b935061391d818560208601612900565b61392681612928565b840191505092915050565b5f6080820190506139445f830187612a1e565b6139516020830186612a1e565b61395e6040830185612b29565b818103606083015261397081846138f9565b905095945050505050565b5f815190506139898161285e565b92915050565b5f602082840312156139a4576139a361282b565b5b5f6139b18482850161397b565b9150509291505056fea2646970667358221220ac0b794bf6d1df3624a6717be6613bad2ed18b14453545589350877f2dae5a8a64736f6c63430008140033",
   "immutableReferences": {},
   "source": "// SPDX-License-Identifier: GPL-3.0\n\npragma solidity >=0.7.0 <0.9.0;\n\nimport \"../node_modules/@openzeppelin/contracts/token/ERC721/ERC721.sol\";\nimport \"../node_modules/@openzeppelin/contracts/utils/Counters.sol\";\n\ncontract EducationSystem is ERC721 {\n   using Counters for Counters.Counter;\n   Counters.Counter private _tokenIds;\n\n   address public government;\n   mapping(address => bool) public schools;\n   mapping(address => Student) students;\n   mapping(uint256 => SchoolNFT) public schoolNFTs;\n   mapping(address => uint256[]) public schoolNFTsBySchool;\n\n   struct Student {\n      address[] schoolsAllowed;\n      uint256[] ownedNFTs;\n   }\n\n   struct SchoolNFT {\n      uint256 id;\n      address schoolAddress;\n      address studentAddress;\n      uint256 issuedAt;\n   }\n\n   uint256 public constant EXPIRY_PERIOD = 30 days;\n\n   constructor() ERC721(\"EducationSystemNFT\", \"ESN\") {\n      government = msg.sender;\n   }\n\n   modifier onlyGovernment() {\n      require(\n         msg.sender == government,\n         \"Only the government can perform this action\"\n      );\n      _;\n   }\n\n   modifier onlySchools() {\n      require(schools[msg.sender], \"Only a school can perform this action\");\n      _;\n   }\n\n   modifier onlySchoolsOrGoverment() {\n       require(schools[msg.sender] || msg.sender == government, \"Only a school or the goverment can perform this action\");\n       _;\n   }\n\n   function createSchool(address _schoolAddress) public onlyGovernment {\n      schools[_schoolAddress] = true;\n   }\n\n   function createStudent(address _studentAddress) public onlyGovernment {\n      students[_studentAddress] = Student(\n         new address[](0),\n         new uint256[](0)\n      );\n      students[_studentAddress].schoolsAllowed.push(msg.sender);\n   }\n\n   function getStudent(address wallet) public view returns (address[] memory, uint256[] memory) {\n       return (students[wallet].schoolsAllowed, students[wallet].ownedNFTs);\n   }\n\n    function deleteStudent(address _studentAddress) public onlySchoolsOrGoverment {\n        delete students[_studentAddress];\n    }\n\n    function issueNFT(address _studentAddress) public onlySchoolsOrGoverment {\n        uint256 newNFTId = _tokenIds.current() + 1;\n        _mint(_studentAddress, newNFTId);\n        schoolNFTs[newNFTId] = SchoolNFT(newNFTId, msg.sender, _studentAddress, block.timestamp);\n        schoolNFTsBySchool[msg.sender].push(newNFTId);\n        students[_studentAddress].ownedNFTs.push(newNFTId);\n        _tokenIds.increment();\n    }\n\n    function destroyNFT(uint256 _tokenId) public onlySchools {\n        require(\n            block.timestamp <= schoolNFTs[_tokenId].issuedAt + EXPIRY_PERIOD,\n            \"The expiry period for destroying this NFT has passed\"\n        );\n        _burn(_tokenId);\n        delete schoolNFTs[_tokenId];\n    }\n\n    function getSchoolNFTs(uint256 id) public view returns (address, address, uint256) {\n       return (schoolNFTs[id].schoolAddress, schoolNFTs[id].studentAddress, schoolNFTs[id].issuedAt);\n    }\n\n    function seeOwnedNFTs(\n        address _studentAddress\n    ) public view returns (uint256[] memory) {\n        return students[_studentAddress].ownedNFTs;\n    }\n\n    function seeNFTOrigin(uint256 _tokenId) public view returns (address) {\n        return schoolNFTs[_tokenId].schoolAddress;\n    }\n}",
   "sourcePath": "/home/victorcarvalho/Documents/Github/EthereumHachas/ethereum-sp23/blockchain/contracts/EducationalSystem.sol",
   "compiler": {
      "name": "solc",
      "version": "0.8.20+commit.a1b79de6.Emscripten.clang"
   },
   "schemaVersion": "3.4.14",
   "updatedAt": "2023-06-25T02:02:52.310Z",
   "devdoc": {
      "events": {
         "Approval(address,address,uint256)": {
            "details": "Emitted when `owner` enables `approved` to manage the `tokenId` token."
         },
         "ApprovalForAll(address,address,bool)": {
            "details": "Emitted when `owner` enables or disables (`approved`) `operator` to manage all of its assets."
         },
         "Transfer(address,address,uint256)": {
            "details": "Emitted when `tokenId` token is transferred from `from` to `to`."
         }
      },
      "kind": "dev",
      "methods": {
         "approve(address,uint256)": {
            "details": "See {IERC721-approve}."
         },
         "balanceOf(address)": {
            "details": "See {IERC721-balanceOf}."
         },
         "getApproved(uint256)": {
            "details": "See {IERC721-getApproved}."
         },
         "isApprovedForAll(address,address)": {
            "details": "See {IERC721-isApprovedForAll}."
         },
         "name()": {
            "details": "See {IERC721Metadata-name}."
         },
         "ownerOf(uint256)": {
            "details": "See {IERC721-ownerOf}."
         },
         "safeTransferFrom(address,address,uint256)": {
            "details": "See {IERC721-safeTransferFrom}."
         },
         "safeTransferFrom(address,address,uint256,bytes)": {
            "details": "See {IERC721-safeTransferFrom}."
         },
         "setApprovalForAll(address,bool)": {
            "details": "See {IERC721-setApprovalForAll}."
         },
         "supportsInterface(bytes4)": {
            "details": "See {IERC165-supportsInterface}."
         },
         "symbol()": {
            "details": "See {IERC721Metadata-symbol}."
         },
         "tokenURI(uint256)": {
            "details": "See {IERC721Metadata-tokenURI}."
         },
         "transferFrom(address,address,uint256)": {
            "details": "See {IERC721-transferFrom}."
         }
      },
      "version": 1
   },
   "userdoc": {
      "kind": "user",
      "methods": {},
      "version": 1
   }
}