{
  "contractName": "EducationSystem",
  "abi": [
    {
      "inputs": [],
      "stateMutability": "nonpayable",
      "type": "constructor"
    },
    {
      "anonymous": false,
      "inputs": [
        {
          "indexed": true,
          "internalType": "address",
          "name": "owner",
          "type": "address"
        },
        {
          "indexed": true,
          "internalType": "address",
          "name": "approved",
          "type": "address"
        },
        {
          "indexed": true,
          "internalType": "uint256",
          "name": "tokenId",
          "type": "uint256"
        }
      ],
      "name": "Approval",
      "type": "event"
    },
    {
      "anonymous": false,
      "inputs": [
        {
          "indexed": true,
          "internalType": "address",
          "name": "owner",
          "type": "address"
        },
        {
          "indexed": true,
          "internalType": "address",
          "name": "operator",
          "type": "address"
        },
        {
          "indexed": false,
          "internalType": "bool",
          "name": "approved",
          "type": "bool"
        }
      ],
      "name": "ApprovalForAll",
      "type": "event"
    },
    {
      "anonymous": false,
      "inputs": [
        {
          "indexed": false,
          "internalType": "uint256",
          "name": "_fromTokenId",
          "type": "uint256"
        },
        {
          "indexed": false,
          "internalType": "uint256",
          "name": "_toTokenId",
          "type": "uint256"
        }
      ],
      "name": "BatchMetadataUpdate",
      "type": "event"
    },
    {
      "anonymous": false,
      "inputs": [
        {
          "indexed": false,
          "internalType": "uint256",
          "name": "_tokenId",
          "type": "uint256"
        }
      ],
      "name": "MetadataUpdate",
      "type": "event"
    },
    {
      "anonymous": false,
      "inputs": [
        {
          "indexed": true,
          "internalType": "address",
          "name": "from",
          "type": "address"
        },
        {
          "indexed": true,
          "internalType": "address",
          "name": "to",
          "type": "address"
        },
        {
          "indexed": true,
          "internalType": "uint256",
          "name": "tokenId",
          "type": "uint256"
        }
      ],
      "name": "Transfer",
      "type": "event"
    },
    {
      "inputs": [],
      "name": "EXPIRY_PERIOD",
      "outputs": [
        {
          "internalType": "uint256",
          "name": "",
          "type": "uint256"
        }
      ],
      "stateMutability": "view",
      "type": "function",
      "constant": true
    },
    {
      "inputs": [
        {
          "internalType": "address",
          "name": "",
          "type": "address"
        },
        {
          "internalType": "address",
          "name": "",
          "type": "address"
        }
      ],
      "name": "allowedSchoolsStatus",
      "outputs": [
        {
          "internalType": "bool",
          "name": "",
          "type": "bool"
        }
      ],
      "stateMutability": "view",
      "type": "function",
      "constant": true
    },
    {
      "inputs": [
        {
          "internalType": "address",
          "name": "to",
          "type": "address"
        },
        {
          "internalType": "uint256",
          "name": "tokenId",
          "type": "uint256"
        }
      ],
      "name": "approve",
      "outputs": [],
      "stateMutability": "nonpayable",
      "type": "function"
    },
    {
      "inputs": [
        {
          "internalType": "address",
          "name": "owner",
          "type": "address"
        }
      ],
      "name": "balanceOf",
      "outputs": [
        {
          "internalType": "uint256",
          "name": "",
          "type": "uint256"
        }
      ],
      "stateMutability": "view",
      "type": "function",
      "constant": true
    },
    {
      "inputs": [
        {
          "internalType": "uint256",
          "name": "tokenId",
          "type": "uint256"
        }
      ],
      "name": "getApproved",
      "outputs": [
        {
          "internalType": "address",
          "name": "",
          "type": "address"
        }
      ],
      "stateMutability": "view",
      "type": "function",
      "constant": true
    },
    {
      "inputs": [],
      "name": "government",
      "outputs": [
        {
          "internalType": "address",
          "name": "",
          "type": "address"
        }
      ],
      "stateMutability": "view",
      "type": "function",
      "constant": true
    },
    {
      "inputs": [
        {
          "internalType": "uint256",
          "name": "",
          "type": "uint256"
        }
      ],
      "name": "ipfsById",
      "outputs": [
        {
          "internalType": "string",
          "name": "",
          "type": "string"
        }
      ],
      "stateMutability": "view",
      "type": "function",
      "constant": true
    },
    {
      "inputs": [
        {
          "internalType": "address",
          "name": "owner",
          "type": "address"
        },
        {
          "internalType": "address",
          "name": "operator",
          "type": "address"
        }
      ],
      "name": "isApprovedForAll",
      "outputs": [
        {
          "internalType": "bool",
          "name": "",
          "type": "bool"
        }
      ],
      "stateMutability": "view",
      "type": "function",
      "constant": true
    },
    {
      "inputs": [],
      "name": "name",
      "outputs": [
        {
          "internalType": "string",
          "name": "",
          "type": "string"
        }
      ],
      "stateMutability": "view",
      "type": "function",
      "constant": true
    },
    {
      "inputs": [
        {
          "internalType": "uint256",
          "name": "tokenId",
          "type": "uint256"
        }
      ],
      "name": "ownerOf",
      "outputs": [
        {
          "internalType": "address",
          "name": "",
          "type": "address"
        }
      ],
      "stateMutability": "view",
      "type": "function",
      "constant": true
    },
    {
      "inputs": [
        {
          "internalType": "address",
          "name": "from",
          "type": "address"
        },
        {
          "internalType": "address",
          "name": "to",
          "type": "address"
        },
        {
          "internalType": "uint256",
          "name": "tokenId",
          "type": "uint256"
        }
      ],
      "name": "safeTransferFrom",
      "outputs": [],
      "stateMutability": "nonpayable",
      "type": "function"
    },
    {
      "inputs": [
        {
          "internalType": "address",
          "name": "from",
          "type": "address"
        },
        {
          "internalType": "address",
          "name": "to",
          "type": "address"
        },
        {
          "internalType": "uint256",
          "name": "tokenId",
          "type": "uint256"
        },
        {
          "internalType": "bytes",
          "name": "data",
          "type": "bytes"
        }
      ],
      "name": "safeTransferFrom",
      "outputs": [],
      "stateMutability": "nonpayable",
      "type": "function"
    },
    {
      "inputs": [
        {
          "internalType": "uint256",
          "name": "",
          "type": "uint256"
        }
      ],
      "name": "schoolNFTs",
      "outputs": [
        {
          "internalType": "uint256",
          "name": "id",
          "type": "uint256"
        },
        {
          "internalType": "address",
          "name": "schoolAddress",
          "type": "address"
        },
        {
          "internalType": "address",
          "name": "studentAddress",
          "type": "address"
        },
        {
          "internalType": "uint256",
          "name": "issuedAt",
          "type": "uint256"
        }
      ],
      "stateMutability": "view",
      "type": "function",
      "constant": true
    },
    {
      "inputs": [
        {
          "internalType": "address",
          "name": "",
          "type": "address"
        },
        {
          "internalType": "uint256",
          "name": "",
          "type": "uint256"
        }
      ],
      "name": "schoolNFTsBySchool",
      "outputs": [
        {
          "internalType": "uint256",
          "name": "",
          "type": "uint256"
        }
      ],
      "stateMutability": "view",
      "type": "function",
      "constant": true
    },
    {
      "inputs": [
        {
          "internalType": "address",
          "name": "",
          "type": "address"
        }
      ],
      "name": "schools",
      "outputs": [
        {
          "internalType": "bool",
          "name": "",
          "type": "bool"
        }
      ],
      "stateMutability": "view",
      "type": "function",
      "constant": true
    },
    {
      "inputs": [
        {
          "internalType": "address",
          "name": "operator",
          "type": "address"
        },
        {
          "internalType": "bool",
          "name": "approved",
          "type": "bool"
        }
      ],
      "name": "setApprovalForAll",
      "outputs": [],
      "stateMutability": "nonpayable",
      "type": "function"
    },
    {
      "inputs": [
        {
          "internalType": "address",
          "name": "",
          "type": "address"
        },
        {
          "internalType": "uint256",
          "name": "",
          "type": "uint256"
        }
      ],
      "name": "studentsBySchool",
      "outputs": [
        {
          "internalType": "address",
          "name": "",
          "type": "address"
        }
      ],
      "stateMutability": "view",
      "type": "function",
      "constant": true
    },
    {
      "inputs": [
        {
          "internalType": "bytes4",
          "name": "interfaceId",
          "type": "bytes4"
        }
      ],
      "name": "supportsInterface",
      "outputs": [
        {
          "internalType": "bool",
          "name": "",
          "type": "bool"
        }
      ],
      "stateMutability": "view",
      "type": "function",
      "constant": true
    },
    {
      "inputs": [],
      "name": "symbol",
      "outputs": [
        {
          "internalType": "string",
          "name": "",
          "type": "string"
        }
      ],
      "stateMutability": "view",
      "type": "function",
      "constant": true
    },
    {
      "inputs": [
        {
          "internalType": "uint256",
          "name": "tokenId",
          "type": "uint256"
        }
      ],
      "name": "tokenURI",
      "outputs": [
        {
          "internalType": "string",
          "name": "",
          "type": "string"
        }
      ],
      "stateMutability": "view",
      "type": "function",
      "constant": true
    },
    {
      "inputs": [
        {
          "internalType": "address",
          "name": "from",
          "type": "address"
        },
        {
          "internalType": "address",
          "name": "to",
          "type": "address"
        },
        {
          "internalType": "uint256",
          "name": "tokenId",
          "type": "uint256"
        }
      ],
      "name": "transferFrom",
      "outputs": [],
      "stateMutability": "nonpayable",
      "type": "function"
    },
    {
      "inputs": [
        {
          "internalType": "address",
          "name": "_schoolAddress",
          "type": "address"
        }
      ],
      "name": "createSchool",
      "outputs": [],
      "stateMutability": "nonpayable",
      "type": "function"
    },
    {
      "inputs": [
        {
          "internalType": "address",
          "name": "_studentAddress",
          "type": "address"
        },
        {
          "internalType": "address",
          "name": "_schoolAddress",
          "type": "address"
        }
      ],
      "name": "createStudent",
      "outputs": [],
      "stateMutability": "nonpayable",
      "type": "function"
    },
    {
      "inputs": [
        {
          "internalType": "address",
          "name": "_studentAddress",
          "type": "address"
        }
      ],
      "name": "getStudent",
      "outputs": [
        {
          "internalType": "address[]",
          "name": "",
          "type": "address[]"
        },
        {
          "internalType": "uint256[]",
          "name": "",
          "type": "uint256[]"
        }
      ],
      "stateMutability": "view",
      "type": "function",
      "constant": true
    },
    {
      "inputs": [
        {
          "internalType": "address",
          "name": "_studentAddress",
          "type": "address"
        }
      ],
      "name": "deleteStudent",
      "outputs": [],
      "stateMutability": "nonpayable",
      "type": "function"
    },
    {
      "inputs": [
        {
          "internalType": "address",
          "name": "_studentAddress",
          "type": "address"
        },
        {
          "internalType": "string",
          "name": "_tokenURI",
          "type": "string"
        }
      ],
      "name": "issueNFT",
      "outputs": [],
      "stateMutability": "nonpayable",
      "type": "function"
    },
    {
      "inputs": [
        {
          "internalType": "uint256",
          "name": "_tokenId",
          "type": "uint256"
        }
      ],
      "name": "destroyNFT",
      "outputs": [],
      "stateMutability": "nonpayable",
      "type": "function"
    },
    {
      "inputs": [
        {
          "internalType": "uint256",
          "name": "_id",
          "type": "uint256"
        }
      ],
      "name": "getSchoolNFTs",
      "outputs": [
        {
          "internalType": "address",
          "name": "",
          "type": "address"
        },
        {
          "internalType": "address",
          "name": "",
          "type": "address"
        },
        {
          "internalType": "uint256",
          "name": "",
          "type": "uint256"
        }
      ],
      "stateMutability": "view",
      "type": "function",
      "constant": true
    },
    {
      "inputs": [
        {
          "internalType": "uint256",
          "name": "_tokenId",
          "type": "uint256"
        }
      ],
      "name": "getIPFSByID",
      "outputs": [
        {
          "internalType": "string",
          "name": "",
          "type": "string"
        }
      ],
      "stateMutability": "view",
      "type": "function",
      "constant": true
    },
    {
      "inputs": [
        {
          "internalType": "address",
          "name": "_schoolAddress",
          "type": "address"
        }
      ],
      "name": "getStudentsBySchool",
      "outputs": [
        {
          "internalType": "address[]",
          "name": "",
          "type": "address[]"
        }
      ],
      "stateMutability": "view",
      "type": "function",
      "constant": true
    },
    {
      "inputs": [
        {
          "internalType": "address",
          "name": "_studentAddress",
          "type": "address"
        }
      ],
      "name": "seeOwnedNFTs",
      "outputs": [
        {
          "internalType": "uint256[]",
          "name": "",
          "type": "uint256[]"
        }
      ],
      "stateMutability": "view",
      "type": "function",
      "constant": true
    },
    {
      "inputs": [
        {
          "internalType": "uint256",
          "name": "_tokenId",
          "type": "uint256"
        }
      ],
      "name": "seeNFTOrigin",
      "outputs": [
        {
          "internalType": "address",
          "name": "",
          "type": "address"
        }
      ],
      "stateMutability": "view",
      "type": "function",
      "constant": true
    }
  ],
  "bytecode": "0x608060405234801562000010575f80fd5b506040518060400160405280601281526020017f456475636174696f6e53797374656d4e465400000000000000000000000000008152506040518060400160405280600381526020017f45534e0000000000000000000000000000000000000000000000000000000000815250815f90816200008d91906200034c565b5080600190816200009f91906200034c565b5050503360085f6101000a81548173ffffffffffffffffffffffffffffffffffffffff021916908373ffffffffffffffffffffffffffffffffffffffff16021790555062000430565b5f81519050919050565b7f4e487b71000000000000000000000000000000000000000000000000000000005f52604160045260245ffd5b7f4e487b71000000000000000000000000000000000000000000000000000000005f52602260045260245ffd5b5f60028204905060018216806200016457607f821691505b6020821081036200017a57620001796200011f565b5b50919050565b5f819050815f5260205f209050919050565b5f6020601f8301049050919050565b5f82821b905092915050565b5f60088302620001de7fffffffffffffffffffffffffffffffffffffffffffffffffffffffffffffffff82620001a1565b620001ea8683620001a1565b95508019841693508086168417925050509392505050565b5f819050919050565b5f819050919050565b5f620002346200022e620002288462000202565b6200020b565b62000202565b9050919050565b5f819050919050565b6200024f8362000214565b620002676200025e826200023b565b848454620001ad565b825550505050565b5f90565b6200027d6200026f565b6200028a81848462000244565b505050565b5b81811015620002b157620002a55f8262000273565b60018101905062000290565b5050565b601f8211156200030057620002ca8162000180565b620002d58462000192565b81016020851015620002e5578190505b620002fd620002f48562000192565b8301826200028f565b50505b505050565b5f82821c905092915050565b5f620003225f198460080262000305565b1980831691505092915050565b5f6200033c838362000311565b9150826002028217905092915050565b6200035782620000e8565b67ffffffffffffffff811115620003735762000372620000f2565b5b6200037f82546200014c565b6200038c828285620002b5565b5f60209050601f831160018114620003c2575f8415620003ad578287015190505b620003b985826200032f565b86555062000428565b601f198416620003d28662000180565b5f5b82811015620003fb57848901518255600182019150602085019450602081019050620003d4565b868310156200041b578489015162000417601f89168262000311565b8355505b6001600288020188555050505b505050505050565b61459b806200043e5f395ff3fe608060405234801561000f575f80fd5b50600436106101ee575f3560e01c8063675f79631161010d578063a22cb465116100a0578063c3272e8c1161006f578063c3272e8c1461063a578063c40412b51461066c578063c87b56dd14610688578063e985e9c5146106b8576101ee565b8063a22cb465146105b6578063a9183fe5146105d2578063b540e43814610602578063b88d4fde1461061e576101ee565b8063727790fa116100dc578063727790fa1461051c578063730bcc5d1461054c57806395d89b41146105685780639edc27f014610586576101ee565b8063675f79631461045b5780636b7b44d71461048b5780636c78c839146104bc57806370a08231146104ec576101ee565b80632896d49d1161018557806342842e0e1161015457806342842e0e146103c35780634d6166a1146103df5780635b4ca27a146103fb5780636352211e1461042b576101ee565b80632896d49d146103125780632d7a2e8f14610345578063333ec6be1461036357806337de91fc14610393576101ee565b80630c7d247a116101c15780630c7d247a1461028c57806312a767e5146102a857806323b872dd146102d85780632672f526146102f4576101ee565b806301ffc9a7146101f257806306fdde0314610222578063081812fc14610240578063095ea7b314610270575b5f80fd5b61020c60048036038101906102079190613021565b6106e8565b6040516102199190613066565b60405180910390f35b61022a610748565b6040516102379190613109565b60405180910390f35b61025a6004803603810190610255919061315c565b6107d7565b60405161026791906131c6565b60405180910390f35b61028a60048036038101906102859190613209565b610819565b005b6102a660048036038101906102a19190613247565b61092f565b005b6102c260048036038101906102bd919061315c565b610a16565b6040516102cf9190613109565b60405180910390f35b6102f260048036038101906102ed9190613272565b610ab7565b005b6102fc610b17565b60405161030991906131c6565b60405180910390f35b61032c6004803603810190610327919061315c565b610b3c565b60405161033c94939291906132d1565b60405180910390f35b61034d610ba6565b60405161035a9190613314565b60405180910390f35b61037d60048036038101906103789190613247565b610bad565b60405161038a91906133e4565b60405180910390f35b6103ad60048036038101906103a89190613404565b610c43565b6040516103ba9190613066565b60405180910390f35b6103dd60048036038101906103d89190613272565b610c6d565b005b6103f960048036038101906103f49190613404565b610c8c565b005b6104156004803603810190610410919061315c565b611004565b6040516104229190613109565b60405180910390f35b6104456004803603810190610440919061315c565b61109f565b60405161045291906131c6565b60405180910390f35b61047560048036038101906104709190613209565b611123565b6040516104829190613314565b60405180910390f35b6104a560048036038101906104a09190613247565b61114e565b6040516104b39291906134f9565b60405180910390f35b6104d660048036038101906104d1919061315c565b6112ae565b6040516104e391906131c6565b60405180910390f35b61050660048036038101906105019190613247565b6112ea565b6040516105139190613314565b60405180910390f35b61053660048036038101906105319190613247565b61139e565b6040516105439190613066565b60405180910390f35b61056660048036038101906105619190613247565b6113bb565b005b6105706114fb565b60405161057d9190613109565b60405180910390f35b6105a0600480360381019061059b9190613209565b61158b565b6040516105ad91906131c6565b60405180910390f35b6105d060048036038101906105cb9190613558565b6115d3565b005b6105ec60048036038101906105e79190613247565b6115e9565b6040516105f99190613596565b60405180910390f35b61061c600480360381019061061791906136e2565b6116b1565b005b610638600480360381019061063391906137da565b6119b0565b005b610654600480360381019061064f919061315c565b611a12565b6040516106639392919061385a565b60405180910390f35b6106866004803603810190610681919061315c565b611a9f565b005b6106a2600480360381019061069d919061315c565b611c06565b6040516106af9190613109565b60405180910390f35b6106d260048036038101906106cd9190613404565b611d10565b6040516106df9190613066565b60405180910390f35b5f634906490660e01b7bffffffffffffffffffffffffffffffffffffffffffffffffffffffff1916827bffffffffffffffffffffffffffffffffffffffffffffffffffffffff19161480610741575061074082611d9e565b5b9050919050565b60605f8054610756906138bc565b80601f0160208091040260200160405190810160405280929190818152602001828054610782906138bc565b80156107cd5780601f106107a4576101008083540402835291602001916107cd565b820191905f5260205f20905b8154815290600101906020018083116107b057829003601f168201915b5050505050905090565b5f6107e182611e7f565b60045f8381526020019081526020015f205f9054906101000a900473ffffffffffffffffffffffffffffffffffffffff169050919050565b5f6108238261109f565b90508073ffffffffffffffffffffffffffffffffffffffff168373ffffffffffffffffffffffffffffffffffffffff1603610893576040517f08c379a000000000000000000000000000000000000000000000000000000000815260040161088a9061395c565b60405180910390fd5b8073ffffffffffffffffffffffffffffffffffffffff166108b2611eca565b73ffffffffffffffffffffffffffffffffffffffff1614806108e157506108e0816108db611eca565b611d10565b5b610920576040517f08c379a0000000000000000000000000000000000000000000000000000000008152600401610917906139ea565b60405180910390fd5b61092a8383611ed1565b505050565b60085f9054906101000a900473ffffffffffffffffffffffffffffffffffffffff1673ffffffffffffffffffffffffffffffffffffffff163373ffffffffffffffffffffffffffffffffffffffff16146109be576040517f08c379a00000000000000000000000000000000000000000000000000000000081526004016109b590613a78565b60405180910390fd5b600160095f8373ffffffffffffffffffffffffffffffffffffffff1673ffffffffffffffffffffffffffffffffffffffff1681526020019081526020015f205f6101000a81548160ff02191690831515021790555050565b6060600d5f8381526020019081526020015f208054610a34906138bc565b80601f0160208091040260200160405190810160405280929190818152602001828054610a60906138bc565b8015610aab5780601f10610a8257610100808354040283529160200191610aab565b820191905f5260205f20905b815481529060010190602001808311610a8e57829003601f168201915b50505050509050919050565b610ac8610ac2611eca565b82611f87565b610b07576040517f08c379a0000000000000000000000000000000000000000000000000000000008152600401610afe90613b06565b60405180910390fd5b610b1283838361201b565b505050565b60085f9054906101000a900473ffffffffffffffffffffffffffffffffffffffff1681565b600b602052805f5260405f205f91509050805f015490806001015f9054906101000a900473ffffffffffffffffffffffffffffffffffffffff1690806002015f9054906101000a900473ffffffffffffffffffffffffffffffffffffffff16908060030154905084565b62278d0081565b6060600a5f8373ffffffffffffffffffffffffffffffffffffffff1673ffffffffffffffffffffffffffffffffffffffff1681526020019081526020015f20600101805480602002602001604051908101604052809291908181526020018280548015610c3757602002820191905f5260205f20905b815481526020019060010190808311610c23575b50505050509050919050565b600f602052815f5260405f20602052805f5260405f205f915091509054906101000a900460ff1681565b610c8783838360405180602001604052805f8152506119b0565b505050565b60085f9054906101000a900473ffffffffffffffffffffffffffffffffffffffff1673ffffffffffffffffffffffffffffffffffffffff163373ffffffffffffffffffffffffffffffffffffffff1614610d1b576040517f08c379a0000000000000000000000000000000000000000000000000000000008152600401610d1290613a78565b60405180910390fd5b60405180604001604052805f67ffffffffffffffff811115610d4057610d3f6135be565b5b604051908082528060200260200182016040528015610d6e5781602001602082028036833780820191505090505b5081526020015f67ffffffffffffffff811115610d8e57610d8d6135be565b5b604051908082528060200260200182016040528015610dbc5781602001602082028036833780820191505090505b50815250600a5f8473ffffffffffffffffffffffffffffffffffffffff1673ffffffffffffffffffffffffffffffffffffffff1681526020019081526020015f205f820151815f019080519060200190610e17929190612e55565b506020820151816001019080519060200190610e34929190612edc565b50905050600a5f8373ffffffffffffffffffffffffffffffffffffffff1673ffffffffffffffffffffffffffffffffffffffff1681526020019081526020015f205f0133908060018154018082558091505060019003905f5260205f20015f9091909190916101000a81548173ffffffffffffffffffffffffffffffffffffffff021916908373ffffffffffffffffffffffffffffffffffffffff160217905550600e5f8273ffffffffffffffffffffffffffffffffffffffff1673ffffffffffffffffffffffffffffffffffffffff1681526020019081526020015f2082908060018154018082558091505060019003905f5260205f20015f9091909190916101000a81548173ffffffffffffffffffffffffffffffffffffffff021916908373ffffffffffffffffffffffffffffffffffffffff1602179055506001600f5f8473ffffffffffffffffffffffffffffffffffffffff1673ffffffffffffffffffffffffffffffffffffffff1681526020019081526020015f205f8373ffffffffffffffffffffffffffffffffffffffff1673ffffffffffffffffffffffffffffffffffffffff1681526020019081526020015f205f6101000a81548160ff0219169083151502179055505050565b600d602052805f5260405f205f915090508054611020906138bc565b80601f016020809104026020016040519081016040528092919081815260200182805461104c906138bc565b80156110975780601f1061106e57610100808354040283529160200191611097565b820191905f5260205f20905b81548152906001019060200180831161107a57829003601f168201915b505050505081565b5f806110aa83612307565b90505f73ffffffffffffffffffffffffffffffffffffffff168173ffffffffffffffffffffffffffffffffffffffff160361111a576040517f08c379a000000000000000000000000000000000000000000000000000000000815260040161111190613b6e565b60405180910390fd5b80915050919050565b600c602052815f5260405f20818154811061113c575f80fd5b905f5260205f20015f91509150505481565b606080600a5f8473ffffffffffffffffffffffffffffffffffffffff1673ffffffffffffffffffffffffffffffffffffffff1681526020019081526020015f205f01600a5f8573ffffffffffffffffffffffffffffffffffffffff1673ffffffffffffffffffffffffffffffffffffffff1681526020019081526020015f206001018180548060200260200160405190810160405280929190818152602001828054801561124e57602002820191905f5260205f20905b815f9054906101000a900473ffffffffffffffffffffffffffffffffffffffff1673ffffffffffffffffffffffffffffffffffffffff1681526020019060010190808311611205575b505050505091508080548060200260200160405190810160405280929190818152602001828054801561129e57602002820191905f5260205f20905b81548152602001906001019080831161128a575b5050505050905091509150915091565b5f600b5f8381526020019081526020015f206001015f9054906101000a900473ffffffffffffffffffffffffffffffffffffffff169050919050565b5f8073ffffffffffffffffffffffffffffffffffffffff168273ffffffffffffffffffffffffffffffffffffffff1603611359576040517f08c379a000000000000000000000000000000000000000000000000000000000815260040161135090613bfc565b60405180910390fd5b60035f8373ffffffffffffffffffffffffffffffffffffffff1673ffffffffffffffffffffffffffffffffffffffff1681526020019081526020015f20549050919050565b6009602052805f5260405f205f915054906101000a900460ff1681565b60095f3373ffffffffffffffffffffffffffffffffffffffff1673ffffffffffffffffffffffffffffffffffffffff1681526020019081526020015f205f9054906101000a900460ff168061145c575060085f9054906101000a900473ffffffffffffffffffffffffffffffffffffffff1673ffffffffffffffffffffffffffffffffffffffff163373ffffffffffffffffffffffffffffffffffffffff16145b61149b576040517f08c379a000000000000000000000000000000000000000000000000000000000815260040161149290613c8a565b60405180910390fd5b600a5f8273ffffffffffffffffffffffffffffffffffffffff1673ffffffffffffffffffffffffffffffffffffffff1681526020019081526020015f205f8082015f6114e79190612f27565b600182015f6114f69190612f45565b505050565b60606001805461150a906138bc565b80601f0160208091040260200160405190810160405280929190818152602001828054611536906138bc565b80156115815780601f1061155857610100808354040283529160200191611581565b820191905f5260205f20905b81548152906001019060200180831161156457829003601f168201915b5050505050905090565b600e602052815f5260405f2081815481106115a4575f80fd5b905f5260205f20015f915091509054906101000a900473ffffffffffffffffffffffffffffffffffffffff1681565b6115e56115de611eca565b8383612340565b5050565b6060600e5f8373ffffffffffffffffffffffffffffffffffffffff1673ffffffffffffffffffffffffffffffffffffffff1681526020019081526020015f208054806020026020016040519081016040528092919081815260200182805480156116a557602002820191905f5260205f20905b815f9054906101000a900473ffffffffffffffffffffffffffffffffffffffff1673ffffffffffffffffffffffffffffffffffffffff168152602001906001019080831161165c575b50505050509050919050565b60095f3373ffffffffffffffffffffffffffffffffffffffff1673ffffffffffffffffffffffffffffffffffffffff1681526020019081526020015f205f9054906101000a900460ff1680611752575060085f9054906101000a900473ffffffffffffffffffffffffffffffffffffffff1673ffffffffffffffffffffffffffffffffffffffff163373ffffffffffffffffffffffffffffffffffffffff16145b611791576040517f08c379a000000000000000000000000000000000000000000000000000000000815260040161178890613c8a565b60405180910390fd5b5f600161179e60076124a7565b6117a89190613cd5565b90506117b483826124b3565b6117be81836126c6565b60405180608001604052808281526020013373ffffffffffffffffffffffffffffffffffffffff1681526020018473ffffffffffffffffffffffffffffffffffffffff16815260200142815250600b5f8381526020019081526020015f205f820151815f01556020820151816001015f6101000a81548173ffffffffffffffffffffffffffffffffffffffff021916908373ffffffffffffffffffffffffffffffffffffffff1602179055506040820151816002015f6101000a81548173ffffffffffffffffffffffffffffffffffffffff021916908373ffffffffffffffffffffffffffffffffffffffff16021790555060608201518160030155905050600c5f3373ffffffffffffffffffffffffffffffffffffffff1673ffffffffffffffffffffffffffffffffffffffff1681526020019081526020015f2081908060018154018082558091505060019003905f5260205f20015f9091909190915055600a5f8473ffffffffffffffffffffffffffffffffffffffff1673ffffffffffffffffffffffffffffffffffffffff1681526020019081526020015f2060010181908060018154018082558091505060019003905f5260205f20015f909190919091505581600d5f8381526020019081526020015f2090816119a09190613ea5565b506119ab6007612768565b505050565b6119c16119bb611eca565b83611f87565b611a00576040517f08c379a00000000000000000000000000000000000000000000000000000000081526004016119f790613b06565b60405180910390fd5b611a0c8484848461277c565b50505050565b5f805f600b5f8581526020019081526020015f206001015f9054906101000a900473ffffffffffffffffffffffffffffffffffffffff16600b5f8681526020019081526020015f206002015f9054906101000a900473ffffffffffffffffffffffffffffffffffffffff16600b5f8781526020019081526020015f20600301549250925092509193909250565b60095f3373ffffffffffffffffffffffffffffffffffffffff1673ffffffffffffffffffffffffffffffffffffffff1681526020019081526020015f205f9054906101000a900460ff16611b28576040517f08c379a0000000000000000000000000000000000000000000000000000000008152600401611b1f90613fe4565b60405180910390fd5b62278d00600b5f8381526020019081526020015f2060030154611b4b9190613cd5565b421115611b8d576040517f08c379a0000000000000000000000000000000000000000000000000000000008152600401611b8490614072565b60405180910390fd5b611b96816127d8565b600b5f8281526020019081526020015f205f8082015f9055600182015f6101000a81549073ffffffffffffffffffffffffffffffffffffffff0219169055600282015f6101000a81549073ffffffffffffffffffffffffffffffffffffffff0219169055600382015f9055505050565b6060611c1182611e7f565b5f60065f8481526020019081526020015f208054611c2e906138bc565b80601f0160208091040260200160405190810160405280929190818152602001828054611c5a906138bc565b8015611ca55780601f10611c7c57610100808354040283529160200191611ca5565b820191905f5260205f20905b815481529060010190602001808311611c8857829003601f168201915b505050505090505f611cb5612825565b90505f815103611cc9578192505050611d0b565b5f82511115611cfd578082604051602001611ce59291906140ca565b60405160208183030381529060405292505050611d0b565b611d068461283b565b925050505b919050565b5f60055f8473ffffffffffffffffffffffffffffffffffffffff1673ffffffffffffffffffffffffffffffffffffffff1681526020019081526020015f205f8373ffffffffffffffffffffffffffffffffffffffff1673ffffffffffffffffffffffffffffffffffffffff1681526020019081526020015f205f9054906101000a900460ff16905092915050565b5f7f80ac58cd000000000000000000000000000000000000000000000000000000007bffffffffffffffffffffffffffffffffffffffffffffffffffffffff1916827bffffffffffffffffffffffffffffffffffffffffffffffffffffffff19161480611e6857507f5b5e139f000000000000000000000000000000000000000000000000000000007bffffffffffffffffffffffffffffffffffffffffffffffffffffffff1916827bffffffffffffffffffffffffffffffffffffffffffffffffffffffff1916145b80611e785750611e77826128a0565b5b9050919050565b611e8881612909565b611ec7576040517f08c379a0000000000000000000000000000000000000000000000000000000008152600401611ebe90613b6e565b60405180910390fd5b50565b5f33905090565b8160045f8381526020019081526020015f205f6101000a81548173ffffffffffffffffffffffffffffffffffffffff021916908373ffffffffffffffffffffffffffffffffffffffff160217905550808273ffffffffffffffffffffffffffffffffffffffff16611f418361109f565b73ffffffffffffffffffffffffffffffffffffffff167f8c5be1e5ebec7d5bd14f71427d1e84f3dd0314c0f7b2291e5b200ac8c7c3b92560405160405180910390a45050565b5f80611f928361109f565b90508073ffffffffffffffffffffffffffffffffffffffff168473ffffffffffffffffffffffffffffffffffffffff161480611fd45750611fd38185611d10565b5b8061201257508373ffffffffffffffffffffffffffffffffffffffff16611ffa846107d7565b73ffffffffffffffffffffffffffffffffffffffff16145b91505092915050565b8273ffffffffffffffffffffffffffffffffffffffff1661203b8261109f565b73ffffffffffffffffffffffffffffffffffffffff1614612091576040517f08c379a00000000000000000000000000000000000000000000000000000000081526004016120889061415d565b60405180910390fd5b5f73ffffffffffffffffffffffffffffffffffffffff168273ffffffffffffffffffffffffffffffffffffffff16036120ff576040517f08c379a00000000000000000000000000000000000000000000000000000000081526004016120f6906141eb565b60405180910390fd5b61210c8383836001612949565b8273ffffffffffffffffffffffffffffffffffffffff1661212c8261109f565b73ffffffffffffffffffffffffffffffffffffffff1614612182576040517f08c379a00000000000000000000000000000000000000000000000000000000081526004016121799061415d565b60405180910390fd5b60045f8281526020019081526020015f205f6101000a81549073ffffffffffffffffffffffffffffffffffffffff0219169055600160035f8573ffffffffffffffffffffffffffffffffffffffff1673ffffffffffffffffffffffffffffffffffffffff1681526020019081526020015f205f8282540392505081905550600160035f8473ffffffffffffffffffffffffffffffffffffffff1673ffffffffffffffffffffffffffffffffffffffff1681526020019081526020015f205f82825401925050819055508160025f8381526020019081526020015f205f6101000a81548173ffffffffffffffffffffffffffffffffffffffff021916908373ffffffffffffffffffffffffffffffffffffffff160217905550808273ffffffffffffffffffffffffffffffffffffffff168473ffffffffffffffffffffffffffffffffffffffff167fddf252ad1be2c89b69c2b068fc378daa952ba7f163c4a11628f55a4df523b3ef60405160405180910390a4612302838383600161294f565b505050565b5f60025f8381526020019081526020015f205f9054906101000a900473ffffffffffffffffffffffffffffffffffffffff169050919050565b8173ffffffffffffffffffffffffffffffffffffffff168373ffffffffffffffffffffffffffffffffffffffff16036123ae576040517f08c379a00000000000000000000000000000000000000000000000000000000081526004016123a590614253565b60405180910390fd5b8060055f8573ffffffffffffffffffffffffffffffffffffffff1673ffffffffffffffffffffffffffffffffffffffff1681526020019081526020015f205f8473ffffffffffffffffffffffffffffffffffffffff1673ffffffffffffffffffffffffffffffffffffffff1681526020019081526020015f205f6101000a81548160ff0219169083151502179055508173ffffffffffffffffffffffffffffffffffffffff168373ffffffffffffffffffffffffffffffffffffffff167f17307eab39ab6107e8899845ad3d59bd9653f200f220920489ca2b5937696c318360405161249a9190613066565b60405180910390a3505050565b5f815f01549050919050565b5f73ffffffffffffffffffffffffffffffffffffffff168273ffffffffffffffffffffffffffffffffffffffff1603612521576040517f08c379a0000000000000000000000000000000000000000000000000000000008152600401612518906142bb565b60405180910390fd5b61252a81612909565b1561256a576040517f08c379a000000000000000000000000000000000000000000000000000000000815260040161256190614323565b60405180910390fd5b6125775f83836001612949565b61258081612909565b156125c0576040517f08c379a00000000000000000000000000000000000000000000000000000000081526004016125b790614323565b60405180910390fd5b600160035f8473ffffffffffffffffffffffffffffffffffffffff1673ffffffffffffffffffffffffffffffffffffffff1681526020019081526020015f205f82825401925050819055508160025f8381526020019081526020015f205f6101000a81548173ffffffffffffffffffffffffffffffffffffffff021916908373ffffffffffffffffffffffffffffffffffffffff160217905550808273ffffffffffffffffffffffffffffffffffffffff165f73ffffffffffffffffffffffffffffffffffffffff167fddf252ad1be2c89b69c2b068fc378daa952ba7f163c4a11628f55a4df523b3ef60405160405180910390a46126c25f8383600161294f565b5050565b6126cf82612909565b61270e576040517f08c379a0000000000000000000000000000000000000000000000000000000008152600401612705906143b1565b60405180910390fd5b8060065f8481526020019081526020015f20908161272c9190613ea5565b507ff8e1a15aba9398e019f0b49df1a4fde98ee17ae345cb5f6b5e2c27f5033e8ce78260405161275c9190613314565b60405180910390a15050565b6001815f015f828254019250508190555050565b61278784848461201b565b61279384848484612955565b6127d2576040517f08c379a00000000000000000000000000000000000000000000000000000000081526004016127c99061443f565b60405180910390fd5b50505050565b6127e181612ad7565b5f60065f8381526020019081526020015f2080546127fe906138bc565b9050146128225760065f8281526020019081526020015f205f6128219190612f63565b5b50565b606060405180602001604052805f815250905090565b606061284682611e7f565b5f61284f612825565b90505f81511161286d5760405180602001604052805f815250612898565b8061287784612c18565b6040516020016128889291906140ca565b6040516020818303038152906040525b915050919050565b5f7f01ffc9a7000000000000000000000000000000000000000000000000000000007bffffffffffffffffffffffffffffffffffffffffffffffffffffffff1916827bffffffffffffffffffffffffffffffffffffffffffffffffffffffff1916149050919050565b5f8073ffffffffffffffffffffffffffffffffffffffff1661292a83612307565b73ffffffffffffffffffffffffffffffffffffffff1614159050919050565b50505050565b50505050565b5f6129758473ffffffffffffffffffffffffffffffffffffffff16612ce2565b15612aca578373ffffffffffffffffffffffffffffffffffffffff1663150b7a0261299e611eca565b8786866040518563ffffffff1660e01b81526004016129c094939291906144af565b6020604051808303815f875af19250505080156129fb57506040513d601f19601f820116820180604052508101906129f8919061450d565b60015b612a7a573d805f8114612a29576040519150601f19603f3d011682016040523d82523d5f602084013e612a2e565b606091505b505f815103612a72576040517f08c379a0000000000000000000000000000000000000000000000000000000008152600401612a699061443f565b60405180910390fd5b805181602001fd5b63150b7a0260e01b7bffffffffffffffffffffffffffffffffffffffffffffffffffffffff1916817bffffffffffffffffffffffffffffffffffffffffffffffffffffffff191614915050612acf565b600190505b949350505050565b5f612ae18261109f565b9050612af0815f846001612949565b612af98261109f565b905060045f8381526020019081526020015f205f6101000a81549073ffffffffffffffffffffffffffffffffffffffff0219169055600160035f8373ffffffffffffffffffffffffffffffffffffffff1673ffffffffffffffffffffffffffffffffffffffff1681526020019081526020015f205f828254039250508190555060025f8381526020019081526020015f205f6101000a81549073ffffffffffffffffffffffffffffffffffffffff0219169055815f73ffffffffffffffffffffffffffffffffffffffff168273ffffffffffffffffffffffffffffffffffffffff167fddf252ad1be2c89b69c2b068fc378daa952ba7f163c4a11628f55a4df523b3ef60405160405180910390a4612c14815f84600161294f565b5050565b60605f6001612c2684612d04565b0190505f8167ffffffffffffffff811115612c4457612c436135be565b5b6040519080825280601f01601f191660200182016040528015612c765781602001600182028036833780820191505090505b5090505f82602001820190505b600115612cd7578080600190039150507f3031323334353637383961626364656600000000000000000000000000000000600a86061a8153600a8581612ccc57612ccb614538565b5b0494505f8503612c83575b819350505050919050565b5f808273ffffffffffffffffffffffffffffffffffffffff163b119050919050565b5f805f90507a184f03e93ff9f4daa797ed6e38ed64bf6a1f0100000000000000008310612d60577a184f03e93ff9f4daa797ed6e38ed64bf6a1f0100000000000000008381612d5657612d55614538565b5b0492506040810190505b6d04ee2d6d415b85acef81000000008310612d9d576d04ee2d6d415b85acef81000000008381612d9357612d92614538565b5b0492506020810190505b662386f26fc100008310612dcc57662386f26fc100008381612dc257612dc1614538565b5b0492506010810190505b6305f5e1008310612df5576305f5e1008381612deb57612dea614538565b5b0492506008810190505b6127108310612e1a576127108381612e1057612e0f614538565b5b0492506004810190505b60648310612e3d5760648381612e3357612e32614538565b5b0492506002810190505b600a8310612e4c576001810190505b80915050919050565b828054828255905f5260205f20908101928215612ecb579160200282015b82811115612eca578251825f6101000a81548173ffffffffffffffffffffffffffffffffffffffff021916908373ffffffffffffffffffffffffffffffffffffffff16021790555091602001919060010190612e73565b5b509050612ed89190612fa0565b5090565b828054828255905f5260205f20908101928215612f16579160200282015b82811115612f15578251825591602001919060010190612efa565b5b509050612f239190612fa0565b5090565b5080545f8255905f5260205f2090810190612f429190612fa0565b50565b5080545f8255905f5260205f2090810190612f609190612fa0565b50565b508054612f6f906138bc565b5f825580601f10612f805750612f9d565b601f0160209004905f5260205f2090810190612f9c9190612fa0565b5b50565b5b80821115612fb7575f815f905550600101612fa1565b5090565b5f604051905090565b5f80fd5b5f80fd5b5f7fffffffff0000000000000000000000000000000000000000000000000000000082169050919050565b61300081612fcc565b811461300a575f80fd5b50565b5f8135905061301b81612ff7565b92915050565b5f6020828403121561303657613035612fc4565b5b5f6130438482850161300d565b91505092915050565b5f8115159050919050565b6130608161304c565b82525050565b5f6020820190506130795f830184613057565b92915050565b5f81519050919050565b5f82825260208201905092915050565b5f5b838110156130b657808201518184015260208101905061309b565b5f8484015250505050565b5f601f19601f8301169050919050565b5f6130db8261307f565b6130e58185613089565b93506130f5818560208601613099565b6130fe816130c1565b840191505092915050565b5f6020820190508181035f83015261312181846130d1565b905092915050565b5f819050919050565b61313b81613129565b8114613145575f80fd5b50565b5f8135905061315681613132565b92915050565b5f6020828403121561317157613170612fc4565b5b5f61317e84828501613148565b91505092915050565b5f73ffffffffffffffffffffffffffffffffffffffff82169050919050565b5f6131b082613187565b9050919050565b6131c0816131a6565b82525050565b5f6020820190506131d95f8301846131b7565b92915050565b6131e8816131a6565b81146131f2575f80fd5b50565b5f81359050613203816131df565b92915050565b5f806040838503121561321f5761321e612fc4565b5b5f61322c858286016131f5565b925050602061323d85828601613148565b9150509250929050565b5f6020828403121561325c5761325b612fc4565b5b5f613269848285016131f5565b91505092915050565b5f805f6060848603121561328957613288612fc4565b5b5f613296868287016131f5565b93505060206132a7868287016131f5565b92505060406132b886828701613148565b9150509250925092565b6132cb81613129565b82525050565b5f6080820190506132e45f8301876132c2565b6132f160208301866131b7565b6132fe60408301856131b7565b61330b60608301846132c2565b95945050505050565b5f6020820190506133275f8301846132c2565b92915050565b5f81519050919050565b5f82825260208201905092915050565b5f819050602082019050919050565b61335f81613129565b82525050565b5f6133708383613356565b60208301905092915050565b5f602082019050919050565b5f6133928261332d565b61339c8185613337565b93506133a783613347565b805f5b838110156133d75781516133be8882613365565b97506133c98361337c565b9250506001810190506133aa565b5085935050505092915050565b5f6020820190508181035f8301526133fc8184613388565b905092915050565b5f806040838503121561341a57613419612fc4565b5b5f613427858286016131f5565b9250506020613438858286016131f5565b9150509250929050565b5f81519050919050565b5f82825260208201905092915050565b5f819050602082019050919050565b613474816131a6565b82525050565b5f613485838361346b565b60208301905092915050565b5f602082019050919050565b5f6134a782613442565b6134b1818561344c565b93506134bc8361345c565b805f5b838110156134ec5781516134d3888261347a565b97506134de83613491565b9250506001810190506134bf565b5085935050505092915050565b5f6040820190508181035f830152613511818561349d565b905081810360208301526135258184613388565b90509392505050565b6135378161304c565b8114613541575f80fd5b50565b5f813590506135528161352e565b92915050565b5f806040838503121561356e5761356d612fc4565b5b5f61357b858286016131f5565b925050602061358c85828601613544565b9150509250929050565b5f6020820190508181035f8301526135ae818461349d565b905092915050565b5f80fd5b5f80fd5b7f4e487b71000000000000000000000000000000000000000000000000000000005f52604160045260245ffd5b6135f4826130c1565b810181811067ffffffffffffffff82111715613613576136126135be565b5b80604052505050565b5f613625612fbb565b905061363182826135eb565b919050565b5f67ffffffffffffffff8211156136505761364f6135be565b5b613659826130c1565b9050602081019050919050565b828183375f83830152505050565b5f61368661368184613636565b61361c565b9050828152602081018484840111156136a2576136a16135ba565b5b6136ad848285613666565b509392505050565b5f82601f8301126136c9576136c86135b6565b5b81356136d9848260208601613674565b91505092915050565b5f80604083850312156136f8576136f7612fc4565b5b5f613705858286016131f5565b925050602083013567ffffffffffffffff81111561372657613725612fc8565b5b613732858286016136b5565b9150509250929050565b5f67ffffffffffffffff821115613756576137556135be565b5b61375f826130c1565b9050602081019050919050565b5f61377e6137798461373c565b61361c565b90508281526020810184848401111561379a576137996135ba565b5b6137a5848285613666565b509392505050565b5f82601f8301126137c1576137c06135b6565b5b81356137d184826020860161376c565b91505092915050565b5f805f80608085870312156137f2576137f1612fc4565b5b5f6137ff878288016131f5565b9450506020613810878288016131f5565b935050604061382187828801613148565b925050606085013567ffffffffffffffff81111561384257613841612fc8565b5b61384e878288016137ad565b91505092959194509250565b5f60608201905061386d5f8301866131b7565b61387a60208301856131b7565b61388760408301846132c2565b949350505050565b7f4e487b71000000000000000000000000000000000000000000000000000000005f52602260045260245ffd5b5f60028204905060018216806138d357607f821691505b6020821081036138e6576138e561388f565b5b50919050565b7f4552433732313a20617070726f76616c20746f2063757272656e74206f776e655f8201527f7200000000000000000000000000000000000000000000000000000000000000602082015250565b5f613946602183613089565b9150613951826138ec565b604082019050919050565b5f6020820190508181035f8301526139738161393a565b9050919050565b7f4552433732313a20617070726f76652063616c6c6572206973206e6f7420746f5f8201527f6b656e206f776e6572206f7220617070726f76656420666f7220616c6c000000602082015250565b5f6139d4603d83613089565b91506139df8261397a565b604082019050919050565b5f6020820190508181035f830152613a01816139c8565b9050919050565b7f4f6e6c792074686520676f7665726e6d656e742063616e20706572666f726d205f8201527f7468697320616374696f6e000000000000000000000000000000000000000000602082015250565b5f613a62602b83613089565b9150613a6d82613a08565b604082019050919050565b5f6020820190508181035f830152613a8f81613a56565b9050919050565b7f4552433732313a2063616c6c6572206973206e6f7420746f6b656e206f776e655f8201527f72206f7220617070726f76656400000000000000000000000000000000000000602082015250565b5f613af0602d83613089565b9150613afb82613a96565b604082019050919050565b5f6020820190508181035f830152613b1d81613ae4565b9050919050565b7f4552433732313a20696e76616c696420746f6b656e20494400000000000000005f82015250565b5f613b58601883613089565b9150613b6382613b24565b602082019050919050565b5f6020820190508181035f830152613b8581613b4c565b9050919050565b7f4552433732313a2061646472657373207a65726f206973206e6f7420612076615f8201527f6c6964206f776e65720000000000000000000000000000000000000000000000602082015250565b5f613be6602983613089565b9150613bf182613b8c565b604082019050919050565b5f6020820190508181035f830152613c1381613bda565b9050919050565b7f4f6e6c792061207363686f6f6c206f722074686520676f7665726d656e7420635f8201527f616e20706572666f726d207468697320616374696f6e00000000000000000000602082015250565b5f613c74603683613089565b9150613c7f82613c1a565b604082019050919050565b5f6020820190508181035f830152613ca181613c68565b9050919050565b7f4e487b71000000000000000000000000000000000000000000000000000000005f52601160045260245ffd5b5f613cdf82613129565b9150613cea83613129565b9250828201905080821115613d0257613d01613ca8565b5b92915050565b5f819050815f5260205f209050919050565b5f6020601f8301049050919050565b5f82821b905092915050565b5f60088302613d647fffffffffffffffffffffffffffffffffffffffffffffffffffffffffffffffff82613d29565b613d6e8683613d29565b95508019841693508086168417925050509392505050565b5f819050919050565b5f613da9613da4613d9f84613129565b613d86565b613129565b9050919050565b5f819050919050565b613dc283613d8f565b613dd6613dce82613db0565b848454613d35565b825550505050565b5f90565b613dea613dde565b613df5818484613db9565b505050565b5b81811015613e1857613e0d5f82613de2565b600181019050613dfb565b5050565b601f821115613e5d57613e2e81613d08565b613e3784613d1a565b81016020851015613e46578190505b613e5a613e5285613d1a565b830182613dfa565b50505b505050565b5f82821c905092915050565b5f613e7d5f1984600802613e62565b1980831691505092915050565b5f613e958383613e6e565b9150826002028217905092915050565b613eae8261307f565b67ffffffffffffffff811115613ec757613ec66135be565b5b613ed182546138bc565b613edc828285613e1c565b5f60209050601f831160018114613f0d575f8415613efb578287015190505b613f058582613e8a565b865550613f6c565b601f198416613f1b86613d08565b5f5b82811015613f4257848901518255600182019150602085019450602081019050613f1d565b86831015613f5f5784890151613f5b601f891682613e6e565b8355505b6001600288020188555050505b505050505050565b7f4f6e6c792061207363686f6f6c2063616e20706572666f726d207468697320615f8201527f6374696f6e000000000000000000000000000000000000000000000000000000602082015250565b5f613fce602583613089565b9150613fd982613f74565b604082019050919050565b5f6020820190508181035f830152613ffb81613fc2565b9050919050565b7f5468652065787069727920706572696f6420666f722064657374726f79696e675f8201527f2074686973204e46542068617320706173736564000000000000000000000000602082015250565b5f61405c603483613089565b915061406782614002565b604082019050919050565b5f6020820190508181035f83015261408981614050565b9050919050565b5f81905092915050565b5f6140a48261307f565b6140ae8185614090565b93506140be818560208601613099565b80840191505092915050565b5f6140d5828561409a565b91506140e1828461409a565b91508190509392505050565b7f4552433732313a207472616e736665722066726f6d20696e636f7272656374205f8201527f6f776e6572000000000000000000000000000000000000000000000000000000602082015250565b5f614147602583613089565b9150614152826140ed565b604082019050919050565b5f6020820190508181035f8301526141748161413b565b9050919050565b7f4552433732313a207472616e7366657220746f20746865207a65726f206164645f8201527f7265737300000000000000000000000000000000000000000000000000000000602082015250565b5f6141d5602483613089565b91506141e08261417b565b604082019050919050565b5f6020820190508181035f830152614202816141c9565b9050919050565b7f4552433732313a20617070726f766520746f2063616c6c6572000000000000005f82015250565b5f61423d601983613089565b915061424882614209565b602082019050919050565b5f6020820190508181035f83015261426a81614231565b9050919050565b7f4552433732313a206d696e7420746f20746865207a65726f20616464726573735f82015250565b5f6142a5602083613089565b91506142b082614271565b602082019050919050565b5f6020820190508181035f8301526142d281614299565b9050919050565b7f4552433732313a20746f6b656e20616c7265616479206d696e746564000000005f82015250565b5f61430d601c83613089565b9150614318826142d9565b602082019050919050565b5f6020820190508181035f83015261433a81614301565b9050919050565b7f45524337323155524953746f726167653a2055524920736574206f66206e6f6e5f8201527f6578697374656e7420746f6b656e000000000000000000000000000000000000602082015250565b5f61439b602e83613089565b91506143a682614341565b604082019050919050565b5f6020820190508181035f8301526143c88161438f565b9050919050565b7f4552433732313a207472616e7366657220746f206e6f6e2045524337323152655f8201527f63656976657220696d706c656d656e7465720000000000000000000000000000602082015250565b5f614429603283613089565b9150614434826143cf565b604082019050919050565b5f6020820190508181035f8301526144568161441d565b9050919050565b5f81519050919050565b5f82825260208201905092915050565b5f6144818261445d565b61448b8185614467565b935061449b818560208601613099565b6144a4816130c1565b840191505092915050565b5f6080820190506144c25f8301876131b7565b6144cf60208301866131b7565b6144dc60408301856132c2565b81810360608301526144ee8184614477565b905095945050505050565b5f8151905061450781612ff7565b92915050565b5f6020828403121561452257614521612fc4565b5b5f61452f848285016144f9565b91505092915050565b7f4e487b71000000000000000000000000000000000000000000000000000000005f52601260045260245ffdfea2646970667358221220e1639571836bd0569336d9fd8e99b81c7fb6dcf88062ff2fe868dbcd5a8a780b64736f6c63430008140033",
  "immutableReferences": {},
  "source": "// SPDX-License-Identifier: GPL-3.0\n\npragma solidity >=0.7.0 <0.9.0;\n\nimport \"../node_modules/@openzeppelin/contracts/token/ERC721/ERC721.sol\";\nimport \"../node_modules/@openzeppelin/contracts/utils/Counters.sol\";\nimport \"../node_modules/@openzeppelin/contracts/token/ERC721/extensions/ERC721URIStorage.sol\";\n\ncontract EducationSystem is ERC721URIStorage {\n   using Counters for Counters.Counter;\n   Counters.Counter private _tokenIds;\n\n   address public government;\n   mapping(address => bool) public schools;\n   mapping(address => Student) students;\n   mapping(uint256 => SchoolNFT) public schoolNFTs;\n   mapping(address => uint256[]) public schoolNFTsBySchool;\n   mapping(uint => string) public ipfsById;\n   mapping(address => address[]) public studentsBySchool;\n   mapping(address => mapping(address => bool)) public allowedSchoolsStatus;\n\n   struct Student {\n      address[] schoolsAllowed;\n      uint256[] ownedNFTs;\n   }\n\n   struct SchoolNFT {\n      uint256 id;\n      address schoolAddress;\n      address studentAddress;\n      uint256 issuedAt;\n   }\n\n   uint256 public constant EXPIRY_PERIOD = 30 days;\n\n   constructor() ERC721(\"EducationSystemNFT\", \"ESN\") {\n      government = msg.sender;\n   }\n\n   modifier onlyGovernment() {\n      require(\n         msg.sender == government,\n         \"Only the government can perform this action\"\n      );\n      _;\n   }\n\n   modifier onlySchools() {\n      require(schools[msg.sender], \"Only a school can perform this action\");\n      _;\n   }\n\n   modifier onlySchoolsOrGoverment() {\n       require(schools[msg.sender] || msg.sender == government, \"Only a school or the goverment can perform this action\");\n       _;\n   }\n\n   function createSchool(address _schoolAddress) public onlyGovernment {\n      schools[_schoolAddress] = true;\n   }\n\n   function createStudent(address _studentAddress, address _schoolAddress) public onlyGovernment {\n      students[_studentAddress] = Student(\n         new address[](0),\n         new uint256[](0)\n      );\n      students[_studentAddress].schoolsAllowed.push(msg.sender);\n      studentsBySchool[_schoolAddress].push(_studentAddress);\n      allowedSchoolsStatus[_studentAddress][_schoolAddress] = true;\n   }\n\n   function getStudent(address _studentAddress) public view returns (address[] memory, uint256[] memory) {\n       return (students[_studentAddress].schoolsAllowed, students[_studentAddress].ownedNFTs);\n   }\n\n    function deleteStudent(address _studentAddress) public onlySchoolsOrGoverment {\n        delete students[_studentAddress];\n    }\n\n    function issueNFT(address _studentAddress, string memory _tokenURI) public onlySchoolsOrGoverment {\n        uint256 newNFTId = _tokenIds.current() + 1;\n        _mint(_studentAddress, newNFTId);\n        _setTokenURI(newNFTId, _tokenURI);\n        schoolNFTs[newNFTId] = SchoolNFT(newNFTId, msg.sender, _studentAddress, block.timestamp);\n        schoolNFTsBySchool[msg.sender].push(newNFTId);\n        students[_studentAddress].ownedNFTs.push(newNFTId);\n        ipfsById[newNFTId] = _tokenURI;\n        _tokenIds.increment();\n    }\n\n    function destroyNFT(uint256 _tokenId) public onlySchools {\n        require(\n            block.timestamp <= schoolNFTs[_tokenId].issuedAt + EXPIRY_PERIOD,\n            \"The expiry period for destroying this NFT has passed\"\n        );\n        _burn(_tokenId);\n        delete schoolNFTs[_tokenId];\n    }\n\n    function getSchoolNFTs(uint256 _id) public view returns (address, address, uint256) {\n       return (schoolNFTs[_id].schoolAddress, schoolNFTs[_id].studentAddress, schoolNFTs[_id].issuedAt);\n    }\n\n    function getIPFSByID(uint _tokenId) public view returns (string memory) {\n        return ipfsById[_tokenId];\n    }\n\n    function getStudentsBySchool(address _schoolAddress) public view returns (address[] memory) {\n        return studentsBySchool[_schoolAddress];\n    }\n\n    function seeOwnedNFTs(\n        address _studentAddress\n    ) public view returns (uint256[] memory) {\n        return students[_studentAddress].ownedNFTs;\n    }\n\n    function seeNFTOrigin(uint256 _tokenId) public view returns (address) {\n        return schoolNFTs[_tokenId].schoolAddress;\n    }\n}",
  "sourcePath": "/home/victorcarvalho/Documents/Github/EthereumHachas/ethereum-sp23/blockchain/contracts/EducationSystem.sol",
  "compiler": {
    "name": "solc",
    "version": "0.8.20+commit.a1b79de6.Emscripten.clang"
  },
  "schemaVersion": "3.4.14",
  "updatedAt": "2023-06-25T07:44:41.711Z",
  "networkType": "ethereum",
  "devdoc": {
    "events": {
      "Approval(address,address,uint256)": {
        "details": "Emitted when `owner` enables `approved` to manage the `tokenId` token."
      },
      "ApprovalForAll(address,address,bool)": {
        "details": "Emitted when `owner` enables or disables (`approved`) `operator` to manage all of its assets."
      },
      "BatchMetadataUpdate(uint256,uint256)": {
        "details": "This event emits when the metadata of a range of tokens is changed. So that the third-party platforms such as NFT market could timely update the images and related attributes of the NFTs."
      },
      "MetadataUpdate(uint256)": {
        "details": "This event emits when the metadata of a token is changed. So that the third-party platforms such as NFT market could timely update the images and related attributes of the NFT."
      },
      "Transfer(address,address,uint256)": {
        "details": "Emitted when `tokenId` token is transferred from `from` to `to`."
      }
    },
    "kind": "dev",
    "methods": {
      "approve(address,uint256)": {
        "details": "See {IERC721-approve}."
      },
      "balanceOf(address)": {
        "details": "See {IERC721-balanceOf}."
      },
      "getApproved(uint256)": {
        "details": "See {IERC721-getApproved}."
      },
      "isApprovedForAll(address,address)": {
        "details": "See {IERC721-isApprovedForAll}."
      },
      "name()": {
        "details": "See {IERC721Metadata-name}."
      },
      "ownerOf(uint256)": {
        "details": "See {IERC721-ownerOf}."
      },
      "safeTransferFrom(address,address,uint256)": {
        "details": "See {IERC721-safeTransferFrom}."
      },
      "safeTransferFrom(address,address,uint256,bytes)": {
        "details": "See {IERC721-safeTransferFrom}."
      },
      "setApprovalForAll(address,bool)": {
        "details": "See {IERC721-setApprovalForAll}."
      },
      "supportsInterface(bytes4)": {
        "details": "See {IERC165-supportsInterface}"
      },
      "symbol()": {
        "details": "See {IERC721Metadata-symbol}."
      },
      "tokenURI(uint256)": {
        "details": "See {IERC721Metadata-tokenURI}."
      },
      "transferFrom(address,address,uint256)": {
        "details": "See {IERC721-transferFrom}."
      }
    },
    "version": 1
  },
  "userdoc": {
    "kind": "user",
    "methods": {},
    "version": 1
  }
}